{
	"contracts/ItemManager.sol": {
		"ItemManager": {
			"abi": [
				{
					"anonymous": false,
					"inputs": [
						{
							"indexed": false,
							"internalType": "uint256",
							"name": "itemIndex",
							"type": "uint256"
						},
						{
							"indexed": false,
							"internalType": "uint256",
							"name": "state",
							"type": "uint256"
						},
						{
							"indexed": false,
							"internalType": "address",
							"name": "_itemAddress",
							"type": "address"
						}
					],
					"name": "SupplyChainStep",
					"type": "event"
				},
				{
					"inputs": [
						{
							"internalType": "string",
							"name": "_identifier",
							"type": "string"
						},
						{
							"internalType": "uint256",
							"name": "_itemPrice",
							"type": "uint256"
						}
					],
					"name": "createItem",
					"outputs": [],
					"stateMutability": "nonpayable",
					"type": "function"
				},
				{
					"inputs": [],
					"name": "isOwner",
					"outputs": [
						{
							"internalType": "bool",
							"name": "",
							"type": "bool"
						}
					],
					"stateMutability": "view",
					"type": "function"
				},
				{
					"inputs": [
						{
							"internalType": "uint256",
							"name": "",
							"type": "uint256"
						}
					],
					"name": "items",
					"outputs": [
						{
							"internalType": "contract Item",
							"name": "_item",
							"type": "address"
						},
						{
							"internalType": "string",
							"name": "_identifier",
							"type": "string"
						},
						{
							"internalType": "uint256",
							"name": "_itemPrice",
							"type": "uint256"
						},
						{
							"internalType": "uint256",
							"name": "_state",
							"type": "uint256"
						}
					],
					"stateMutability": "view",
					"type": "function"
				},
				{
					"inputs": [
						{
							"internalType": "uint256",
							"name": "_itemIndex",
							"type": "uint256"
						}
					],
					"name": "triggerDelivery",
					"outputs": [],
					"stateMutability": "nonpayable",
					"type": "function"
				},
				{
					"inputs": [
						{
							"internalType": "uint256",
							"name": "_itemIndex",
							"type": "uint256"
						}
					],
					"name": "triggerPayment",
					"outputs": [],
					"stateMutability": "payable",
					"type": "function"
				}
			],
			"devdoc": {
				"kind": "dev",
				"methods": {},
				"version": 1
			},
			"evm": {
				"assembly": "    /* \"contracts/ItemManager.sol\":110:1723  contract ItemManager is Ownable{\r... */\n  mstore(0x40, 0x80)\n  callvalue\n  dup1\n  iszero\n  tag_1\n  jumpi\n  0x00\n  dup1\n  revert\ntag_1:\n  pop\n    /* \"contracts/Ownable.sol\":165:175  msg.sender */\n  caller\n    /* \"contracts/Ownable.sol\":149:154  Owner */\n  0x00\n  dup1\n    /* \"contracts/Ownable.sol\":149:176  Owner = payable(msg.sender) */\n  0x0100\n  exp\n  dup2\n  sload\n  dup2\n  0xffffffffffffffffffffffffffffffffffffffff\n  mul\n  not\n  and\n  swap1\n  dup4\n  0xffffffffffffffffffffffffffffffffffffffff\n  and\n  mul\n  or\n  swap1\n  sstore\n  pop\n    /* \"contracts/ItemManager.sol\":110:1723  contract ItemManager is Ownable{\r... */\n  dataSize(sub_0)\n  dup1\n  dataOffset(sub_0)\n  0x00\n  codecopy\n  0x00\n  return\nstop\n\nsub_0: assembly {\n        /* \"contracts/ItemManager.sol\":110:1723  contract ItemManager is Ownable{\r... */\n      mstore(0x40, 0x80)\n      jumpi(tag_1, lt(calldatasize, 0x04))\n      shr(0xe0, calldataload(0x00))\n      dup1\n      0x800fb83f\n      eq\n      tag_2\n      jumpi\n      dup1\n      0x8c551742\n      eq\n      tag_3\n      jumpi\n      dup1\n      0x8f32d59b\n      eq\n      tag_4\n      jumpi\n      dup1\n      0xbfb231d2\n      eq\n      tag_5\n      jumpi\n      dup1\n      0xcd31831e\n      eq\n      tag_6\n      jumpi\n    tag_1:\n      0x00\n      dup1\n      revert\n        /* \"contracts/ItemManager.sol\":938:1368  function triggerPayment(uint _itemIndex) public payable{\r... */\n    tag_2:\n      tag_7\n      0x04\n      dup1\n      calldatasize\n      sub\n      dup2\n      add\n      swap1\n      tag_8\n      swap2\n      swap1\n      tag_9\n      jump\t// in\n    tag_8:\n      tag_10\n      jump\t// in\n    tag_7:\n      stop\n        /* \"contracts/ItemManager.sol\":470:930  function createItem(string memory _identifier,uint _itemPrice) public onlyOwner{\r... */\n    tag_3:\n      callvalue\n      dup1\n      iszero\n      tag_11\n      jumpi\n      0x00\n      dup1\n      revert\n    tag_11:\n      pop\n      tag_12\n      0x04\n      dup1\n      calldatasize\n      sub\n      dup2\n      add\n      swap1\n      tag_13\n      swap2\n      swap1\n      tag_14\n      jump\t// in\n    tag_13:\n      tag_15\n      jump\t// in\n    tag_12:\n      stop\n        /* \"contracts/Ownable.sol\":301:392  function isOwner() public view returns(bool){\r... */\n    tag_4:\n      callvalue\n      dup1\n      iszero\n      tag_16\n      jumpi\n      0x00\n      dup1\n      revert\n    tag_16:\n      pop\n      tag_17\n      tag_18\n      jump\t// in\n    tag_17:\n      mload(0x40)\n      tag_19\n      swap2\n      swap1\n      tag_20\n      jump\t// in\n    tag_19:\n      mload(0x40)\n      dup1\n      swap2\n      sub\n      swap1\n      return\n        /* \"contracts/ItemManager.sol\":328:364  mapping(uint => S_Item) public items */\n    tag_5:\n      callvalue\n      dup1\n      iszero\n      tag_21\n      jumpi\n      0x00\n      dup1\n      revert\n    tag_21:\n      pop\n      tag_22\n      0x04\n      dup1\n      calldatasize\n      sub\n      dup2\n      add\n      swap1\n      tag_23\n      swap2\n      swap1\n      tag_9\n      jump\t// in\n    tag_23:\n      tag_24\n      jump\t// in\n    tag_22:\n      mload(0x40)\n      tag_25\n      swap5\n      swap4\n      swap3\n      swap2\n      swap1\n      tag_26\n      jump\t// in\n    tag_25:\n      mload(0x40)\n      dup1\n      swap2\n      sub\n      swap1\n      return\n        /* \"contracts/ItemManager.sol\":1376:1720  function triggerDelivery(uint _itemIndex) public onlyOwner{\r... */\n    tag_6:\n      callvalue\n      dup1\n      iszero\n      tag_27\n      jumpi\n      0x00\n      dup1\n      revert\n    tag_27:\n      pop\n      tag_28\n      0x04\n      dup1\n      calldatasize\n      sub\n      dup2\n      add\n      swap1\n      tag_29\n      swap2\n      swap1\n      tag_9\n      jump\t// in\n    tag_29:\n      tag_30\n      jump\t// in\n    tag_28:\n      stop\n        /* \"contracts/ItemManager.sol\":938:1368  function triggerPayment(uint _itemIndex) public payable{\r... */\n    tag_10:\n        /* \"contracts/ItemManager.sol\":1044:1053  msg.value */\n      callvalue\n        /* \"contracts/ItemManager.sol\":1012:1017  items */\n      0x01\n        /* \"contracts/ItemManager.sol\":1012:1029  items[_itemIndex] */\n      0x00\n        /* \"contracts/ItemManager.sol\":1018:1028  _itemIndex */\n      dup4\n        /* \"contracts/ItemManager.sol\":1012:1029  items[_itemIndex] */\n      dup2\n      mstore\n      0x20\n      add\n      swap1\n      dup2\n      mstore\n      0x20\n      add\n      0x00\n      keccak256\n        /* \"contracts/ItemManager.sol\":1012:1040  items[_itemIndex]._itemPrice */\n      0x02\n      add\n      sload\n        /* \"contracts/ItemManager.sol\":1012:1053  items[_itemIndex]._itemPrice == msg.value */\n      eq\n        /* \"contracts/ItemManager.sol\":1004:1084  require(items[_itemIndex]._itemPrice == msg.value,\"Only full payments accepted\") */\n      tag_32\n      jumpi\n      mload(0x40)\n      0x08c379a000000000000000000000000000000000000000000000000000000000\n      dup2\n      mstore\n      0x04\n      add\n      tag_33\n      swap1\n      tag_34\n      jump\t// in\n    tag_33:\n      mload(0x40)\n      dup1\n      swap2\n      sub\n      swap1\n      revert\n    tag_32:\n        /* \"contracts/ItemManager.sol\":1136:1160  SupplyChainState.Created */\n      0x00\n        /* \"contracts/ItemManager.sol\":1131:1161  uint(SupplyChainState.Created) */\n      0x02\n      dup2\n      gt\n      iszero\n      tag_35\n      jumpi\n      tag_36\n      tag_37\n      jump\t// in\n    tag_36:\n    tag_35:\n        /* \"contracts/ItemManager.sol\":1103:1108  items */\n      0x01\n        /* \"contracts/ItemManager.sol\":1103:1120  items[_itemIndex] */\n      0x00\n        /* \"contracts/ItemManager.sol\":1109:1119  _itemIndex */\n      dup4\n        /* \"contracts/ItemManager.sol\":1103:1120  items[_itemIndex] */\n      dup2\n      mstore\n      0x20\n      add\n      swap1\n      dup2\n      mstore\n      0x20\n      add\n      0x00\n      keccak256\n        /* \"contracts/ItemManager.sol\":1103:1127  items[_itemIndex]._state */\n      0x03\n      add\n      sload\n        /* \"contracts/ItemManager.sol\":1103:1161  items[_itemIndex]._state == uint(SupplyChainState.Created) */\n      eq\n        /* \"contracts/ItemManager.sol\":1095:1194  require(items[_itemIndex]._state == uint(SupplyChainState.Created), \"Item is further in the chain\") */\n      tag_38\n      jumpi\n      mload(0x40)\n      0x08c379a000000000000000000000000000000000000000000000000000000000\n      dup2\n      mstore\n      0x04\n      add\n      tag_39\n      swap1\n      tag_40\n      jump\t// in\n    tag_39:\n      mload(0x40)\n      dup1\n      swap2\n      sub\n      swap1\n      revert\n    tag_38:\n        /* \"contracts/ItemManager.sol\":1237:1258  SupplyChainState.Paid */\n      0x01\n        /* \"contracts/ItemManager.sol\":1232:1259  uint(SupplyChainState.Paid) */\n      0x02\n      dup2\n      gt\n      iszero\n      tag_41\n      jumpi\n      tag_42\n      tag_37\n      jump\t// in\n    tag_42:\n    tag_41:\n        /* \"contracts/ItemManager.sol\":1205:1210  items */\n      0x01\n        /* \"contracts/ItemManager.sol\":1205:1222  items[_itemIndex] */\n      0x00\n        /* \"contracts/ItemManager.sol\":1211:1221  _itemIndex */\n      dup4\n        /* \"contracts/ItemManager.sol\":1205:1222  items[_itemIndex] */\n      dup2\n      mstore\n      0x20\n      add\n      swap1\n      dup2\n      mstore\n      0x20\n      add\n      0x00\n      keccak256\n        /* \"contracts/ItemManager.sol\":1205:1229  items[_itemIndex]._state */\n      0x03\n      add\n        /* \"contracts/ItemManager.sol\":1205:1259  items[_itemIndex]._state = uint(SupplyChainState.Paid) */\n      dup2\n      swap1\n      sstore\n      pop\n        /* \"contracts/ItemManager.sol\":1275:1360  SupplyChainStep(_itemIndex,items[_itemIndex]._state,address(items[_itemIndex]._item)) */\n      0xa4035636e99f06b7651a604c1019fa4e8779fe68ef27eeb74dff2de348f6199b\n        /* \"contracts/ItemManager.sol\":1291:1301  _itemIndex */\n      dup2\n        /* \"contracts/ItemManager.sol\":1302:1307  items */\n      0x01\n        /* \"contracts/ItemManager.sol\":1302:1319  items[_itemIndex] */\n      0x00\n        /* \"contracts/ItemManager.sol\":1308:1318  _itemIndex */\n      dup5\n        /* \"contracts/ItemManager.sol\":1302:1319  items[_itemIndex] */\n      dup2\n      mstore\n      0x20\n      add\n      swap1\n      dup2\n      mstore\n      0x20\n      add\n      0x00\n      keccak256\n        /* \"contracts/ItemManager.sol\":1302:1326  items[_itemIndex]._state */\n      0x03\n      add\n      sload\n        /* \"contracts/ItemManager.sol\":1335:1340  items */\n      0x01\n        /* \"contracts/ItemManager.sol\":1335:1352  items[_itemIndex] */\n      0x00\n        /* \"contracts/ItemManager.sol\":1341:1351  _itemIndex */\n      dup6\n        /* \"contracts/ItemManager.sol\":1335:1352  items[_itemIndex] */\n      dup2\n      mstore\n      0x20\n      add\n      swap1\n      dup2\n      mstore\n      0x20\n      add\n      0x00\n      keccak256\n        /* \"contracts/ItemManager.sol\":1335:1358  items[_itemIndex]._item */\n      0x00\n      add\n      0x00\n      swap1\n      sload\n      swap1\n      0x0100\n      exp\n      swap1\n      div\n      0xffffffffffffffffffffffffffffffffffffffff\n      and\n        /* \"contracts/ItemManager.sol\":1275:1360  SupplyChainStep(_itemIndex,items[_itemIndex]._state,address(items[_itemIndex]._item)) */\n      mload(0x40)\n      tag_43\n      swap4\n      swap3\n      swap2\n      swap1\n      tag_44\n      jump\t// in\n    tag_43:\n      mload(0x40)\n      dup1\n      swap2\n      sub\n      swap1\n      log1\n        /* \"contracts/ItemManager.sol\":938:1368  function triggerPayment(uint _itemIndex) public payable{\r... */\n      pop\n      jump\t// out\n        /* \"contracts/ItemManager.sol\":470:930  function createItem(string memory _identifier,uint _itemPrice) public onlyOwner{\r... */\n    tag_15:\n        /* \"contracts/Ownable.sol\":241:250  isOwner() */\n      tag_46\n        /* \"contracts/Ownable.sol\":241:248  isOwner */\n      tag_18\n        /* \"contracts/Ownable.sol\":241:250  isOwner() */\n      jump\t// in\n    tag_46:\n        /* \"contracts/Ownable.sol\":233:275  require(isOwner(),\"you are not the owner\") */\n      tag_47\n      jumpi\n      mload(0x40)\n      0x08c379a000000000000000000000000000000000000000000000000000000000\n      dup2\n      mstore\n      0x04\n      add\n      tag_48\n      swap1\n      tag_49\n      jump\t// in\n    tag_48:\n      mload(0x40)\n      dup1\n      swap2\n      sub\n      swap1\n      revert\n    tag_47:\n        /* \"contracts/ItemManager.sol\":560:569  Item item */\n      0x00\n        /* \"contracts/ItemManager.sol\":581:585  this */\n      address\n        /* \"contracts/ItemManager.sol\":586:596  _itemPrice */\n      dup3\n        /* \"contracts/ItemManager.sol\":597:606  itemIndex */\n      sload(0x02)\n        /* \"contracts/ItemManager.sol\":572:607  new Item(this,_itemPrice,itemIndex) */\n      mload(0x40)\n      tag_51\n      swap1\n      tag_52\n      jump\t// in\n    tag_51:\n      tag_53\n      swap4\n      swap3\n      swap2\n      swap1\n      tag_54\n      jump\t// in\n    tag_53:\n      mload(0x40)\n      dup1\n      swap2\n      sub\n      swap1\n      0x00\n      create\n      dup1\n      iszero\n      dup1\n      iszero\n      tag_55\n      jumpi\n      returndatasize\n      0x00\n      dup1\n      returndatacopy\n      revert(0x00, returndatasize)\n    tag_55:\n      pop\n        /* \"contracts/ItemManager.sol\":560:607  Item item = new Item(this,_itemPrice,itemIndex) */\n      swap1\n      pop\n        /* \"contracts/ItemManager.sol\":643:647  item */\n      dup1\n        /* \"contracts/ItemManager.sol\":618:623  items */\n      0x01\n        /* \"contracts/ItemManager.sol\":618:634  items[itemIndex] */\n      0x00\n        /* \"contracts/ItemManager.sol\":624:633  itemIndex */\n      sload(0x02)\n        /* \"contracts/ItemManager.sol\":618:634  items[itemIndex] */\n      dup2\n      mstore\n      0x20\n      add\n      swap1\n      dup2\n      mstore\n      0x20\n      add\n      0x00\n      keccak256\n        /* \"contracts/ItemManager.sol\":618:640  items[itemIndex]._item */\n      0x00\n      add\n      0x00\n        /* \"contracts/ItemManager.sol\":618:647  items[itemIndex]._item = item */\n      0x0100\n      exp\n      dup2\n      sload\n      dup2\n      0xffffffffffffffffffffffffffffffffffffffff\n      mul\n      not\n      and\n      swap1\n      dup4\n      0xffffffffffffffffffffffffffffffffffffffff\n      and\n      mul\n      or\n      swap1\n      sstore\n      pop\n        /* \"contracts/ItemManager.sol\":689:700  _identifier */\n      dup3\n        /* \"contracts/ItemManager.sol\":658:663  items */\n      0x01\n        /* \"contracts/ItemManager.sol\":658:674  items[itemIndex] */\n      0x00\n        /* \"contracts/ItemManager.sol\":664:673  itemIndex */\n      sload(0x02)\n        /* \"contracts/ItemManager.sol\":658:674  items[itemIndex] */\n      dup2\n      mstore\n      0x20\n      add\n      swap1\n      dup2\n      mstore\n      0x20\n      add\n      0x00\n      keccak256\n        /* \"contracts/ItemManager.sol\":658:686  items[itemIndex]._identifier */\n      0x01\n      add\n        /* \"contracts/ItemManager.sol\":658:700  items[itemIndex]._identifier = _identifier */\n      swap1\n      dup1\n      mload\n      swap1\n      0x20\n      add\n      swap1\n      tag_56\n      swap3\n      swap2\n      swap1\n      tag_57\n      jump\t// in\n    tag_56:\n      pop\n        /* \"contracts/ItemManager.sol\":741:751  _itemPrice */\n      dup2\n        /* \"contracts/ItemManager.sol\":711:716  items */\n      0x01\n        /* \"contracts/ItemManager.sol\":711:727  items[itemIndex] */\n      0x00\n        /* \"contracts/ItemManager.sol\":717:726  itemIndex */\n      sload(0x02)\n        /* \"contracts/ItemManager.sol\":711:727  items[itemIndex] */\n      dup2\n      mstore\n      0x20\n      add\n      swap1\n      dup2\n      mstore\n      0x20\n      add\n      0x00\n      keccak256\n        /* \"contracts/ItemManager.sol\":711:738  items[itemIndex]._itemPrice */\n      0x02\n      add\n        /* \"contracts/ItemManager.sol\":711:751  items[itemIndex]._itemPrice = _itemPrice */\n      dup2\n      swap1\n      sstore\n      pop\n        /* \"contracts/ItemManager.sol\":793:817  SupplyChainState.Created */\n      0x00\n        /* \"contracts/ItemManager.sol\":788:818  uint(SupplyChainState.Created) */\n      0x02\n      dup2\n      gt\n      iszero\n      tag_58\n      jumpi\n      tag_59\n      tag_37\n      jump\t// in\n    tag_59:\n    tag_58:\n        /* \"contracts/ItemManager.sol\":762:767  items */\n      0x01\n        /* \"contracts/ItemManager.sol\":762:778  items[itemIndex] */\n      0x00\n        /* \"contracts/ItemManager.sol\":768:777  itemIndex */\n      sload(0x02)\n        /* \"contracts/ItemManager.sol\":762:778  items[itemIndex] */\n      dup2\n      mstore\n      0x20\n      add\n      swap1\n      dup2\n      mstore\n      0x20\n      add\n      0x00\n      keccak256\n        /* \"contracts/ItemManager.sol\":762:785  items[itemIndex]._state */\n      0x03\n      add\n        /* \"contracts/ItemManager.sol\":762:818  items[itemIndex]._state = uint(SupplyChainState.Created) */\n      dup2\n      swap1\n      sstore\n      pop\n        /* \"contracts/ItemManager.sol\":834:898  SupplyChainStep(itemIndex,items[itemIndex]._state,address(item)) */\n      0xa4035636e99f06b7651a604c1019fa4e8779fe68ef27eeb74dff2de348f6199b\n        /* \"contracts/ItemManager.sol\":850:859  itemIndex */\n      sload(0x02)\n        /* \"contracts/ItemManager.sol\":860:865  items */\n      0x01\n        /* \"contracts/ItemManager.sol\":860:876  items[itemIndex] */\n      0x00\n        /* \"contracts/ItemManager.sol\":866:875  itemIndex */\n      sload(0x02)\n        /* \"contracts/ItemManager.sol\":860:876  items[itemIndex] */\n      dup2\n      mstore\n      0x20\n      add\n      swap1\n      dup2\n      mstore\n      0x20\n      add\n      0x00\n      keccak256\n        /* \"contracts/ItemManager.sol\":860:883  items[itemIndex]._state */\n      0x03\n      add\n      sload\n        /* \"contracts/ItemManager.sol\":892:896  item */\n      dup4\n        /* \"contracts/ItemManager.sol\":834:898  SupplyChainStep(itemIndex,items[itemIndex]._state,address(item)) */\n      mload(0x40)\n      tag_60\n      swap4\n      swap3\n      swap2\n      swap1\n      tag_44\n      jump\t// in\n    tag_60:\n      mload(0x40)\n      dup1\n      swap2\n      sub\n      swap1\n      log1\n        /* \"contracts/ItemManager.sol\":909:918  itemIndex */\n      0x02\n      0x00\n        /* \"contracts/ItemManager.sol\":909:920  itemIndex++ */\n      dup2\n      sload\n      dup1\n      swap3\n      swap2\n      swap1\n      tag_61\n      swap1\n      tag_62\n      jump\t// in\n    tag_61:\n      swap2\n      swap1\n      pop\n      sstore\n      pop\n        /* \"contracts/ItemManager.sol\":549:930  {\r... */\n      pop\n        /* \"contracts/ItemManager.sol\":470:930  function createItem(string memory _identifier,uint _itemPrice) public onlyOwner{\r... */\n      pop\n      pop\n      jump\t// out\n        /* \"contracts/Ownable.sol\":301:392  function isOwner() public view returns(bool){\r... */\n    tag_18:\n        /* \"contracts/Ownable.sol\":340:344  bool */\n      0x00\n        /* \"contracts/Ownable.sol\":373:383  msg.sender */\n      caller\n        /* \"contracts/Ownable.sol\":364:383  Owner == msg.sender */\n      0xffffffffffffffffffffffffffffffffffffffff\n      and\n        /* \"contracts/Ownable.sol\":364:369  Owner */\n      0x00\n      dup1\n      sload\n      swap1\n      0x0100\n      exp\n      swap1\n      div\n      0xffffffffffffffffffffffffffffffffffffffff\n      and\n        /* \"contracts/Ownable.sol\":364:383  Owner == msg.sender */\n      0xffffffffffffffffffffffffffffffffffffffff\n      and\n      eq\n        /* \"contracts/Ownable.sol\":356:384  return (Owner == msg.sender) */\n      swap1\n      pop\n        /* \"contracts/Ownable.sol\":301:392  function isOwner() public view returns(bool){\r... */\n      swap1\n      jump\t// out\n        /* \"contracts/ItemManager.sol\":328:364  mapping(uint => S_Item) public items */\n    tag_24:\n      mstore(0x20, 0x01)\n      dup1\n      0x00\n      mstore\n      keccak256(0x00, 0x40)\n      0x00\n      swap2\n      pop\n      swap1\n      pop\n      dup1\n      0x00\n      add\n      0x00\n      swap1\n      sload\n      swap1\n      0x0100\n      exp\n      swap1\n      div\n      0xffffffffffffffffffffffffffffffffffffffff\n      and\n      swap1\n      dup1\n      0x01\n      add\n      dup1\n      sload\n      tag_64\n      swap1\n      tag_65\n      jump\t// in\n    tag_64:\n      dup1\n      0x1f\n      add\n      0x20\n      dup1\n      swap2\n      div\n      mul\n      0x20\n      add\n      mload(0x40)\n      swap1\n      dup2\n      add\n      0x40\n      mstore\n      dup1\n      swap3\n      swap2\n      swap1\n      dup2\n      dup2\n      mstore\n      0x20\n      add\n      dup3\n      dup1\n      sload\n      tag_66\n      swap1\n      tag_65\n      jump\t// in\n    tag_66:\n      dup1\n      iszero\n      tag_67\n      jumpi\n      dup1\n      0x1f\n      lt\n      tag_68\n      jumpi\n      0x0100\n      dup1\n      dup4\n      sload\n      div\n      mul\n      dup4\n      mstore\n      swap2\n      0x20\n      add\n      swap2\n      jump(tag_67)\n    tag_68:\n      dup3\n      add\n      swap2\n      swap1\n      0x00\n      mstore\n      keccak256(0x00, 0x20)\n      swap1\n    tag_69:\n      dup2\n      sload\n      dup2\n      mstore\n      swap1\n      0x01\n      add\n      swap1\n      0x20\n      add\n      dup1\n      dup4\n      gt\n      tag_69\n      jumpi\n      dup3\n      swap1\n      sub\n      0x1f\n      and\n      dup3\n      add\n      swap2\n    tag_67:\n      pop\n      pop\n      pop\n      pop\n      pop\n      swap1\n      dup1\n      0x02\n      add\n      sload\n      swap1\n      dup1\n      0x03\n      add\n      sload\n      swap1\n      pop\n      dup5\n      jump\t// out\n        /* \"contracts/ItemManager.sol\":1376:1720  function triggerDelivery(uint _itemIndex) public onlyOwner{\r... */\n    tag_30:\n        /* \"contracts/Ownable.sol\":241:250  isOwner() */\n      tag_71\n        /* \"contracts/Ownable.sol\":241:248  isOwner */\n      tag_18\n        /* \"contracts/Ownable.sol\":241:250  isOwner() */\n      jump\t// in\n    tag_71:\n        /* \"contracts/Ownable.sol\":233:275  require(isOwner(),\"you are not the owner\") */\n      tag_72\n      jumpi\n      mload(0x40)\n      0x08c379a000000000000000000000000000000000000000000000000000000000\n      dup2\n      mstore\n      0x04\n      add\n      tag_73\n      swap1\n      tag_49\n      jump\t// in\n    tag_73:\n      mload(0x40)\n      dup1\n      swap2\n      sub\n      swap1\n      revert\n    tag_72:\n        /* \"contracts/ItemManager.sol\":1486:1507  SupplyChainState.Paid */\n      0x01\n        /* \"contracts/ItemManager.sol\":1481:1508  uint(SupplyChainState.Paid) */\n      0x02\n      dup2\n      gt\n      iszero\n      tag_75\n      jumpi\n      tag_76\n      tag_37\n      jump\t// in\n    tag_76:\n    tag_75:\n        /* \"contracts/ItemManager.sol\":1453:1458  items */\n      0x01\n        /* \"contracts/ItemManager.sol\":1453:1470  items[_itemIndex] */\n      0x00\n        /* \"contracts/ItemManager.sol\":1459:1469  _itemIndex */\n      dup4\n        /* \"contracts/ItemManager.sol\":1453:1470  items[_itemIndex] */\n      dup2\n      mstore\n      0x20\n      add\n      swap1\n      dup2\n      mstore\n      0x20\n      add\n      0x00\n      keccak256\n        /* \"contracts/ItemManager.sol\":1453:1477  items[_itemIndex]._state */\n      0x03\n      add\n      sload\n        /* \"contracts/ItemManager.sol\":1453:1508  items[_itemIndex]._state == uint(SupplyChainState.Paid) */\n      eq\n        /* \"contracts/ItemManager.sol\":1445:1541  require(items[_itemIndex]._state == uint(SupplyChainState.Paid), \"Item is further in the chain\") */\n      tag_77\n      jumpi\n      mload(0x40)\n      0x08c379a000000000000000000000000000000000000000000000000000000000\n      dup2\n      mstore\n      0x04\n      add\n      tag_78\n      swap1\n      tag_40\n      jump\t// in\n    tag_78:\n      mload(0x40)\n      dup1\n      swap2\n      sub\n      swap1\n      revert\n    tag_77:\n        /* \"contracts/ItemManager.sol\":1584:1610  SupplyChainState.Deleiverd */\n      0x02\n        /* \"contracts/ItemManager.sol\":1579:1611  uint(SupplyChainState.Deleiverd) */\n      dup1\n      dup2\n      gt\n      iszero\n      tag_79\n      jumpi\n      tag_80\n      tag_37\n      jump\t// in\n    tag_80:\n    tag_79:\n        /* \"contracts/ItemManager.sol\":1552:1557  items */\n      0x01\n        /* \"contracts/ItemManager.sol\":1552:1569  items[_itemIndex] */\n      0x00\n        /* \"contracts/ItemManager.sol\":1558:1568  _itemIndex */\n      dup4\n        /* \"contracts/ItemManager.sol\":1552:1569  items[_itemIndex] */\n      dup2\n      mstore\n      0x20\n      add\n      swap1\n      dup2\n      mstore\n      0x20\n      add\n      0x00\n      keccak256\n        /* \"contracts/ItemManager.sol\":1552:1576  items[_itemIndex]._state */\n      0x03\n      add\n        /* \"contracts/ItemManager.sol\":1552:1611  items[_itemIndex]._state = uint(SupplyChainState.Deleiverd) */\n      dup2\n      swap1\n      sstore\n      pop\n        /* \"contracts/ItemManager.sol\":1627:1712  SupplyChainStep(_itemIndex,items[_itemIndex]._state,address(items[_itemIndex]._item)) */\n      0xa4035636e99f06b7651a604c1019fa4e8779fe68ef27eeb74dff2de348f6199b\n        /* \"contracts/ItemManager.sol\":1643:1653  _itemIndex */\n      dup2\n        /* \"contracts/ItemManager.sol\":1654:1659  items */\n      0x01\n        /* \"contracts/ItemManager.sol\":1654:1671  items[_itemIndex] */\n      0x00\n        /* \"contracts/ItemManager.sol\":1660:1670  _itemIndex */\n      dup5\n        /* \"contracts/ItemManager.sol\":1654:1671  items[_itemIndex] */\n      dup2\n      mstore\n      0x20\n      add\n      swap1\n      dup2\n      mstore\n      0x20\n      add\n      0x00\n      keccak256\n        /* \"contracts/ItemManager.sol\":1654:1678  items[_itemIndex]._state */\n      0x03\n      add\n      sload\n        /* \"contracts/ItemManager.sol\":1687:1692  items */\n      0x01\n        /* \"contracts/ItemManager.sol\":1687:1704  items[_itemIndex] */\n      0x00\n        /* \"contracts/ItemManager.sol\":1693:1703  _itemIndex */\n      dup6\n        /* \"contracts/ItemManager.sol\":1687:1704  items[_itemIndex] */\n      dup2\n      mstore\n      0x20\n      add\n      swap1\n      dup2\n      mstore\n      0x20\n      add\n      0x00\n      keccak256\n        /* \"contracts/ItemManager.sol\":1687:1710  items[_itemIndex]._item */\n      0x00\n      add\n      0x00\n      swap1\n      sload\n      swap1\n      0x0100\n      exp\n      swap1\n      div\n      0xffffffffffffffffffffffffffffffffffffffff\n      and\n        /* \"contracts/ItemManager.sol\":1627:1712  SupplyChainStep(_itemIndex,items[_itemIndex]._state,address(items[_itemIndex]._item)) */\n      mload(0x40)\n      tag_81\n      swap4\n      swap3\n      swap2\n      swap1\n      tag_44\n      jump\t// in\n    tag_81:\n      mload(0x40)\n      dup1\n      swap2\n      sub\n      swap1\n      log1\n        /* \"contracts/ItemManager.sol\":1376:1720  function triggerDelivery(uint _itemIndex) public onlyOwner{\r... */\n      pop\n      jump\t// out\n    tag_52:\n      dataSize(sub_0)\n      dup1\n      dataOffset(sub_0)\n      dup4\n      codecopy\n      add\n      swap1\n      jump\t// out\n    tag_57:\n      dup3\n      dup1\n      sload\n      tag_82\n      swap1\n      tag_65\n      jump\t// in\n    tag_82:\n      swap1\n      0x00\n      mstore\n      keccak256(0x00, 0x20)\n      swap1\n      0x1f\n      add\n      0x20\n      swap1\n      div\n      dup2\n      add\n      swap3\n      dup3\n      tag_84\n      jumpi\n      0x00\n      dup6\n      sstore\n      jump(tag_83)\n    tag_84:\n      dup3\n      0x1f\n      lt\n      tag_85\n      jumpi\n      dup1\n      mload\n      not(0xff)\n      and\n      dup4\n      dup1\n      add\n      or\n      dup6\n      sstore\n      jump(tag_83)\n    tag_85:\n      dup3\n      dup1\n      add\n      0x01\n      add\n      dup6\n      sstore\n      dup3\n      iszero\n      tag_83\n      jumpi\n      swap2\n      dup3\n      add\n    tag_86:\n      dup3\n      dup2\n      gt\n      iszero\n      tag_87\n      jumpi\n      dup3\n      mload\n      dup3\n      sstore\n      swap2\n      0x20\n      add\n      swap2\n      swap1\n      0x01\n      add\n      swap1\n      jump(tag_86)\n    tag_87:\n    tag_83:\n      pop\n      swap1\n      pop\n      tag_88\n      swap2\n      swap1\n      tag_89\n      jump\t// in\n    tag_88:\n      pop\n      swap1\n      jump\t// out\n    tag_89:\n    tag_90:\n      dup1\n      dup3\n      gt\n      iszero\n      tag_91\n      jumpi\n      0x00\n      dup2\n      0x00\n      swap1\n      sstore\n      pop\n      0x01\n      add\n      jump(tag_90)\n    tag_91:\n      pop\n      swap1\n      jump\t// out\n        /* \"#utility.yul\":7:419   */\n    tag_93:\n        /* \"#utility.yul\":85:90   */\n      0x00\n        /* \"#utility.yul\":110:176   */\n      tag_95\n        /* \"#utility.yul\":126:175   */\n      tag_96\n        /* \"#utility.yul\":168:174   */\n      dup5\n        /* \"#utility.yul\":126:175   */\n      tag_97\n      jump\t// in\n    tag_96:\n        /* \"#utility.yul\":110:176   */\n      tag_98\n      jump\t// in\n    tag_95:\n        /* \"#utility.yul\":101:176   */\n      swap1\n      pop\n        /* \"#utility.yul\":199:205   */\n      dup3\n        /* \"#utility.yul\":192:197   */\n      dup2\n        /* \"#utility.yul\":185:206   */\n      mstore\n        /* \"#utility.yul\":237:241   */\n      0x20\n        /* \"#utility.yul\":230:235   */\n      dup2\n        /* \"#utility.yul\":226:242   */\n      add\n        /* \"#utility.yul\":275:278   */\n      dup5\n        /* \"#utility.yul\":266:272   */\n      dup5\n        /* \"#utility.yul\":261:264   */\n      dup5\n        /* \"#utility.yul\":257:273   */\n      add\n        /* \"#utility.yul\":254:279   */\n      gt\n        /* \"#utility.yul\":251:363   */\n      iszero\n      tag_99\n      jumpi\n        /* \"#utility.yul\":282:361   */\n      tag_100\n      tag_101\n      jump\t// in\n    tag_100:\n        /* \"#utility.yul\":251:363   */\n    tag_99:\n        /* \"#utility.yul\":372:413   */\n      tag_102\n        /* \"#utility.yul\":406:412   */\n      dup5\n        /* \"#utility.yul\":401:404   */\n      dup3\n        /* \"#utility.yul\":396:399   */\n      dup6\n        /* \"#utility.yul\":372:413   */\n      tag_103\n      jump\t// in\n    tag_102:\n        /* \"#utility.yul\":91:419   */\n      pop\n        /* \"#utility.yul\":7:419   */\n      swap4\n      swap3\n      pop\n      pop\n      pop\n      jump\t// out\n        /* \"#utility.yul\":439:779   */\n    tag_104:\n        /* \"#utility.yul\":495:500   */\n      0x00\n        /* \"#utility.yul\":544:547   */\n      dup3\n        /* \"#utility.yul\":537:541   */\n      0x1f\n        /* \"#utility.yul\":529:535   */\n      dup4\n        /* \"#utility.yul\":525:542   */\n      add\n        /* \"#utility.yul\":521:548   */\n      slt\n        /* \"#utility.yul\":511:633   */\n      tag_106\n      jumpi\n        /* \"#utility.yul\":552:631   */\n      tag_107\n      tag_108\n      jump\t// in\n    tag_107:\n        /* \"#utility.yul\":511:633   */\n    tag_106:\n        /* \"#utility.yul\":669:675   */\n      dup2\n        /* \"#utility.yul\":656:676   */\n      calldataload\n        /* \"#utility.yul\":694:773   */\n      tag_109\n        /* \"#utility.yul\":769:772   */\n      dup5\n        /* \"#utility.yul\":761:767   */\n      dup3\n        /* \"#utility.yul\":754:758   */\n      0x20\n        /* \"#utility.yul\":746:752   */\n      dup7\n        /* \"#utility.yul\":742:759   */\n      add\n        /* \"#utility.yul\":694:773   */\n      tag_93\n      jump\t// in\n    tag_109:\n        /* \"#utility.yul\":685:773   */\n      swap2\n      pop\n        /* \"#utility.yul\":501:779   */\n      pop\n        /* \"#utility.yul\":439:779   */\n      swap3\n      swap2\n      pop\n      pop\n      jump\t// out\n        /* \"#utility.yul\":785:924   */\n    tag_110:\n        /* \"#utility.yul\":831:836   */\n      0x00\n        /* \"#utility.yul\":869:875   */\n      dup2\n        /* \"#utility.yul\":856:876   */\n      calldataload\n        /* \"#utility.yul\":847:876   */\n      swap1\n      pop\n        /* \"#utility.yul\":885:918   */\n      tag_112\n        /* \"#utility.yul\":912:917   */\n      dup2\n        /* \"#utility.yul\":885:918   */\n      tag_113\n      jump\t// in\n    tag_112:\n        /* \"#utility.yul\":785:924   */\n      swap3\n      swap2\n      pop\n      pop\n      jump\t// out\n        /* \"#utility.yul\":930:1584   */\n    tag_14:\n        /* \"#utility.yul\":1008:1014   */\n      0x00\n        /* \"#utility.yul\":1016:1022   */\n      dup1\n        /* \"#utility.yul\":1065:1067   */\n      0x40\n        /* \"#utility.yul\":1053:1062   */\n      dup4\n        /* \"#utility.yul\":1044:1051   */\n      dup6\n        /* \"#utility.yul\":1040:1063   */\n      sub\n        /* \"#utility.yul\":1036:1068   */\n      slt\n        /* \"#utility.yul\":1033:1152   */\n      iszero\n      tag_115\n      jumpi\n        /* \"#utility.yul\":1071:1150   */\n      tag_116\n      tag_117\n      jump\t// in\n    tag_116:\n        /* \"#utility.yul\":1033:1152   */\n    tag_115:\n        /* \"#utility.yul\":1219:1220   */\n      0x00\n        /* \"#utility.yul\":1208:1217   */\n      dup4\n        /* \"#utility.yul\":1204:1221   */\n      add\n        /* \"#utility.yul\":1191:1222   */\n      calldataload\n        /* \"#utility.yul\":1249:1267   */\n      0xffffffffffffffff\n        /* \"#utility.yul\":1241:1247   */\n      dup2\n        /* \"#utility.yul\":1238:1268   */\n      gt\n        /* \"#utility.yul\":1235:1352   */\n      iszero\n      tag_118\n      jumpi\n        /* \"#utility.yul\":1271:1350   */\n      tag_119\n      tag_120\n      jump\t// in\n    tag_119:\n        /* \"#utility.yul\":1235:1352   */\n    tag_118:\n        /* \"#utility.yul\":1376:1439   */\n      tag_121\n        /* \"#utility.yul\":1431:1438   */\n      dup6\n        /* \"#utility.yul\":1422:1428   */\n      dup3\n        /* \"#utility.yul\":1411:1420   */\n      dup7\n        /* \"#utility.yul\":1407:1429   */\n      add\n        /* \"#utility.yul\":1376:1439   */\n      tag_104\n      jump\t// in\n    tag_121:\n        /* \"#utility.yul\":1366:1439   */\n      swap3\n      pop\n        /* \"#utility.yul\":1162:1449   */\n      pop\n        /* \"#utility.yul\":1488:1490   */\n      0x20\n        /* \"#utility.yul\":1514:1567   */\n      tag_122\n        /* \"#utility.yul\":1559:1566   */\n      dup6\n        /* \"#utility.yul\":1550:1556   */\n      dup3\n        /* \"#utility.yul\":1539:1548   */\n      dup7\n        /* \"#utility.yul\":1535:1557   */\n      add\n        /* \"#utility.yul\":1514:1567   */\n      tag_110\n      jump\t// in\n    tag_122:\n        /* \"#utility.yul\":1504:1567   */\n      swap2\n      pop\n        /* \"#utility.yul\":1459:1577   */\n      pop\n        /* \"#utility.yul\":930:1584   */\n      swap3\n      pop\n      swap3\n      swap1\n      pop\n      jump\t// out\n        /* \"#utility.yul\":1590:1919   */\n    tag_9:\n        /* \"#utility.yul\":1649:1655   */\n      0x00\n        /* \"#utility.yul\":1698:1700   */\n      0x20\n        /* \"#utility.yul\":1686:1695   */\n      dup3\n        /* \"#utility.yul\":1677:1684   */\n      dup5\n        /* \"#utility.yul\":1673:1696   */\n      sub\n        /* \"#utility.yul\":1669:1701   */\n      slt\n        /* \"#utility.yul\":1666:1785   */\n      iszero\n      tag_124\n      jumpi\n        /* \"#utility.yul\":1704:1783   */\n      tag_125\n      tag_117\n      jump\t// in\n    tag_125:\n        /* \"#utility.yul\":1666:1785   */\n    tag_124:\n        /* \"#utility.yul\":1824:1825   */\n      0x00\n        /* \"#utility.yul\":1849:1902   */\n      tag_126\n        /* \"#utility.yul\":1894:1901   */\n      dup5\n        /* \"#utility.yul\":1885:1891   */\n      dup3\n        /* \"#utility.yul\":1874:1883   */\n      dup6\n        /* \"#utility.yul\":1870:1892   */\n      add\n        /* \"#utility.yul\":1849:1902   */\n      tag_110\n      jump\t// in\n    tag_126:\n        /* \"#utility.yul\":1839:1902   */\n      swap2\n      pop\n        /* \"#utility.yul\":1795:1912   */\n      pop\n        /* \"#utility.yul\":1590:1919   */\n      swap3\n      swap2\n      pop\n      pop\n      jump\t// out\n        /* \"#utility.yul\":1925:2043   */\n    tag_127:\n        /* \"#utility.yul\":2012:2036   */\n      tag_129\n        /* \"#utility.yul\":2030:2035   */\n      dup2\n        /* \"#utility.yul\":2012:2036   */\n      tag_130\n      jump\t// in\n    tag_129:\n        /* \"#utility.yul\":2007:2010   */\n      dup3\n        /* \"#utility.yul\":2000:2037   */\n      mstore\n        /* \"#utility.yul\":1925:2043   */\n      pop\n      pop\n      jump\t// out\n        /* \"#utility.yul\":2049:2158   */\n    tag_131:\n        /* \"#utility.yul\":2130:2151   */\n      tag_133\n        /* \"#utility.yul\":2145:2150   */\n      dup2\n        /* \"#utility.yul\":2130:2151   */\n      tag_134\n      jump\t// in\n    tag_133:\n        /* \"#utility.yul\":2125:2128   */\n      dup3\n        /* \"#utility.yul\":2118:2152   */\n      mstore\n        /* \"#utility.yul\":2049:2158   */\n      pop\n      pop\n      jump\t// out\n        /* \"#utility.yul\":2164:2333   */\n    tag_135:\n        /* \"#utility.yul\":2270:2326   */\n      tag_137\n        /* \"#utility.yul\":2320:2325   */\n      dup2\n        /* \"#utility.yul\":2270:2326   */\n      tag_138\n      jump\t// in\n    tag_137:\n        /* \"#utility.yul\":2265:2268   */\n      dup3\n        /* \"#utility.yul\":2258:2327   */\n      mstore\n        /* \"#utility.yul\":2164:2333   */\n      pop\n      pop\n      jump\t// out\n        /* \"#utility.yul\":2339:2508   */\n    tag_139:\n        /* \"#utility.yul\":2445:2501   */\n      tag_141\n        /* \"#utility.yul\":2495:2500   */\n      dup2\n        /* \"#utility.yul\":2445:2501   */\n      tag_142\n      jump\t// in\n    tag_141:\n        /* \"#utility.yul\":2440:2443   */\n      dup3\n        /* \"#utility.yul\":2433:2502   */\n      mstore\n        /* \"#utility.yul\":2339:2508   */\n      pop\n      pop\n      jump\t// out\n        /* \"#utility.yul\":2514:2878   */\n    tag_143:\n        /* \"#utility.yul\":2602:2605   */\n      0x00\n        /* \"#utility.yul\":2630:2669   */\n      tag_145\n        /* \"#utility.yul\":2663:2668   */\n      dup3\n        /* \"#utility.yul\":2630:2669   */\n      tag_146\n      jump\t// in\n    tag_145:\n        /* \"#utility.yul\":2685:2756   */\n      tag_147\n        /* \"#utility.yul\":2749:2755   */\n      dup2\n        /* \"#utility.yul\":2744:2747   */\n      dup6\n        /* \"#utility.yul\":2685:2756   */\n      tag_148\n      jump\t// in\n    tag_147:\n        /* \"#utility.yul\":2678:2756   */\n      swap4\n      pop\n        /* \"#utility.yul\":2765:2817   */\n      tag_149\n        /* \"#utility.yul\":2810:2816   */\n      dup2\n        /* \"#utility.yul\":2805:2808   */\n      dup6\n        /* \"#utility.yul\":2798:2802   */\n      0x20\n        /* \"#utility.yul\":2791:2796   */\n      dup7\n        /* \"#utility.yul\":2787:2803   */\n      add\n        /* \"#utility.yul\":2765:2817   */\n      tag_150\n      jump\t// in\n    tag_149:\n        /* \"#utility.yul\":2842:2871   */\n      tag_151\n        /* \"#utility.yul\":2864:2870   */\n      dup2\n        /* \"#utility.yul\":2842:2871   */\n      tag_152\n      jump\t// in\n    tag_151:\n        /* \"#utility.yul\":2837:2840   */\n      dup5\n        /* \"#utility.yul\":2833:2872   */\n      add\n        /* \"#utility.yul\":2826:2872   */\n      swap2\n      pop\n        /* \"#utility.yul\":2606:2878   */\n      pop\n        /* \"#utility.yul\":2514:2878   */\n      swap3\n      swap2\n      pop\n      pop\n      jump\t// out\n        /* \"#utility.yul\":2884:3250   */\n    tag_153:\n        /* \"#utility.yul\":3026:3029   */\n      0x00\n        /* \"#utility.yul\":3047:3114   */\n      tag_155\n        /* \"#utility.yul\":3111:3113   */\n      0x1c\n        /* \"#utility.yul\":3106:3109   */\n      dup4\n        /* \"#utility.yul\":3047:3114   */\n      tag_148\n      jump\t// in\n    tag_155:\n        /* \"#utility.yul\":3040:3114   */\n      swap2\n      pop\n        /* \"#utility.yul\":3123:3216   */\n      tag_156\n        /* \"#utility.yul\":3212:3215   */\n      dup3\n        /* \"#utility.yul\":3123:3216   */\n      tag_157\n      jump\t// in\n    tag_156:\n        /* \"#utility.yul\":3241:3243   */\n      0x20\n        /* \"#utility.yul\":3236:3239   */\n      dup3\n        /* \"#utility.yul\":3232:3244   */\n      add\n        /* \"#utility.yul\":3225:3244   */\n      swap1\n      pop\n        /* \"#utility.yul\":2884:3250   */\n      swap2\n      swap1\n      pop\n      jump\t// out\n        /* \"#utility.yul\":3256:3622   */\n    tag_158:\n        /* \"#utility.yul\":3398:3401   */\n      0x00\n        /* \"#utility.yul\":3419:3486   */\n      tag_160\n        /* \"#utility.yul\":3483:3485   */\n      0x1b\n        /* \"#utility.yul\":3478:3481   */\n      dup4\n        /* \"#utility.yul\":3419:3486   */\n      tag_148\n      jump\t// in\n    tag_160:\n        /* \"#utility.yul\":3412:3486   */\n      swap2\n      pop\n        /* \"#utility.yul\":3495:3588   */\n      tag_161\n        /* \"#utility.yul\":3584:3587   */\n      dup3\n        /* \"#utility.yul\":3495:3588   */\n      tag_162\n      jump\t// in\n    tag_161:\n        /* \"#utility.yul\":3613:3615   */\n      0x20\n        /* \"#utility.yul\":3608:3611   */\n      dup3\n        /* \"#utility.yul\":3604:3616   */\n      add\n        /* \"#utility.yul\":3597:3616   */\n      swap1\n      pop\n        /* \"#utility.yul\":3256:3622   */\n      swap2\n      swap1\n      pop\n      jump\t// out\n        /* \"#utility.yul\":3628:3994   */\n    tag_163:\n        /* \"#utility.yul\":3770:3773   */\n      0x00\n        /* \"#utility.yul\":3791:3858   */\n      tag_165\n        /* \"#utility.yul\":3855:3857   */\n      0x15\n        /* \"#utility.yul\":3850:3853   */\n      dup4\n        /* \"#utility.yul\":3791:3858   */\n      tag_148\n      jump\t// in\n    tag_165:\n        /* \"#utility.yul\":3784:3858   */\n      swap2\n      pop\n        /* \"#utility.yul\":3867:3960   */\n      tag_166\n        /* \"#utility.yul\":3956:3959   */\n      dup3\n        /* \"#utility.yul\":3867:3960   */\n      tag_167\n      jump\t// in\n    tag_166:\n        /* \"#utility.yul\":3985:3987   */\n      0x20\n        /* \"#utility.yul\":3980:3983   */\n      dup3\n        /* \"#utility.yul\":3976:3988   */\n      add\n        /* \"#utility.yul\":3969:3988   */\n      swap1\n      pop\n        /* \"#utility.yul\":3628:3994   */\n      swap2\n      swap1\n      pop\n      jump\t// out\n        /* \"#utility.yul\":4000:4118   */\n    tag_168:\n        /* \"#utility.yul\":4087:4111   */\n      tag_170\n        /* \"#utility.yul\":4105:4110   */\n      dup2\n        /* \"#utility.yul\":4087:4111   */\n      tag_171\n      jump\t// in\n    tag_170:\n        /* \"#utility.yul\":4082:4085   */\n      dup3\n        /* \"#utility.yul\":4075:4112   */\n      mstore\n        /* \"#utility.yul\":4000:4118   */\n      pop\n      pop\n      jump\t// out\n        /* \"#utility.yul\":4124:4334   */\n    tag_20:\n        /* \"#utility.yul\":4211:4215   */\n      0x00\n        /* \"#utility.yul\":4249:4251   */\n      0x20\n        /* \"#utility.yul\":4238:4247   */\n      dup3\n        /* \"#utility.yul\":4234:4252   */\n      add\n        /* \"#utility.yul\":4226:4252   */\n      swap1\n      pop\n        /* \"#utility.yul\":4262:4327   */\n      tag_173\n        /* \"#utility.yul\":4324:4325   */\n      0x00\n        /* \"#utility.yul\":4313:4322   */\n      dup4\n        /* \"#utility.yul\":4309:4326   */\n      add\n        /* \"#utility.yul\":4300:4306   */\n      dup5\n        /* \"#utility.yul\":4262:4327   */\n      tag_131\n      jump\t// in\n    tag_173:\n        /* \"#utility.yul\":4124:4334   */\n      swap3\n      swap2\n      pop\n      pop\n      jump\t// out\n        /* \"#utility.yul\":4340:4820   */\n    tag_54:\n        /* \"#utility.yul\":4508:4512   */\n      0x00\n        /* \"#utility.yul\":4546:4548   */\n      0x60\n        /* \"#utility.yul\":4535:4544   */\n      dup3\n        /* \"#utility.yul\":4531:4549   */\n      add\n        /* \"#utility.yul\":4523:4549   */\n      swap1\n      pop\n        /* \"#utility.yul\":4559:4649   */\n      tag_175\n        /* \"#utility.yul\":4646:4647   */\n      0x00\n        /* \"#utility.yul\":4635:4644   */\n      dup4\n        /* \"#utility.yul\":4631:4648   */\n      add\n        /* \"#utility.yul\":4622:4628   */\n      dup7\n        /* \"#utility.yul\":4559:4649   */\n      tag_135\n      jump\t// in\n    tag_175:\n        /* \"#utility.yul\":4659:4731   */\n      tag_176\n        /* \"#utility.yul\":4727:4729   */\n      0x20\n        /* \"#utility.yul\":4716:4725   */\n      dup4\n        /* \"#utility.yul\":4712:4730   */\n      add\n        /* \"#utility.yul\":4703:4709   */\n      dup6\n        /* \"#utility.yul\":4659:4731   */\n      tag_168\n      jump\t// in\n    tag_176:\n        /* \"#utility.yul\":4741:4813   */\n      tag_177\n        /* \"#utility.yul\":4809:4811   */\n      0x40\n        /* \"#utility.yul\":4798:4807   */\n      dup4\n        /* \"#utility.yul\":4794:4812   */\n      add\n        /* \"#utility.yul\":4785:4791   */\n      dup5\n        /* \"#utility.yul\":4741:4813   */\n      tag_168\n      jump\t// in\n    tag_177:\n        /* \"#utility.yul\":4340:4820   */\n      swap5\n      swap4\n      pop\n      pop\n      pop\n      pop\n      jump\t// out\n        /* \"#utility.yul\":4826:5508   */\n    tag_26:\n        /* \"#utility.yul\":5042:5046   */\n      0x00\n        /* \"#utility.yul\":5080:5083   */\n      0x80\n        /* \"#utility.yul\":5069:5078   */\n      dup3\n        /* \"#utility.yul\":5065:5084   */\n      add\n        /* \"#utility.yul\":5057:5084   */\n      swap1\n      pop\n        /* \"#utility.yul\":5094:5184   */\n      tag_179\n        /* \"#utility.yul\":5181:5182   */\n      0x00\n        /* \"#utility.yul\":5170:5179   */\n      dup4\n        /* \"#utility.yul\":5166:5183   */\n      add\n        /* \"#utility.yul\":5157:5163   */\n      dup8\n        /* \"#utility.yul\":5094:5184   */\n      tag_139\n      jump\t// in\n    tag_179:\n        /* \"#utility.yul\":5231:5240   */\n      dup2\n        /* \"#utility.yul\":5225:5229   */\n      dup2\n        /* \"#utility.yul\":5221:5241   */\n      sub\n        /* \"#utility.yul\":5216:5218   */\n      0x20\n        /* \"#utility.yul\":5205:5214   */\n      dup4\n        /* \"#utility.yul\":5201:5219   */\n      add\n        /* \"#utility.yul\":5194:5242   */\n      mstore\n        /* \"#utility.yul\":5259:5337   */\n      tag_180\n        /* \"#utility.yul\":5332:5336   */\n      dup2\n        /* \"#utility.yul\":5323:5329   */\n      dup7\n        /* \"#utility.yul\":5259:5337   */\n      tag_143\n      jump\t// in\n    tag_180:\n        /* \"#utility.yul\":5251:5337   */\n      swap1\n      pop\n        /* \"#utility.yul\":5347:5419   */\n      tag_181\n        /* \"#utility.yul\":5415:5417   */\n      0x40\n        /* \"#utility.yul\":5404:5413   */\n      dup4\n        /* \"#utility.yul\":5400:5418   */\n      add\n        /* \"#utility.yul\":5391:5397   */\n      dup6\n        /* \"#utility.yul\":5347:5419   */\n      tag_168\n      jump\t// in\n    tag_181:\n        /* \"#utility.yul\":5429:5501   */\n      tag_182\n        /* \"#utility.yul\":5497:5499   */\n      0x60\n        /* \"#utility.yul\":5486:5495   */\n      dup4\n        /* \"#utility.yul\":5482:5500   */\n      add\n        /* \"#utility.yul\":5473:5479   */\n      dup5\n        /* \"#utility.yul\":5429:5501   */\n      tag_168\n      jump\t// in\n    tag_182:\n        /* \"#utility.yul\":4826:5508   */\n      swap6\n      swap5\n      pop\n      pop\n      pop\n      pop\n      pop\n      jump\t// out\n        /* \"#utility.yul\":5514:5933   */\n    tag_40:\n        /* \"#utility.yul\":5680:5684   */\n      0x00\n        /* \"#utility.yul\":5718:5720   */\n      0x20\n        /* \"#utility.yul\":5707:5716   */\n      dup3\n        /* \"#utility.yul\":5703:5721   */\n      add\n        /* \"#utility.yul\":5695:5721   */\n      swap1\n      pop\n        /* \"#utility.yul\":5767:5776   */\n      dup2\n        /* \"#utility.yul\":5761:5765   */\n      dup2\n        /* \"#utility.yul\":5757:5777   */\n      sub\n        /* \"#utility.yul\":5753:5754   */\n      0x00\n        /* \"#utility.yul\":5742:5751   */\n      dup4\n        /* \"#utility.yul\":5738:5755   */\n      add\n        /* \"#utility.yul\":5731:5778   */\n      mstore\n        /* \"#utility.yul\":5795:5926   */\n      tag_184\n        /* \"#utility.yul\":5921:5925   */\n      dup2\n        /* \"#utility.yul\":5795:5926   */\n      tag_153\n      jump\t// in\n    tag_184:\n        /* \"#utility.yul\":5787:5926   */\n      swap1\n      pop\n        /* \"#utility.yul\":5514:5933   */\n      swap2\n      swap1\n      pop\n      jump\t// out\n        /* \"#utility.yul\":5939:6358   */\n    tag_34:\n        /* \"#utility.yul\":6105:6109   */\n      0x00\n        /* \"#utility.yul\":6143:6145   */\n      0x20\n        /* \"#utility.yul\":6132:6141   */\n      dup3\n        /* \"#utility.yul\":6128:6146   */\n      add\n        /* \"#utility.yul\":6120:6146   */\n      swap1\n      pop\n        /* \"#utility.yul\":6192:6201   */\n      dup2\n        /* \"#utility.yul\":6186:6190   */\n      dup2\n        /* \"#utility.yul\":6182:6202   */\n      sub\n        /* \"#utility.yul\":6178:6179   */\n      0x00\n        /* \"#utility.yul\":6167:6176   */\n      dup4\n        /* \"#utility.yul\":6163:6180   */\n      add\n        /* \"#utility.yul\":6156:6203   */\n      mstore\n        /* \"#utility.yul\":6220:6351   */\n      tag_186\n        /* \"#utility.yul\":6346:6350   */\n      dup2\n        /* \"#utility.yul\":6220:6351   */\n      tag_158\n      jump\t// in\n    tag_186:\n        /* \"#utility.yul\":6212:6351   */\n      swap1\n      pop\n        /* \"#utility.yul\":5939:6358   */\n      swap2\n      swap1\n      pop\n      jump\t// out\n        /* \"#utility.yul\":6364:6783   */\n    tag_49:\n        /* \"#utility.yul\":6530:6534   */\n      0x00\n        /* \"#utility.yul\":6568:6570   */\n      0x20\n        /* \"#utility.yul\":6557:6566   */\n      dup3\n        /* \"#utility.yul\":6553:6571   */\n      add\n        /* \"#utility.yul\":6545:6571   */\n      swap1\n      pop\n        /* \"#utility.yul\":6617:6626   */\n      dup2\n        /* \"#utility.yul\":6611:6615   */\n      dup2\n        /* \"#utility.yul\":6607:6627   */\n      sub\n        /* \"#utility.yul\":6603:6604   */\n      0x00\n        /* \"#utility.yul\":6592:6601   */\n      dup4\n        /* \"#utility.yul\":6588:6605   */\n      add\n        /* \"#utility.yul\":6581:6628   */\n      mstore\n        /* \"#utility.yul\":6645:6776   */\n      tag_188\n        /* \"#utility.yul\":6771:6775   */\n      dup2\n        /* \"#utility.yul\":6645:6776   */\n      tag_163\n      jump\t// in\n    tag_188:\n        /* \"#utility.yul\":6637:6776   */\n      swap1\n      pop\n        /* \"#utility.yul\":6364:6783   */\n      swap2\n      swap1\n      pop\n      jump\t// out\n        /* \"#utility.yul\":6789:7231   */\n    tag_44:\n        /* \"#utility.yul\":6938:6942   */\n      0x00\n        /* \"#utility.yul\":6976:6978   */\n      0x60\n        /* \"#utility.yul\":6965:6974   */\n      dup3\n        /* \"#utility.yul\":6961:6979   */\n      add\n        /* \"#utility.yul\":6953:6979   */\n      swap1\n      pop\n        /* \"#utility.yul\":6989:7060   */\n      tag_190\n        /* \"#utility.yul\":7057:7058   */\n      0x00\n        /* \"#utility.yul\":7046:7055   */\n      dup4\n        /* \"#utility.yul\":7042:7059   */\n      add\n        /* \"#utility.yul\":7033:7039   */\n      dup7\n        /* \"#utility.yul\":6989:7060   */\n      tag_168\n      jump\t// in\n    tag_190:\n        /* \"#utility.yul\":7070:7142   */\n      tag_191\n        /* \"#utility.yul\":7138:7140   */\n      0x20\n        /* \"#utility.yul\":7127:7136   */\n      dup4\n        /* \"#utility.yul\":7123:7141   */\n      add\n        /* \"#utility.yul\":7114:7120   */\n      dup6\n        /* \"#utility.yul\":7070:7142   */\n      tag_168\n      jump\t// in\n    tag_191:\n        /* \"#utility.yul\":7152:7224   */\n      tag_192\n        /* \"#utility.yul\":7220:7222   */\n      0x40\n        /* \"#utility.yul\":7209:7218   */\n      dup4\n        /* \"#utility.yul\":7205:7223   */\n      add\n        /* \"#utility.yul\":7196:7202   */\n      dup5\n        /* \"#utility.yul\":7152:7224   */\n      tag_127\n      jump\t// in\n    tag_192:\n        /* \"#utility.yul\":6789:7231   */\n      swap5\n      swap4\n      pop\n      pop\n      pop\n      pop\n      jump\t// out\n        /* \"#utility.yul\":7237:7366   */\n    tag_98:\n        /* \"#utility.yul\":7271:7277   */\n      0x00\n        /* \"#utility.yul\":7298:7318   */\n      tag_194\n      tag_195\n      jump\t// in\n    tag_194:\n        /* \"#utility.yul\":7288:7318   */\n      swap1\n      pop\n        /* \"#utility.yul\":7327:7360   */\n      tag_196\n        /* \"#utility.yul\":7355:7359   */\n      dup3\n        /* \"#utility.yul\":7347:7353   */\n      dup3\n        /* \"#utility.yul\":7327:7360   */\n      tag_197\n      jump\t// in\n    tag_196:\n        /* \"#utility.yul\":7237:7366   */\n      swap2\n      swap1\n      pop\n      jump\t// out\n        /* \"#utility.yul\":7372:7447   */\n    tag_195:\n        /* \"#utility.yul\":7405:7411   */\n      0x00\n        /* \"#utility.yul\":7438:7440   */\n      0x40\n        /* \"#utility.yul\":7432:7441   */\n      mload\n        /* \"#utility.yul\":7422:7441   */\n      swap1\n      pop\n        /* \"#utility.yul\":7372:7447   */\n      swap1\n      jump\t// out\n        /* \"#utility.yul\":7453:7761   */\n    tag_97:\n        /* \"#utility.yul\":7515:7519   */\n      0x00\n        /* \"#utility.yul\":7605:7623   */\n      0xffffffffffffffff\n        /* \"#utility.yul\":7597:7603   */\n      dup3\n        /* \"#utility.yul\":7594:7624   */\n      gt\n        /* \"#utility.yul\":7591:7647   */\n      iszero\n      tag_200\n      jumpi\n        /* \"#utility.yul\":7627:7645   */\n      tag_201\n      tag_202\n      jump\t// in\n    tag_201:\n        /* \"#utility.yul\":7591:7647   */\n    tag_200:\n        /* \"#utility.yul\":7665:7694   */\n      tag_203\n        /* \"#utility.yul\":7687:7693   */\n      dup3\n        /* \"#utility.yul\":7665:7694   */\n      tag_152\n      jump\t// in\n    tag_203:\n        /* \"#utility.yul\":7657:7694   */\n      swap1\n      pop\n        /* \"#utility.yul\":7749:7753   */\n      0x20\n        /* \"#utility.yul\":7743:7747   */\n      dup2\n        /* \"#utility.yul\":7739:7754   */\n      add\n        /* \"#utility.yul\":7731:7754   */\n      swap1\n      pop\n        /* \"#utility.yul\":7453:7761   */\n      swap2\n      swap1\n      pop\n      jump\t// out\n        /* \"#utility.yul\":7767:7866   */\n    tag_146:\n        /* \"#utility.yul\":7819:7825   */\n      0x00\n        /* \"#utility.yul\":7853:7858   */\n      dup2\n        /* \"#utility.yul\":7847:7859   */\n      mload\n        /* \"#utility.yul\":7837:7859   */\n      swap1\n      pop\n        /* \"#utility.yul\":7767:7866   */\n      swap2\n      swap1\n      pop\n      jump\t// out\n        /* \"#utility.yul\":7872:8041   */\n    tag_148:\n        /* \"#utility.yul\":7956:7967   */\n      0x00\n        /* \"#utility.yul\":7990:7996   */\n      dup3\n        /* \"#utility.yul\":7985:7988   */\n      dup3\n        /* \"#utility.yul\":7978:7997   */\n      mstore\n        /* \"#utility.yul\":8030:8034   */\n      0x20\n        /* \"#utility.yul\":8025:8028   */\n      dup3\n        /* \"#utility.yul\":8021:8035   */\n      add\n        /* \"#utility.yul\":8006:8035   */\n      swap1\n      pop\n        /* \"#utility.yul\":7872:8041   */\n      swap3\n      swap2\n      pop\n      pop\n      jump\t// out\n        /* \"#utility.yul\":8047:8143   */\n    tag_130:\n        /* \"#utility.yul\":8084:8091   */\n      0x00\n        /* \"#utility.yul\":8113:8137   */\n      tag_207\n        /* \"#utility.yul\":8131:8136   */\n      dup3\n        /* \"#utility.yul\":8113:8137   */\n      tag_208\n      jump\t// in\n    tag_207:\n        /* \"#utility.yul\":8102:8137   */\n      swap1\n      pop\n        /* \"#utility.yul\":8047:8143   */\n      swap2\n      swap1\n      pop\n      jump\t// out\n        /* \"#utility.yul\":8149:8239   */\n    tag_134:\n        /* \"#utility.yul\":8183:8190   */\n      0x00\n        /* \"#utility.yul\":8226:8231   */\n      dup2\n        /* \"#utility.yul\":8219:8232   */\n      iszero\n        /* \"#utility.yul\":8212:8233   */\n      iszero\n        /* \"#utility.yul\":8201:8233   */\n      swap1\n      pop\n        /* \"#utility.yul\":8149:8239   */\n      swap2\n      swap1\n      pop\n      jump\t// out\n        /* \"#utility.yul\":8245:8371   */\n    tag_208:\n        /* \"#utility.yul\":8282:8289   */\n      0x00\n        /* \"#utility.yul\":8322:8364   */\n      0xffffffffffffffffffffffffffffffffffffffff\n        /* \"#utility.yul\":8315:8320   */\n      dup3\n        /* \"#utility.yul\":8311:8365   */\n      and\n        /* \"#utility.yul\":8300:8365   */\n      swap1\n      pop\n        /* \"#utility.yul\":8245:8371   */\n      swap2\n      swap1\n      pop\n      jump\t// out\n        /* \"#utility.yul\":8377:8454   */\n    tag_171:\n        /* \"#utility.yul\":8414:8421   */\n      0x00\n        /* \"#utility.yul\":8443:8448   */\n      dup2\n        /* \"#utility.yul\":8432:8448   */\n      swap1\n      pop\n        /* \"#utility.yul\":8377:8454   */\n      swap2\n      swap1\n      pop\n      jump\t// out\n        /* \"#utility.yul\":8460:8605   */\n    tag_138:\n        /* \"#utility.yul\":8529:8538   */\n      0x00\n        /* \"#utility.yul\":8562:8599   */\n      tag_213\n        /* \"#utility.yul\":8593:8598   */\n      dup3\n        /* \"#utility.yul\":8562:8599   */\n      tag_214\n      jump\t// in\n    tag_213:\n        /* \"#utility.yul\":8549:8599   */\n      swap1\n      pop\n        /* \"#utility.yul\":8460:8605   */\n      swap2\n      swap1\n      pop\n      jump\t// out\n        /* \"#utility.yul\":8611:8764   */\n    tag_142:\n        /* \"#utility.yul\":8680:8689   */\n      0x00\n        /* \"#utility.yul\":8713:8758   */\n      tag_216\n        /* \"#utility.yul\":8752:8757   */\n      dup3\n        /* \"#utility.yul\":8713:8758   */\n      tag_217\n      jump\t// in\n    tag_216:\n        /* \"#utility.yul\":8700:8758   */\n      swap1\n      pop\n        /* \"#utility.yul\":8611:8764   */\n      swap2\n      swap1\n      pop\n      jump\t// out\n        /* \"#utility.yul\":8770:8896   */\n    tag_214:\n        /* \"#utility.yul\":8820:8829   */\n      0x00\n        /* \"#utility.yul\":8853:8890   */\n      tag_219\n        /* \"#utility.yul\":8884:8889   */\n      dup3\n        /* \"#utility.yul\":8853:8890   */\n      tag_220\n      jump\t// in\n    tag_219:\n        /* \"#utility.yul\":8840:8890   */\n      swap1\n      pop\n        /* \"#utility.yul\":8770:8896   */\n      swap2\n      swap1\n      pop\n      jump\t// out\n        /* \"#utility.yul\":8902:9036   */\n    tag_217:\n        /* \"#utility.yul\":8960:8969   */\n      0x00\n        /* \"#utility.yul\":8993:9030   */\n      tag_222\n        /* \"#utility.yul\":9024:9029   */\n      dup3\n        /* \"#utility.yul\":8993:9030   */\n      tag_220\n      jump\t// in\n    tag_222:\n        /* \"#utility.yul\":8980:9030   */\n      swap1\n      pop\n        /* \"#utility.yul\":8902:9036   */\n      swap2\n      swap1\n      pop\n      jump\t// out\n        /* \"#utility.yul\":9042:9155   */\n    tag_220:\n        /* \"#utility.yul\":9092:9101   */\n      0x00\n        /* \"#utility.yul\":9125:9149   */\n      tag_224\n        /* \"#utility.yul\":9143:9148   */\n      dup3\n        /* \"#utility.yul\":9125:9149   */\n      tag_208\n      jump\t// in\n    tag_224:\n        /* \"#utility.yul\":9112:9149   */\n      swap1\n      pop\n        /* \"#utility.yul\":9042:9155   */\n      swap2\n      swap1\n      pop\n      jump\t// out\n        /* \"#utility.yul\":9161:9315   */\n    tag_103:\n        /* \"#utility.yul\":9245:9251   */\n      dup3\n        /* \"#utility.yul\":9240:9243   */\n      dup2\n        /* \"#utility.yul\":9235:9238   */\n      dup4\n        /* \"#utility.yul\":9222:9252   */\n      calldatacopy\n        /* \"#utility.yul\":9307:9308   */\n      0x00\n        /* \"#utility.yul\":9298:9304   */\n      dup4\n        /* \"#utility.yul\":9293:9296   */\n      dup4\n        /* \"#utility.yul\":9289:9305   */\n      add\n        /* \"#utility.yul\":9282:9309   */\n      mstore\n        /* \"#utility.yul\":9161:9315   */\n      pop\n      pop\n      pop\n      jump\t// out\n        /* \"#utility.yul\":9321:9628   */\n    tag_150:\n        /* \"#utility.yul\":9389:9390   */\n      0x00\n        /* \"#utility.yul\":9399:9512   */\n    tag_227:\n        /* \"#utility.yul\":9413:9419   */\n      dup4\n        /* \"#utility.yul\":9410:9411   */\n      dup2\n        /* \"#utility.yul\":9407:9420   */\n      lt\n        /* \"#utility.yul\":9399:9512   */\n      iszero\n      tag_229\n      jumpi\n        /* \"#utility.yul\":9498:9499   */\n      dup1\n        /* \"#utility.yul\":9493:9496   */\n      dup3\n        /* \"#utility.yul\":9489:9500   */\n      add\n        /* \"#utility.yul\":9483:9501   */\n      mload\n        /* \"#utility.yul\":9479:9480   */\n      dup2\n        /* \"#utility.yul\":9474:9477   */\n      dup5\n        /* \"#utility.yul\":9470:9481   */\n      add\n        /* \"#utility.yul\":9463:9502   */\n      mstore\n        /* \"#utility.yul\":9435:9437   */\n      0x20\n        /* \"#utility.yul\":9432:9433   */\n      dup2\n        /* \"#utility.yul\":9428:9438   */\n      add\n        /* \"#utility.yul\":9423:9438   */\n      swap1\n      pop\n        /* \"#utility.yul\":9399:9512   */\n      jump(tag_227)\n    tag_229:\n        /* \"#utility.yul\":9530:9536   */\n      dup4\n        /* \"#utility.yul\":9527:9528   */\n      dup2\n        /* \"#utility.yul\":9524:9537   */\n      gt\n        /* \"#utility.yul\":9521:9622   */\n      iszero\n      tag_230\n      jumpi\n        /* \"#utility.yul\":9610:9611   */\n      0x00\n        /* \"#utility.yul\":9601:9607   */\n      dup5\n        /* \"#utility.yul\":9596:9599   */\n      dup5\n        /* \"#utility.yul\":9592:9608   */\n      add\n        /* \"#utility.yul\":9585:9612   */\n      mstore\n        /* \"#utility.yul\":9521:9622   */\n    tag_230:\n        /* \"#utility.yul\":9370:9628   */\n      pop\n        /* \"#utility.yul\":9321:9628   */\n      pop\n      pop\n      pop\n      jump\t// out\n        /* \"#utility.yul\":9634:9954   */\n    tag_65:\n        /* \"#utility.yul\":9678:9684   */\n      0x00\n        /* \"#utility.yul\":9715:9716   */\n      0x02\n        /* \"#utility.yul\":9709:9713   */\n      dup3\n        /* \"#utility.yul\":9705:9717   */\n      div\n        /* \"#utility.yul\":9695:9717   */\n      swap1\n      pop\n        /* \"#utility.yul\":9762:9763   */\n      0x01\n        /* \"#utility.yul\":9756:9760   */\n      dup3\n        /* \"#utility.yul\":9752:9764   */\n      and\n        /* \"#utility.yul\":9783:9801   */\n      dup1\n        /* \"#utility.yul\":9773:9854   */\n      tag_232\n      jumpi\n        /* \"#utility.yul\":9839:9843   */\n      0x7f\n        /* \"#utility.yul\":9831:9837   */\n      dup3\n        /* \"#utility.yul\":9827:9844   */\n      and\n        /* \"#utility.yul\":9817:9844   */\n      swap2\n      pop\n        /* \"#utility.yul\":9773:9854   */\n    tag_232:\n        /* \"#utility.yul\":9901:9903   */\n      0x20\n        /* \"#utility.yul\":9893:9899   */\n      dup3\n        /* \"#utility.yul\":9890:9904   */\n      lt\n        /* \"#utility.yul\":9870:9888   */\n      dup2\n        /* \"#utility.yul\":9867:9905   */\n      eq\n        /* \"#utility.yul\":9864:9948   */\n      iszero\n      tag_233\n      jumpi\n        /* \"#utility.yul\":9920:9938   */\n      tag_234\n      tag_235\n      jump\t// in\n    tag_234:\n        /* \"#utility.yul\":9864:9948   */\n    tag_233:\n        /* \"#utility.yul\":9685:9954   */\n      pop\n        /* \"#utility.yul\":9634:9954   */\n      swap2\n      swap1\n      pop\n      jump\t// out\n        /* \"#utility.yul\":9960:10241   */\n    tag_197:\n        /* \"#utility.yul\":10043:10070   */\n      tag_237\n        /* \"#utility.yul\":10065:10069   */\n      dup3\n        /* \"#utility.yul\":10043:10070   */\n      tag_152\n      jump\t// in\n    tag_237:\n        /* \"#utility.yul\":10035:10041   */\n      dup2\n        /* \"#utility.yul\":10031:10071   */\n      add\n        /* \"#utility.yul\":10173:10179   */\n      dup2\n        /* \"#utility.yul\":10161:10171   */\n      dup2\n        /* \"#utility.yul\":10158:10180   */\n      lt\n        /* \"#utility.yul\":10137:10155   */\n      0xffffffffffffffff\n        /* \"#utility.yul\":10125:10135   */\n      dup3\n        /* \"#utility.yul\":10122:10156   */\n      gt\n        /* \"#utility.yul\":10119:10181   */\n      or\n        /* \"#utility.yul\":10116:10204   */\n      iszero\n      tag_238\n      jumpi\n        /* \"#utility.yul\":10184:10202   */\n      tag_239\n      tag_202\n      jump\t// in\n    tag_239:\n        /* \"#utility.yul\":10116:10204   */\n    tag_238:\n        /* \"#utility.yul\":10224:10234   */\n      dup1\n        /* \"#utility.yul\":10220:10222   */\n      0x40\n        /* \"#utility.yul\":10213:10235   */\n      mstore\n        /* \"#utility.yul\":10003:10241   */\n      pop\n        /* \"#utility.yul\":9960:10241   */\n      pop\n      pop\n      jump\t// out\n        /* \"#utility.yul\":10247:10480   */\n    tag_62:\n        /* \"#utility.yul\":10286:10289   */\n      0x00\n        /* \"#utility.yul\":10309:10333   */\n      tag_241\n        /* \"#utility.yul\":10327:10332   */\n      dup3\n        /* \"#utility.yul\":10309:10333   */\n      tag_171\n      jump\t// in\n    tag_241:\n        /* \"#utility.yul\":10300:10333   */\n      swap2\n      pop\n        /* \"#utility.yul\":10355:10421   */\n      0xffffffffffffffffffffffffffffffffffffffffffffffffffffffffffffffff\n        /* \"#utility.yul\":10348:10353   */\n      dup3\n        /* \"#utility.yul\":10345:10422   */\n      eq\n        /* \"#utility.yul\":10342:10445   */\n      iszero\n      tag_242\n      jumpi\n        /* \"#utility.yul\":10425:10443   */\n      tag_243\n      tag_244\n      jump\t// in\n    tag_243:\n        /* \"#utility.yul\":10342:10445   */\n    tag_242:\n        /* \"#utility.yul\":10472:10473   */\n      0x01\n        /* \"#utility.yul\":10465:10470   */\n      dup3\n        /* \"#utility.yul\":10461:10474   */\n      add\n        /* \"#utility.yul\":10454:10474   */\n      swap1\n      pop\n        /* \"#utility.yul\":10247:10480   */\n      swap2\n      swap1\n      pop\n      jump\t// out\n        /* \"#utility.yul\":10486:10666   */\n    tag_244:\n        /* \"#utility.yul\":10534:10611   */\n      0x4e487b7100000000000000000000000000000000000000000000000000000000\n        /* \"#utility.yul\":10531:10532   */\n      0x00\n        /* \"#utility.yul\":10524:10612   */\n      mstore\n        /* \"#utility.yul\":10631:10635   */\n      0x11\n        /* \"#utility.yul\":10628:10629   */\n      0x04\n        /* \"#utility.yul\":10621:10636   */\n      mstore\n        /* \"#utility.yul\":10655:10659   */\n      0x24\n        /* \"#utility.yul\":10652:10653   */\n      0x00\n        /* \"#utility.yul\":10645:10660   */\n      revert\n        /* \"#utility.yul\":10672:10852   */\n    tag_37:\n        /* \"#utility.yul\":10720:10797   */\n      0x4e487b7100000000000000000000000000000000000000000000000000000000\n        /* \"#utility.yul\":10717:10718   */\n      0x00\n        /* \"#utility.yul\":10710:10798   */\n      mstore\n        /* \"#utility.yul\":10817:10821   */\n      0x21\n        /* \"#utility.yul\":10814:10815   */\n      0x04\n        /* \"#utility.yul\":10807:10822   */\n      mstore\n        /* \"#utility.yul\":10841:10845   */\n      0x24\n        /* \"#utility.yul\":10838:10839   */\n      0x00\n        /* \"#utility.yul\":10831:10846   */\n      revert\n        /* \"#utility.yul\":10858:11038   */\n    tag_235:\n        /* \"#utility.yul\":10906:10983   */\n      0x4e487b7100000000000000000000000000000000000000000000000000000000\n        /* \"#utility.yul\":10903:10904   */\n      0x00\n        /* \"#utility.yul\":10896:10984   */\n      mstore\n        /* \"#utility.yul\":11003:11007   */\n      0x22\n        /* \"#utility.yul\":11000:11001   */\n      0x04\n        /* \"#utility.yul\":10993:11008   */\n      mstore\n        /* \"#utility.yul\":11027:11031   */\n      0x24\n        /* \"#utility.yul\":11024:11025   */\n      0x00\n        /* \"#utility.yul\":11017:11032   */\n      revert\n        /* \"#utility.yul\":11044:11224   */\n    tag_202:\n        /* \"#utility.yul\":11092:11169   */\n      0x4e487b7100000000000000000000000000000000000000000000000000000000\n        /* \"#utility.yul\":11089:11090   */\n      0x00\n        /* \"#utility.yul\":11082:11170   */\n      mstore\n        /* \"#utility.yul\":11189:11193   */\n      0x41\n        /* \"#utility.yul\":11186:11187   */\n      0x04\n        /* \"#utility.yul\":11179:11194   */\n      mstore\n        /* \"#utility.yul\":11213:11217   */\n      0x24\n        /* \"#utility.yul\":11210:11211   */\n      0x00\n        /* \"#utility.yul\":11203:11218   */\n      revert\n        /* \"#utility.yul\":11230:11347   */\n    tag_108:\n        /* \"#utility.yul\":11339:11340   */\n      0x00\n        /* \"#utility.yul\":11336:11337   */\n      dup1\n        /* \"#utility.yul\":11329:11341   */\n      revert\n        /* \"#utility.yul\":11353:11470   */\n    tag_101:\n        /* \"#utility.yul\":11462:11463   */\n      0x00\n        /* \"#utility.yul\":11459:11460   */\n      dup1\n        /* \"#utility.yul\":11452:11464   */\n      revert\n        /* \"#utility.yul\":11476:11593   */\n    tag_120:\n        /* \"#utility.yul\":11585:11586   */\n      0x00\n        /* \"#utility.yul\":11582:11583   */\n      dup1\n        /* \"#utility.yul\":11575:11587   */\n      revert\n        /* \"#utility.yul\":11599:11716   */\n    tag_117:\n        /* \"#utility.yul\":11708:11709   */\n      0x00\n        /* \"#utility.yul\":11705:11706   */\n      dup1\n        /* \"#utility.yul\":11698:11710   */\n      revert\n        /* \"#utility.yul\":11722:11824   */\n    tag_152:\n        /* \"#utility.yul\":11763:11769   */\n      0x00\n        /* \"#utility.yul\":11814:11816   */\n      0x1f\n        /* \"#utility.yul\":11810:11817   */\n      not\n        /* \"#utility.yul\":11805:11807   */\n      0x1f\n        /* \"#utility.yul\":11798:11803   */\n      dup4\n        /* \"#utility.yul\":11794:11808   */\n      add\n        /* \"#utility.yul\":11790:11818   */\n      and\n        /* \"#utility.yul\":11780:11818   */\n      swap1\n      pop\n        /* \"#utility.yul\":11722:11824   */\n      swap2\n      swap1\n      pop\n      jump\t// out\n        /* \"#utility.yul\":11830:12008   */\n    tag_157:\n        /* \"#utility.yul\":11970:12000   */\n      0x4974656d206973206675727468657220696e2074686520636861696e00000000\n        /* \"#utility.yul\":11966:11967   */\n      0x00\n        /* \"#utility.yul\":11958:11964   */\n      dup3\n        /* \"#utility.yul\":11954:11968   */\n      add\n        /* \"#utility.yul\":11947:12001   */\n      mstore\n        /* \"#utility.yul\":11830:12008   */\n      pop\n      jump\t// out\n        /* \"#utility.yul\":12014:12191   */\n    tag_162:\n        /* \"#utility.yul\":12154:12183   */\n      0x4f6e6c792066756c6c207061796d656e74732061636365707465640000000000\n        /* \"#utility.yul\":12150:12151   */\n      0x00\n        /* \"#utility.yul\":12142:12148   */\n      dup3\n        /* \"#utility.yul\":12138:12152   */\n      add\n        /* \"#utility.yul\":12131:12184   */\n      mstore\n        /* \"#utility.yul\":12014:12191   */\n      pop\n      jump\t// out\n        /* \"#utility.yul\":12197:12368   */\n    tag_167:\n        /* \"#utility.yul\":12337:12360   */\n      0x796f7520617265206e6f7420746865206f776e65720000000000000000000000\n        /* \"#utility.yul\":12333:12334   */\n      0x00\n        /* \"#utility.yul\":12325:12331   */\n      dup3\n        /* \"#utility.yul\":12321:12335   */\n      add\n        /* \"#utility.yul\":12314:12361   */\n      mstore\n        /* \"#utility.yul\":12197:12368   */\n      pop\n      jump\t// out\n        /* \"#utility.yul\":12374:12496   */\n    tag_113:\n        /* \"#utility.yul\":12447:12471   */\n      tag_258\n        /* \"#utility.yul\":12465:12470   */\n      dup2\n        /* \"#utility.yul\":12447:12471   */\n      tag_171\n      jump\t// in\n    tag_258:\n        /* \"#utility.yul\":12440:12445   */\n      dup2\n        /* \"#utility.yul\":12437:12472   */\n      eq\n        /* \"#utility.yul\":12427:12490   */\n      tag_259\n      jumpi\n        /* \"#utility.yul\":12486:12487   */\n      0x00\n        /* \"#utility.yul\":12483:12484   */\n      dup1\n        /* \"#utility.yul\":12476:12488   */\n      revert\n        /* \"#utility.yul\":12427:12490   */\n    tag_259:\n        /* \"#utility.yul\":12374:12496   */\n      pop\n      jump\t// out\n    stop\n\n    sub_0: assembly {\n            /* \"contracts/Item.sol\":90:865  contract Item{\r... */\n          mstore(0x40, 0x80)\n            /* \"contracts/Item.sol\":230:421  constructor(ItemManager _parentContract,uint _priceInWei,uint _itemIndex){\r... */\n          callvalue\n          dup1\n          iszero\n          tag_1\n          jumpi\n          0x00\n          dup1\n          revert\n        tag_1:\n          pop\n          mload(0x40)\n          sub(codesize, bytecodeSize)\n          dup1\n          bytecodeSize\n          dup4\n          codecopy\n          dup2\n          dup2\n          add\n          0x40\n          mstore\n          dup2\n          add\n          swap1\n          tag_2\n          swap2\n          swap1\n          tag_3\n          jump\t// in\n        tag_2:\n            /* \"contracts/Item.sol\":330:345  _parentContract */\n          dup3\n            /* \"contracts/Item.sol\":314:328  parentContract */\n          0x03\n          0x00\n            /* \"contracts/Item.sol\":314:345  parentContract =_parentContract */\n          0x0100\n          exp\n          dup2\n          sload\n          dup2\n          0xffffffffffffffffffffffffffffffffffffffff\n          mul\n          not\n          and\n          swap1\n          dup4\n          0xffffffffffffffffffffffffffffffffffffffff\n          and\n          mul\n          or\n          swap1\n          sstore\n          pop\n            /* \"contracts/Item.sol\":369:380  _priceInWei */\n          dup2\n            /* \"contracts/Item.sol\":356:366  priceInWei */\n          0x00\n            /* \"contracts/Item.sol\":356:380  priceInWei = _priceInWei */\n          dup2\n          swap1\n          sstore\n          pop\n            /* \"contracts/Item.sol\":403:413  _itemIndex */\n          dup1\n            /* \"contracts/Item.sol\":391:400  itemIndex */\n          0x02\n            /* \"contracts/Item.sol\":391:413  itemIndex = _itemIndex */\n          dup2\n          swap1\n          sstore\n          pop\n            /* \"contracts/Item.sol\":230:421  constructor(ItemManager _parentContract,uint _priceInWei,uint _itemIndex){\r... */\n          pop\n          pop\n          pop\n            /* \"contracts/Item.sol\":90:865  contract Item{\r... */\n          jump(tag_6)\n            /* \"#utility.yul\":7:188   */\n        tag_8:\n            /* \"#utility.yul\":83:88   */\n          0x00\n            /* \"#utility.yul\":114:120   */\n          dup2\n            /* \"#utility.yul\":108:121   */\n          mload\n            /* \"#utility.yul\":99:121   */\n          swap1\n          pop\n            /* \"#utility.yul\":130:182   */\n          tag_10\n            /* \"#utility.yul\":176:181   */\n          dup2\n            /* \"#utility.yul\":130:182   */\n          tag_11\n          jump\t// in\n        tag_10:\n            /* \"#utility.yul\":7:188   */\n          swap3\n          swap2\n          pop\n          pop\n          jump\t// out\n            /* \"#utility.yul\":194:337   */\n        tag_12:\n            /* \"#utility.yul\":251:256   */\n          0x00\n            /* \"#utility.yul\":282:288   */\n          dup2\n            /* \"#utility.yul\":276:289   */\n          mload\n            /* \"#utility.yul\":267:289   */\n          swap1\n          pop\n            /* \"#utility.yul\":298:331   */\n          tag_14\n            /* \"#utility.yul\":325:330   */\n          dup2\n            /* \"#utility.yul\":298:331   */\n          tag_15\n          jump\t// in\n        tag_14:\n            /* \"#utility.yul\":194:337   */\n          swap3\n          swap2\n          pop\n          pop\n          jump\t// out\n            /* \"#utility.yul\":343:1044   */\n        tag_3:\n            /* \"#utility.yul\":450:456   */\n          0x00\n            /* \"#utility.yul\":458:464   */\n          dup1\n            /* \"#utility.yul\":466:472   */\n          0x00\n            /* \"#utility.yul\":515:517   */\n          0x60\n            /* \"#utility.yul\":503:512   */\n          dup5\n            /* \"#utility.yul\":494:501   */\n          dup7\n            /* \"#utility.yul\":490:513   */\n          sub\n            /* \"#utility.yul\":486:518   */\n          slt\n            /* \"#utility.yul\":483:602   */\n          iszero\n          tag_17\n          jumpi\n            /* \"#utility.yul\":521:600   */\n          tag_18\n          tag_19\n          jump\t// in\n        tag_18:\n            /* \"#utility.yul\":483:602   */\n        tag_17:\n            /* \"#utility.yul\":641:642   */\n          0x00\n            /* \"#utility.yul\":666:749   */\n          tag_20\n            /* \"#utility.yul\":741:748   */\n          dup7\n            /* \"#utility.yul\":732:738   */\n          dup3\n            /* \"#utility.yul\":721:730   */\n          dup8\n            /* \"#utility.yul\":717:739   */\n          add\n            /* \"#utility.yul\":666:749   */\n          tag_8\n          jump\t// in\n        tag_20:\n            /* \"#utility.yul\":656:749   */\n          swap4\n          pop\n            /* \"#utility.yul\":612:759   */\n          pop\n            /* \"#utility.yul\":798:800   */\n          0x20\n            /* \"#utility.yul\":824:888   */\n          tag_21\n            /* \"#utility.yul\":880:887   */\n          dup7\n            /* \"#utility.yul\":871:877   */\n          dup3\n            /* \"#utility.yul\":860:869   */\n          dup8\n            /* \"#utility.yul\":856:878   */\n          add\n            /* \"#utility.yul\":824:888   */\n          tag_12\n          jump\t// in\n        tag_21:\n            /* \"#utility.yul\":814:888   */\n          swap3\n          pop\n            /* \"#utility.yul\":769:898   */\n          pop\n            /* \"#utility.yul\":937:939   */\n          0x40\n            /* \"#utility.yul\":963:1027   */\n          tag_22\n            /* \"#utility.yul\":1019:1026   */\n          dup7\n            /* \"#utility.yul\":1010:1016   */\n          dup3\n            /* \"#utility.yul\":999:1008   */\n          dup8\n            /* \"#utility.yul\":995:1017   */\n          add\n            /* \"#utility.yul\":963:1027   */\n          tag_12\n          jump\t// in\n        tag_22:\n            /* \"#utility.yul\":953:1027   */\n          swap2\n          pop\n            /* \"#utility.yul\":908:1037   */\n          pop\n            /* \"#utility.yul\":343:1044   */\n          swap3\n          pop\n          swap3\n          pop\n          swap3\n          jump\t// out\n            /* \"#utility.yul\":1131:1227   */\n        tag_25:\n            /* \"#utility.yul\":1168:1175   */\n          0x00\n            /* \"#utility.yul\":1197:1221   */\n          tag_27\n            /* \"#utility.yul\":1215:1220   */\n          dup3\n            /* \"#utility.yul\":1197:1221   */\n          tag_28\n          jump\t// in\n        tag_27:\n            /* \"#utility.yul\":1186:1221   */\n          swap1\n          pop\n            /* \"#utility.yul\":1131:1227   */\n          swap2\n          swap1\n          pop\n          jump\t// out\n            /* \"#utility.yul\":1233:1348   */\n        tag_29:\n            /* \"#utility.yul\":1289:1296   */\n          0x00\n            /* \"#utility.yul\":1318:1342   */\n          tag_31\n            /* \"#utility.yul\":1336:1341   */\n          dup3\n            /* \"#utility.yul\":1318:1342   */\n          tag_25\n          jump\t// in\n        tag_31:\n            /* \"#utility.yul\":1307:1342   */\n          swap1\n          pop\n            /* \"#utility.yul\":1233:1348   */\n          swap2\n          swap1\n          pop\n          jump\t// out\n            /* \"#utility.yul\":1354:1480   */\n        tag_28:\n            /* \"#utility.yul\":1391:1398   */\n          0x00\n            /* \"#utility.yul\":1431:1473   */\n          0xffffffffffffffffffffffffffffffffffffffff\n            /* \"#utility.yul\":1424:1429   */\n          dup3\n            /* \"#utility.yul\":1420:1474   */\n          and\n            /* \"#utility.yul\":1409:1474   */\n          swap1\n          pop\n            /* \"#utility.yul\":1354:1480   */\n          swap2\n          swap1\n          pop\n          jump\t// out\n            /* \"#utility.yul\":1486:1563   */\n        tag_33:\n            /* \"#utility.yul\":1523:1530   */\n          0x00\n            /* \"#utility.yul\":1552:1557   */\n          dup2\n            /* \"#utility.yul\":1541:1557   */\n          swap1\n          pop\n            /* \"#utility.yul\":1486:1563   */\n          swap2\n          swap1\n          pop\n          jump\t// out\n            /* \"#utility.yul\":1692:1809   */\n        tag_19:\n            /* \"#utility.yul\":1801:1802   */\n          0x00\n            /* \"#utility.yul\":1798:1799   */\n          dup1\n            /* \"#utility.yul\":1791:1803   */\n          revert\n            /* \"#utility.yul\":1815:1975   */\n        tag_11:\n            /* \"#utility.yul\":1907:1950   */\n          tag_39\n            /* \"#utility.yul\":1944:1949   */\n          dup2\n            /* \"#utility.yul\":1907:1950   */\n          tag_29\n          jump\t// in\n        tag_39:\n            /* \"#utility.yul\":1900:1905   */\n          dup2\n            /* \"#utility.yul\":1897:1951   */\n          eq\n            /* \"#utility.yul\":1887:1969   */\n          tag_40\n          jumpi\n            /* \"#utility.yul\":1965:1966   */\n          0x00\n            /* \"#utility.yul\":1962:1963   */\n          dup1\n            /* \"#utility.yul\":1955:1967   */\n          revert\n            /* \"#utility.yul\":1887:1969   */\n        tag_40:\n            /* \"#utility.yul\":1815:1975   */\n          pop\n          jump\t// out\n            /* \"#utility.yul\":1981:2103   */\n        tag_15:\n            /* \"#utility.yul\":2054:2078   */\n          tag_42\n            /* \"#utility.yul\":2072:2077   */\n          dup2\n            /* \"#utility.yul\":2054:2078   */\n          tag_33\n          jump\t// in\n        tag_42:\n            /* \"#utility.yul\":2047:2052   */\n          dup2\n            /* \"#utility.yul\":2044:2079   */\n          eq\n            /* \"#utility.yul\":2034:2097   */\n          tag_43\n          jumpi\n            /* \"#utility.yul\":2093:2094   */\n          0x00\n            /* \"#utility.yul\":2090:2091   */\n          dup1\n            /* \"#utility.yul\":2083:2095   */\n          revert\n            /* \"#utility.yul\":2034:2097   */\n        tag_43:\n            /* \"#utility.yul\":1981:2103   */\n          pop\n          jump\t// out\n            /* \"contracts/Item.sol\":90:865  contract Item{\r... */\n        tag_6:\n          dataSize(sub_0)\n          dup1\n          dataOffset(sub_0)\n          0x00\n          codecopy\n          0x00\n          return\n        stop\n\n        sub_0: assembly {\n                /* \"contracts/Item.sol\":90:865  contract Item{\r... */\n              mstore(0x40, 0x80)\n              jumpi(tag_1, lt(calldatasize, 0x04))\n              shr(0xe0, calldataload(0x00))\n              dup1\n              0x3c8da588\n              eq\n              tag_3\n              jumpi\n              dup1\n              0x89794d00\n              eq\n              tag_4\n              jumpi\n              dup1\n              0xe07bb1a7\n              eq\n              tag_5\n              jumpi\n              jump(tag_2)\n            tag_1:\n              jumpi(tag_2, calldatasize)\n                /* \"contracts/Item.sol\":487:488  0 */\n              0x00\n                /* \"contracts/Item.sol\":474:483  pricePaid */\n              sload(0x01)\n                /* \"contracts/Item.sol\":474:488  pricePaid == 0 */\n              eq\n                /* \"contracts/Item.sol\":466:513  require(pricePaid == 0, \"Item is paid already\") */\n              tag_8\n              jumpi\n              mload(0x40)\n              0x08c379a000000000000000000000000000000000000000000000000000000000\n              dup2\n              mstore\n              0x04\n              add\n              tag_9\n              swap1\n              tag_10\n              jump\t// in\n            tag_9:\n              mload(0x40)\n              dup1\n              swap2\n              sub\n              swap1\n              revert\n            tag_8:\n                /* \"contracts/Item.sol\":546:555  msg.value */\n              callvalue\n                /* \"contracts/Item.sol\":532:542  priceInWei */\n              sload(0x00)\n                /* \"contracts/Item.sol\":532:555  priceInWei == msg.value */\n              eq\n                /* \"contracts/Item.sol\":524:585  require(priceInWei == msg.value,\"Only full payments allowed\") */\n              tag_11\n              jumpi\n              mload(0x40)\n              0x08c379a000000000000000000000000000000000000000000000000000000000\n              dup2\n              mstore\n              0x04\n              add\n              tag_12\n              swap1\n              tag_13\n              jump\t// in\n            tag_12:\n              mload(0x40)\n              dup1\n              swap2\n              sub\n              swap1\n              revert\n            tag_11:\n                /* \"contracts/Item.sol\":609:618  msg.value */\n              callvalue\n                /* \"contracts/Item.sol\":596:605  pricePaid */\n              0x01\n              0x00\n                /* \"contracts/Item.sol\":596:618  pricePaid += msg.value */\n              dup3\n              dup3\n              sload\n              tag_14\n              swap2\n              swap1\n              tag_15\n              jump\t// in\n            tag_14:\n              swap3\n              pop\n              pop\n              dup2\n              swap1\n              sstore\n              pop\n                /* \"contracts/Item.sol\":631:643  bool success */\n              0x00\n                /* \"contracts/Item.sol\":657:671  parentContract */\n              0x03\n              0x00\n              swap1\n              sload\n              swap1\n              0x0100\n              exp\n              swap1\n              div\n              0xffffffffffffffffffffffffffffffffffffffff\n              and\n                /* \"contracts/Item.sol\":649:677  address(parentContract).call */\n              0xffffffffffffffffffffffffffffffffffffffff\n              and\n                /* \"contracts/Item.sol\":684:693  msg.value */\n              callvalue\n                /* \"contracts/Item.sol\":745:754  itemIndex */\n              sload(0x02)\n                /* \"contracts/Item.sol\":695:755  abi.encodeWithSignature(\"triggerPayment(uint256)\",itemIndex) */\n              add(0x24, mload(0x40))\n              tag_16\n              swap2\n              swap1\n              tag_17\n              jump\t// in\n            tag_16:\n              mload(0x40)\n              0x20\n              dup2\n              dup4\n              sub\n              sub\n              dup2\n              mstore\n              swap1\n              0x40\n              mstore\n              and(not(0xffffffffffffffffffffffffffffffffffffffffffffffffffffffff), 0x800fb83f00000000000000000000000000000000000000000000000000000000)\n              0x20\n              dup3\n              add\n              dup1\n              mload\n              0xffffffffffffffffffffffffffffffffffffffffffffffffffffffff\n              dup4\n              dup2\n              dup4\n              and\n              or\n              dup4\n              mstore\n              pop\n              pop\n              pop\n              pop\n                /* \"contracts/Item.sol\":649:756  address(parentContract).call{value:msg.value}(abi.encodeWithSignature(\"triggerPayment(uint256)\",itemIndex)) */\n              mload(0x40)\n              tag_18\n              swap2\n              swap1\n              tag_19\n              jump\t// in\n            tag_18:\n              0x00\n              mload(0x40)\n              dup1\n              dup4\n              sub\n              dup2\n              dup6\n              dup8\n              gas\n              call\n              swap3\n              pop\n              pop\n              pop\n              returndatasize\n              dup1\n              0x00\n              dup2\n              eq\n              tag_22\n              jumpi\n              mload(0x40)\n              swap2\n              pop\n              and(add(returndatasize, 0x3f), not(0x1f))\n              dup3\n              add\n              0x40\n              mstore\n              returndatasize\n              dup3\n              mstore\n              returndatasize\n              0x00\n              0x20\n              dup5\n              add\n              returndatacopy\n              jump(tag_21)\n            tag_22:\n              0x60\n              swap2\n              pop\n            tag_21:\n              pop\n                /* \"contracts/Item.sol\":630:756  (bool success, ) = address(parentContract).call{value:msg.value}(abi.encodeWithSignature(\"triggerPayment(uint256)\",itemIndex)) */\n              pop\n              swap1\n              pop\n                /* \"contracts/Item.sol\":777:784  success */\n              dup1\n                /* \"contracts/Item.sol\":769:818  require(success,\"transaction was not successful\") */\n              tag_23\n              jumpi\n              mload(0x40)\n              0x08c379a000000000000000000000000000000000000000000000000000000000\n              dup2\n              mstore\n              0x04\n              add\n              tag_24\n              swap1\n              tag_25\n              jump\t// in\n            tag_24:\n              mload(0x40)\n              dup1\n              swap2\n              sub\n              swap1\n              revert\n            tag_23:\n                /* \"contracts/Item.sol\":455:826  {\r... */\n              pop\n                /* \"contracts/Item.sol\":90:865  contract Item{\r... */\n              stop\n            tag_2:\n              callvalue\n              dup1\n              iszero\n              tag_26\n              jumpi\n              0x00\n              dup1\n              revert\n            tag_26:\n              pop\n              stop\n                /* \"contracts/Item.sol\":110:132  uint public priceInWei */\n            tag_3:\n              callvalue\n              dup1\n              iszero\n              tag_29\n              jumpi\n              0x00\n              dup1\n              revert\n            tag_29:\n              pop\n              tag_30\n              tag_31\n              jump\t// in\n            tag_30:\n              mload(0x40)\n              tag_32\n              swap2\n              swap1\n              tag_17\n              jump\t// in\n            tag_32:\n              mload(0x40)\n              dup1\n              swap2\n              sub\n              swap1\n              return\n                /* \"contracts/Item.sol\":139:160  uint public pricePaid */\n            tag_4:\n              callvalue\n              dup1\n              iszero\n              tag_33\n              jumpi\n              0x00\n              dup1\n              revert\n            tag_33:\n              pop\n              tag_34\n              tag_35\n              jump\t// in\n            tag_34:\n              mload(0x40)\n              tag_36\n              swap2\n              swap1\n              tag_17\n              jump\t// in\n            tag_36:\n              mload(0x40)\n              dup1\n              swap2\n              sub\n              swap1\n              return\n                /* \"contracts/Item.sol\":167:188  uint public itemIndex */\n            tag_5:\n              callvalue\n              dup1\n              iszero\n              tag_37\n              jumpi\n              0x00\n              dup1\n              revert\n            tag_37:\n              pop\n              tag_38\n              tag_39\n              jump\t// in\n            tag_38:\n              mload(0x40)\n              tag_40\n              swap2\n              swap1\n              tag_17\n              jump\t// in\n            tag_40:\n              mload(0x40)\n              dup1\n              swap2\n              sub\n              swap1\n              return\n                /* \"contracts/Item.sol\":110:132  uint public priceInWei */\n            tag_31:\n              sload(0x00)\n              dup2\n              jump\t// out\n                /* \"contracts/Item.sol\":139:160  uint public pricePaid */\n            tag_35:\n              sload(0x01)\n              dup2\n              jump\t// out\n                /* \"contracts/Item.sol\":167:188  uint public itemIndex */\n            tag_39:\n              sload(0x02)\n              dup2\n              jump\t// out\n                /* \"#utility.yul\":7:380   */\n            tag_42:\n                /* \"#utility.yul\":111:114   */\n              0x00\n                /* \"#utility.yul\":139:177   */\n              tag_44\n                /* \"#utility.yul\":171:176   */\n              dup3\n                /* \"#utility.yul\":139:177   */\n              tag_45\n              jump\t// in\n            tag_44:\n                /* \"#utility.yul\":193:281   */\n              tag_46\n                /* \"#utility.yul\":274:280   */\n              dup2\n                /* \"#utility.yul\":269:272   */\n              dup6\n                /* \"#utility.yul\":193:281   */\n              tag_47\n              jump\t// in\n            tag_46:\n                /* \"#utility.yul\":186:281   */\n              swap4\n              pop\n                /* \"#utility.yul\":290:342   */\n              tag_48\n                /* \"#utility.yul\":335:341   */\n              dup2\n                /* \"#utility.yul\":330:333   */\n              dup6\n                /* \"#utility.yul\":323:327   */\n              0x20\n                /* \"#utility.yul\":316:321   */\n              dup7\n                /* \"#utility.yul\":312:328   */\n              add\n                /* \"#utility.yul\":290:342   */\n              tag_49\n              jump\t// in\n            tag_48:\n                /* \"#utility.yul\":367:373   */\n              dup1\n                /* \"#utility.yul\":362:365   */\n              dup5\n                /* \"#utility.yul\":358:374   */\n              add\n                /* \"#utility.yul\":351:374   */\n              swap2\n              pop\n                /* \"#utility.yul\":115:380   */\n              pop\n                /* \"#utility.yul\":7:380   */\n              swap3\n              swap2\n              pop\n              pop\n              jump\t// out\n                /* \"#utility.yul\":386:752   */\n            tag_50:\n                /* \"#utility.yul\":528:531   */\n              0x00\n                /* \"#utility.yul\":549:616   */\n              tag_52\n                /* \"#utility.yul\":613:615   */\n              0x14\n                /* \"#utility.yul\":608:611   */\n              dup4\n                /* \"#utility.yul\":549:616   */\n              tag_53\n              jump\t// in\n            tag_52:\n                /* \"#utility.yul\":542:616   */\n              swap2\n              pop\n                /* \"#utility.yul\":625:718   */\n              tag_54\n                /* \"#utility.yul\":714:717   */\n              dup3\n                /* \"#utility.yul\":625:718   */\n              tag_55\n              jump\t// in\n            tag_54:\n                /* \"#utility.yul\":743:745   */\n              0x20\n                /* \"#utility.yul\":738:741   */\n              dup3\n                /* \"#utility.yul\":734:746   */\n              add\n                /* \"#utility.yul\":727:746   */\n              swap1\n              pop\n                /* \"#utility.yul\":386:752   */\n              swap2\n              swap1\n              pop\n              jump\t// out\n                /* \"#utility.yul\":758:1124   */\n            tag_56:\n                /* \"#utility.yul\":900:903   */\n              0x00\n                /* \"#utility.yul\":921:988   */\n              tag_58\n                /* \"#utility.yul\":985:987   */\n              0x1e\n                /* \"#utility.yul\":980:983   */\n              dup4\n                /* \"#utility.yul\":921:988   */\n              tag_53\n              jump\t// in\n            tag_58:\n                /* \"#utility.yul\":914:988   */\n              swap2\n              pop\n                /* \"#utility.yul\":997:1090   */\n              tag_59\n                /* \"#utility.yul\":1086:1089   */\n              dup3\n                /* \"#utility.yul\":997:1090   */\n              tag_60\n              jump\t// in\n            tag_59:\n                /* \"#utility.yul\":1115:1117   */\n              0x20\n                /* \"#utility.yul\":1110:1113   */\n              dup3\n                /* \"#utility.yul\":1106:1118   */\n              add\n                /* \"#utility.yul\":1099:1118   */\n              swap1\n              pop\n                /* \"#utility.yul\":758:1124   */\n              swap2\n              swap1\n              pop\n              jump\t// out\n                /* \"#utility.yul\":1130:1496   */\n            tag_61:\n                /* \"#utility.yul\":1272:1275   */\n              0x00\n                /* \"#utility.yul\":1293:1360   */\n              tag_63\n                /* \"#utility.yul\":1357:1359   */\n              0x1a\n                /* \"#utility.yul\":1352:1355   */\n              dup4\n                /* \"#utility.yul\":1293:1360   */\n              tag_53\n              jump\t// in\n            tag_63:\n                /* \"#utility.yul\":1286:1360   */\n              swap2\n              pop\n                /* \"#utility.yul\":1369:1462   */\n              tag_64\n                /* \"#utility.yul\":1458:1461   */\n              dup3\n                /* \"#utility.yul\":1369:1462   */\n              tag_65\n              jump\t// in\n            tag_64:\n                /* \"#utility.yul\":1487:1489   */\n              0x20\n                /* \"#utility.yul\":1482:1485   */\n              dup3\n                /* \"#utility.yul\":1478:1490   */\n              add\n                /* \"#utility.yul\":1471:1490   */\n              swap1\n              pop\n                /* \"#utility.yul\":1130:1496   */\n              swap2\n              swap1\n              pop\n              jump\t// out\n                /* \"#utility.yul\":1502:1620   */\n            tag_66:\n                /* \"#utility.yul\":1589:1613   */\n              tag_68\n                /* \"#utility.yul\":1607:1612   */\n              dup2\n                /* \"#utility.yul\":1589:1613   */\n              tag_69\n              jump\t// in\n            tag_68:\n                /* \"#utility.yul\":1584:1587   */\n              dup3\n                /* \"#utility.yul\":1577:1614   */\n              mstore\n                /* \"#utility.yul\":1502:1620   */\n              pop\n              pop\n              jump\t// out\n                /* \"#utility.yul\":1626:1897   */\n            tag_19:\n                /* \"#utility.yul\":1756:1759   */\n              0x00\n                /* \"#utility.yul\":1778:1871   */\n              tag_71\n                /* \"#utility.yul\":1867:1870   */\n              dup3\n                /* \"#utility.yul\":1858:1864   */\n              dup5\n                /* \"#utility.yul\":1778:1871   */\n              tag_42\n              jump\t// in\n            tag_71:\n                /* \"#utility.yul\":1771:1871   */\n              swap2\n              pop\n                /* \"#utility.yul\":1888:1891   */\n              dup2\n                /* \"#utility.yul\":1881:1891   */\n              swap1\n              pop\n                /* \"#utility.yul\":1626:1897   */\n              swap3\n              swap2\n              pop\n              pop\n              jump\t// out\n                /* \"#utility.yul\":1903:2322   */\n            tag_10:\n                /* \"#utility.yul\":2069:2073   */\n              0x00\n                /* \"#utility.yul\":2107:2109   */\n              0x20\n                /* \"#utility.yul\":2096:2105   */\n              dup3\n                /* \"#utility.yul\":2092:2110   */\n              add\n                /* \"#utility.yul\":2084:2110   */\n              swap1\n              pop\n                /* \"#utility.yul\":2156:2165   */\n              dup2\n                /* \"#utility.yul\":2150:2154   */\n              dup2\n                /* \"#utility.yul\":2146:2166   */\n              sub\n                /* \"#utility.yul\":2142:2143   */\n              0x00\n                /* \"#utility.yul\":2131:2140   */\n              dup4\n                /* \"#utility.yul\":2127:2144   */\n              add\n                /* \"#utility.yul\":2120:2167   */\n              mstore\n                /* \"#utility.yul\":2184:2315   */\n              tag_73\n                /* \"#utility.yul\":2310:2314   */\n              dup2\n                /* \"#utility.yul\":2184:2315   */\n              tag_50\n              jump\t// in\n            tag_73:\n                /* \"#utility.yul\":2176:2315   */\n              swap1\n              pop\n                /* \"#utility.yul\":1903:2322   */\n              swap2\n              swap1\n              pop\n              jump\t// out\n                /* \"#utility.yul\":2328:2747   */\n            tag_25:\n                /* \"#utility.yul\":2494:2498   */\n              0x00\n                /* \"#utility.yul\":2532:2534   */\n              0x20\n                /* \"#utility.yul\":2521:2530   */\n              dup3\n                /* \"#utility.yul\":2517:2535   */\n              add\n                /* \"#utility.yul\":2509:2535   */\n              swap1\n              pop\n                /* \"#utility.yul\":2581:2590   */\n              dup2\n                /* \"#utility.yul\":2575:2579   */\n              dup2\n                /* \"#utility.yul\":2571:2591   */\n              sub\n                /* \"#utility.yul\":2567:2568   */\n              0x00\n                /* \"#utility.yul\":2556:2565   */\n              dup4\n                /* \"#utility.yul\":2552:2569   */\n              add\n                /* \"#utility.yul\":2545:2592   */\n              mstore\n                /* \"#utility.yul\":2609:2740   */\n              tag_75\n                /* \"#utility.yul\":2735:2739   */\n              dup2\n                /* \"#utility.yul\":2609:2740   */\n              tag_56\n              jump\t// in\n            tag_75:\n                /* \"#utility.yul\":2601:2740   */\n              swap1\n              pop\n                /* \"#utility.yul\":2328:2747   */\n              swap2\n              swap1\n              pop\n              jump\t// out\n                /* \"#utility.yul\":2753:3172   */\n            tag_13:\n                /* \"#utility.yul\":2919:2923   */\n              0x00\n                /* \"#utility.yul\":2957:2959   */\n              0x20\n                /* \"#utility.yul\":2946:2955   */\n              dup3\n                /* \"#utility.yul\":2942:2960   */\n              add\n                /* \"#utility.yul\":2934:2960   */\n              swap1\n              pop\n                /* \"#utility.yul\":3006:3015   */\n              dup2\n                /* \"#utility.yul\":3000:3004   */\n              dup2\n                /* \"#utility.yul\":2996:3016   */\n              sub\n                /* \"#utility.yul\":2992:2993   */\n              0x00\n                /* \"#utility.yul\":2981:2990   */\n              dup4\n                /* \"#utility.yul\":2977:2994   */\n              add\n                /* \"#utility.yul\":2970:3017   */\n              mstore\n                /* \"#utility.yul\":3034:3165   */\n              tag_77\n                /* \"#utility.yul\":3160:3164   */\n              dup2\n                /* \"#utility.yul\":3034:3165   */\n              tag_61\n              jump\t// in\n            tag_77:\n                /* \"#utility.yul\":3026:3165   */\n              swap1\n              pop\n                /* \"#utility.yul\":2753:3172   */\n              swap2\n              swap1\n              pop\n              jump\t// out\n                /* \"#utility.yul\":3178:3400   */\n            tag_17:\n                /* \"#utility.yul\":3271:3275   */\n              0x00\n                /* \"#utility.yul\":3309:3311   */\n              0x20\n                /* \"#utility.yul\":3298:3307   */\n              dup3\n                /* \"#utility.yul\":3294:3312   */\n              add\n                /* \"#utility.yul\":3286:3312   */\n              swap1\n              pop\n                /* \"#utility.yul\":3322:3393   */\n              tag_79\n                /* \"#utility.yul\":3390:3391   */\n              0x00\n                /* \"#utility.yul\":3379:3388   */\n              dup4\n                /* \"#utility.yul\":3375:3392   */\n              add\n                /* \"#utility.yul\":3366:3372   */\n              dup5\n                /* \"#utility.yul\":3322:3393   */\n              tag_66\n              jump\t// in\n            tag_79:\n                /* \"#utility.yul\":3178:3400   */\n              swap3\n              swap2\n              pop\n              pop\n              jump\t// out\n                /* \"#utility.yul\":3406:3504   */\n            tag_45:\n                /* \"#utility.yul\":3457:3463   */\n              0x00\n                /* \"#utility.yul\":3491:3496   */\n              dup2\n                /* \"#utility.yul\":3485:3497   */\n              mload\n                /* \"#utility.yul\":3475:3497   */\n              swap1\n              pop\n                /* \"#utility.yul\":3406:3504   */\n              swap2\n              swap1\n              pop\n              jump\t// out\n                /* \"#utility.yul\":3510:3657   */\n            tag_47:\n                /* \"#utility.yul\":3611:3622   */\n              0x00\n                /* \"#utility.yul\":3648:3651   */\n              dup2\n                /* \"#utility.yul\":3633:3651   */\n              swap1\n              pop\n                /* \"#utility.yul\":3510:3657   */\n              swap3\n              swap2\n              pop\n              pop\n              jump\t// out\n                /* \"#utility.yul\":3663:3832   */\n            tag_53:\n                /* \"#utility.yul\":3747:3758   */\n              0x00\n                /* \"#utility.yul\":3781:3787   */\n              dup3\n                /* \"#utility.yul\":3776:3779   */\n              dup3\n                /* \"#utility.yul\":3769:3788   */\n              mstore\n                /* \"#utility.yul\":3821:3825   */\n              0x20\n                /* \"#utility.yul\":3816:3819   */\n              dup3\n                /* \"#utility.yul\":3812:3826   */\n              add\n                /* \"#utility.yul\":3797:3826   */\n              swap1\n              pop\n                /* \"#utility.yul\":3663:3832   */\n              swap3\n              swap2\n              pop\n              pop\n              jump\t// out\n                /* \"#utility.yul\":3838:4143   */\n            tag_15:\n                /* \"#utility.yul\":3878:3881   */\n              0x00\n                /* \"#utility.yul\":3897:3917   */\n              tag_84\n                /* \"#utility.yul\":3915:3916   */\n              dup3\n                /* \"#utility.yul\":3897:3917   */\n              tag_69\n              jump\t// in\n            tag_84:\n                /* \"#utility.yul\":3892:3917   */\n              swap2\n              pop\n                /* \"#utility.yul\":3931:3951   */\n              tag_85\n                /* \"#utility.yul\":3949:3950   */\n              dup4\n                /* \"#utility.yul\":3931:3951   */\n              tag_69\n              jump\t// in\n            tag_85:\n                /* \"#utility.yul\":3926:3951   */\n              swap3\n              pop\n                /* \"#utility.yul\":4085:4086   */\n              dup3\n                /* \"#utility.yul\":4017:4083   */\n              0xffffffffffffffffffffffffffffffffffffffffffffffffffffffffffffffff\n                /* \"#utility.yul\":4013:4087   */\n              sub\n                /* \"#utility.yul\":4010:4011   */\n              dup3\n                /* \"#utility.yul\":4007:4088   */\n              gt\n                /* \"#utility.yul\":4004:4111   */\n              iszero\n              tag_86\n              jumpi\n                /* \"#utility.yul\":4091:4109   */\n              tag_87\n              tag_88\n              jump\t// in\n            tag_87:\n                /* \"#utility.yul\":4004:4111   */\n            tag_86:\n                /* \"#utility.yul\":4135:4136   */\n              dup3\n                /* \"#utility.yul\":4132:4133   */\n              dup3\n                /* \"#utility.yul\":4128:4137   */\n              add\n                /* \"#utility.yul\":4121:4137   */\n              swap1\n              pop\n                /* \"#utility.yul\":3838:4143   */\n              swap3\n              swap2\n              pop\n              pop\n              jump\t// out\n                /* \"#utility.yul\":4149:4226   */\n            tag_69:\n                /* \"#utility.yul\":4186:4193   */\n              0x00\n                /* \"#utility.yul\":4215:4220   */\n              dup2\n                /* \"#utility.yul\":4204:4220   */\n              swap1\n              pop\n                /* \"#utility.yul\":4149:4226   */\n              swap2\n              swap1\n              pop\n              jump\t// out\n                /* \"#utility.yul\":4232:4539   */\n            tag_49:\n                /* \"#utility.yul\":4300:4301   */\n              0x00\n                /* \"#utility.yul\":4310:4423   */\n            tag_91:\n                /* \"#utility.yul\":4324:4330   */\n              dup4\n                /* \"#utility.yul\":4321:4322   */\n              dup2\n                /* \"#utility.yul\":4318:4331   */\n              lt\n                /* \"#utility.yul\":4310:4423   */\n              iszero\n              tag_93\n              jumpi\n                /* \"#utility.yul\":4409:4410   */\n              dup1\n                /* \"#utility.yul\":4404:4407   */\n              dup3\n                /* \"#utility.yul\":4400:4411   */\n              add\n                /* \"#utility.yul\":4394:4412   */\n              mload\n                /* \"#utility.yul\":4390:4391   */\n              dup2\n                /* \"#utility.yul\":4385:4388   */\n              dup5\n                /* \"#utility.yul\":4381:4392   */\n              add\n                /* \"#utility.yul\":4374:4413   */\n              mstore\n                /* \"#utility.yul\":4346:4348   */\n              0x20\n                /* \"#utility.yul\":4343:4344   */\n              dup2\n                /* \"#utility.yul\":4339:4349   */\n              add\n                /* \"#utility.yul\":4334:4349   */\n              swap1\n              pop\n                /* \"#utility.yul\":4310:4423   */\n              jump(tag_91)\n            tag_93:\n                /* \"#utility.yul\":4441:4447   */\n              dup4\n                /* \"#utility.yul\":4438:4439   */\n              dup2\n                /* \"#utility.yul\":4435:4448   */\n              gt\n                /* \"#utility.yul\":4432:4533   */\n              iszero\n              tag_94\n              jumpi\n                /* \"#utility.yul\":4521:4522   */\n              0x00\n                /* \"#utility.yul\":4512:4518   */\n              dup5\n                /* \"#utility.yul\":4507:4510   */\n              dup5\n                /* \"#utility.yul\":4503:4519   */\n              add\n                /* \"#utility.yul\":4496:4523   */\n              mstore\n                /* \"#utility.yul\":4432:4533   */\n            tag_94:\n                /* \"#utility.yul\":4281:4539   */\n              pop\n                /* \"#utility.yul\":4232:4539   */\n              pop\n              pop\n              pop\n              jump\t// out\n                /* \"#utility.yul\":4545:4725   */\n            tag_88:\n                /* \"#utility.yul\":4593:4670   */\n              0x4e487b7100000000000000000000000000000000000000000000000000000000\n                /* \"#utility.yul\":4590:4591   */\n              0x00\n                /* \"#utility.yul\":4583:4671   */\n              mstore\n                /* \"#utility.yul\":4690:4694   */\n              0x11\n                /* \"#utility.yul\":4687:4688   */\n              0x04\n                /* \"#utility.yul\":4680:4695   */\n              mstore\n                /* \"#utility.yul\":4714:4718   */\n              0x24\n                /* \"#utility.yul\":4711:4712   */\n              0x00\n                /* \"#utility.yul\":4704:4719   */\n              revert\n                /* \"#utility.yul\":4731:4901   */\n            tag_55:\n                /* \"#utility.yul\":4871:4893   */\n              0x4974656d206973207061696420616c7265616479000000000000000000000000\n                /* \"#utility.yul\":4867:4868   */\n              0x00\n                /* \"#utility.yul\":4859:4865   */\n              dup3\n                /* \"#utility.yul\":4855:4869   */\n              add\n                /* \"#utility.yul\":4848:4894   */\n              mstore\n                /* \"#utility.yul\":4731:4901   */\n              pop\n              jump\t// out\n                /* \"#utility.yul\":4907:5087   */\n            tag_60:\n                /* \"#utility.yul\":5047:5079   */\n              0x7472616e73616374696f6e20776173206e6f74207375636365737366756c0000\n                /* \"#utility.yul\":5043:5044   */\n              0x00\n                /* \"#utility.yul\":5035:5041   */\n              dup3\n                /* \"#utility.yul\":5031:5045   */\n              add\n                /* \"#utility.yul\":5024:5080   */\n              mstore\n                /* \"#utility.yul\":4907:5087   */\n              pop\n              jump\t// out\n                /* \"#utility.yul\":5093:5269   */\n            tag_65:\n                /* \"#utility.yul\":5233:5261   */\n              0x4f6e6c792066756c6c207061796d656e747320616c6c6f776564000000000000\n                /* \"#utility.yul\":5229:5230   */\n              0x00\n                /* \"#utility.yul\":5221:5227   */\n              dup3\n                /* \"#utility.yul\":5217:5231   */\n              add\n                /* \"#utility.yul\":5210:5262   */\n              mstore\n                /* \"#utility.yul\":5093:5269   */\n              pop\n              jump\t// out\n\n            auxdata: 0xa2646970667358221220bdf7a550261c6c018a4bb42a39b472fba44125b08278c3f8e5b07ea5c2ae3b3064736f6c63430008070033\n        }\n    }\n\n    auxdata: 0xa2646970667358221220edaa2d751fc69e611dde0b22042c439e77f8d665899f1945381b00d4bcc09d7c64736f6c63430008070033\n}\n",
				"bytecode": {
					"linkReferences": {},
					"object": "608060405234801561001057600080fd5b50336000806101000a81548173ffffffffffffffffffffffffffffffffffffffff021916908373ffffffffffffffffffffffffffffffffffffffff1602179055506116c4806100606000396000f3fe608060405260043610620000505760003560e01c8063800fb83f14620000555780638c55174214620000755780638f32d59b14620000a3578063bfb231d214620000d3578063cd31831e146200011a575b600080fd5b6200007360048036038101906200006d919062000914565b62000148565b005b3480156200008257600080fd5b50620000a160048036038101906200009b9190620008ae565b620002d1565b005b348015620000b057600080fd5b50620000bb620004ac565b604051620000ca919062000a51565b60405180910390f35b348015620000e057600080fd5b50620000ff6004803603810190620000f9919062000914565b62000502565b60405162000111949392919062000aab565b60405180910390f35b3480156200012757600080fd5b5062000146600480360381019062000140919062000914565b620005e2565b005b34600160008381526020019081526020016000206002015414620001a3576040517f08c379a00000000000000000000000000000000000000000000000000000000081526004016200019a9062000b21565b60405180910390fd5b60006002811115620001ba57620001b962000df9565b5b60016000838152602001908152602001600020600301541462000214576040517f08c379a00000000000000000000000000000000000000000000000000000000081526004016200020b9062000aff565b60405180910390fd5b600160028111156200022b576200022a62000df9565b5b60016000838152602001908152602001600020600301819055507fa4035636e99f06b7651a604c1019fa4e8779fe68ef27eeb74dff2de348f6199b8160016000848152602001908152602001600020600301546001600085815260200190815260200160002060000160009054906101000a900473ffffffffffffffffffffffffffffffffffffffff16604051620002c69392919062000b65565b60405180910390a150565b620002db620004ac565b6200031d576040517f08c379a0000000000000000000000000000000000000000000000000000000008152600401620003149062000b43565b60405180910390fd5b6000308260025460405162000332906200075b565b620003409392919062000a6e565b604051809103906000f0801580156200035d573d6000803e3d6000fd5b5090508060016000600254815260200190815260200160002060000160006101000a81548173ffffffffffffffffffffffffffffffffffffffff021916908373ffffffffffffffffffffffffffffffffffffffff160217905550826001600060025481526020019081526020016000206001019080519060200190620003e592919062000769565b508160016000600254815260200190815260200160002060020181905550600060028111156200041a576200041962000df9565b5b600160006002548152602001908152602001600020600301819055507fa4035636e99f06b7651a604c1019fa4e8779fe68ef27eeb74dff2de348f6199b6002546001600060025481526020019081526020016000206003015483604051620004859392919062000b65565b60405180910390a160026000815480929190620004a29062000d7c565b9190505550505050565b60003373ffffffffffffffffffffffffffffffffffffffff1660008054906101000a900473ffffffffffffffffffffffffffffffffffffffff1673ffffffffffffffffffffffffffffffffffffffff1614905090565b60016020528060005260406000206000915090508060000160009054906101000a900473ffffffffffffffffffffffffffffffffffffffff16908060010180546200054d9062000d10565b80601f01602080910402602001604051908101604052809291908181526020018280546200057b9062000d10565b8015620005cc5780601f10620005a057610100808354040283529160200191620005cc565b820191906000526020600020905b815481529060010190602001808311620005ae57829003601f168201915b5050505050908060020154908060030154905084565b620005ec620004ac565b6200062e576040517f08c379a0000000000000000000000000000000000000000000000000000000008152600401620006259062000b43565b60405180910390fd5b6001600281111562000645576200064462000df9565b5b6001600083815260200190815260200160002060030154146200069f576040517f08c379a0000000000000000000000000000000000000000000000000000000008152600401620006969062000aff565b60405180910390fd5b600280811115620006b557620006b462000df9565b5b60016000838152602001908152602001600020600301819055507fa4035636e99f06b7651a604c1019fa4e8779fe68ef27eeb74dff2de348f6199b8160016000848152602001908152602001600020600301546001600085815260200190815260200160002060000160009054906101000a900473ffffffffffffffffffffffffffffffffffffffff16604051620007509392919062000b65565b60405180910390a150565b61074e8062000f4183390190565b828054620007779062000d10565b90600052602060002090601f0160209004810192826200079b5760008555620007e7565b82601f10620007b657805160ff1916838001178555620007e7565b82800160010185558215620007e7579182015b82811115620007e6578251825591602001919060010190620007c9565b5b509050620007f69190620007fa565b5090565b5b8082111562000815576000816000905550600101620007fb565b5090565b6000620008306200082a8462000bcb565b62000ba2565b9050828152602081018484840111156200084f576200084e62000e8b565b5b6200085c84828562000ccb565b509392505050565b600082601f8301126200087c576200087b62000e86565b5b81356200088e84826020860162000819565b91505092915050565b600081359050620008a88162000f26565b92915050565b60008060408385031215620008c857620008c762000e95565b5b600083013567ffffffffffffffff811115620008e957620008e862000e90565b5b620008f78582860162000864565b92505060206200090a8582860162000897565b9150509250929050565b6000602082840312156200092d576200092c62000e95565b5b60006200093d8482850162000897565b91505092915050565b620009518162000c1d565b82525050565b620009628162000c31565b82525050565b620009738162000c67565b82525050565b620009848162000c7b565b82525050565b6000620009978262000c01565b620009a3818562000c0c565b9350620009b581856020860162000cda565b620009c08162000e9a565b840191505092915050565b6000620009da601c8362000c0c565b9150620009e78262000eab565b602082019050919050565b600062000a01601b8362000c0c565b915062000a0e8262000ed4565b602082019050919050565b600062000a2860158362000c0c565b915062000a358262000efd565b602082019050919050565b62000a4b8162000c5d565b82525050565b600060208201905062000a68600083018462000957565b92915050565b600060608201905062000a85600083018662000968565b62000a94602083018562000a40565b62000aa3604083018462000a40565b949350505050565b600060808201905062000ac2600083018762000979565b818103602083015262000ad681866200098a565b905062000ae7604083018562000a40565b62000af6606083018462000a40565b95945050505050565b6000602082019050818103600083015262000b1a81620009cb565b9050919050565b6000602082019050818103600083015262000b3c81620009f2565b9050919050565b6000602082019050818103600083015262000b5e8162000a19565b9050919050565b600060608201905062000b7c600083018662000a40565b62000b8b602083018562000a40565b62000b9a604083018462000946565b949350505050565b600062000bae62000bc1565b905062000bbc828262000d46565b919050565b6000604051905090565b600067ffffffffffffffff82111562000be95762000be862000e57565b5b62000bf48262000e9a565b9050602081019050919050565b600081519050919050565b600082825260208201905092915050565b600062000c2a8262000c3d565b9050919050565b60008115159050919050565b600073ffffffffffffffffffffffffffffffffffffffff82169050919050565b6000819050919050565b600062000c748262000c8f565b9050919050565b600062000c888262000ca3565b9050919050565b600062000c9c8262000cb7565b9050919050565b600062000cb08262000cb7565b9050919050565b600062000cc48262000c3d565b9050919050565b82818337600083830152505050565b60005b8381101562000cfa57808201518184015260208101905062000cdd565b8381111562000d0a576000848401525b50505050565b6000600282049050600182168062000d2957607f821691505b6020821081141562000d405762000d3f62000e28565b5b50919050565b62000d518262000e9a565b810181811067ffffffffffffffff8211171562000d735762000d7262000e57565b5b80604052505050565b600062000d898262000c5d565b91507fffffffffffffffffffffffffffffffffffffffffffffffffffffffffffffffff82141562000dbf5762000dbe62000dca565b5b600182019050919050565b7f4e487b7100000000000000000000000000000000000000000000000000000000600052601160045260246000fd5b7f4e487b7100000000000000000000000000000000000000000000000000000000600052602160045260246000fd5b7f4e487b7100000000000000000000000000000000000000000000000000000000600052602260045260246000fd5b7f4e487b7100000000000000000000000000000000000000000000000000000000600052604160045260246000fd5b600080fd5b600080fd5b600080fd5b600080fd5b6000601f19601f8301169050919050565b7f4974656d206973206675727468657220696e2074686520636861696e00000000600082015250565b7f4f6e6c792066756c6c207061796d656e74732061636365707465640000000000600082015250565b7f796f7520617265206e6f7420746865206f776e65720000000000000000000000600082015250565b62000f318162000c5d565b811462000f3d57600080fd5b5056fe608060405234801561001057600080fd5b5060405161074e38038061074e833981810160405281019061003291906100b3565b82600360006101000a81548173ffffffffffffffffffffffffffffffffffffffff021916908373ffffffffffffffffffffffffffffffffffffffff1602179055508160008190555080600281905550505050610187565b60008151905061009881610159565b92915050565b6000815190506100ad81610170565b92915050565b6000806000606084860312156100cc576100cb610154565b5b60006100da86828701610089565b93505060206100eb8682870161009e565b92505060406100fc8682870161009e565b9150509250925092565b60006101118261012a565b9050919050565b600061012382610106565b9050919050565b600073ffffffffffffffffffffffffffffffffffffffff82169050919050565b6000819050919050565b600080fd5b61016281610118565b811461016d57600080fd5b50565b6101798161014a565b811461018457600080fd5b50565b6105b8806101966000396000f3fe6080604052600436106100385760003560e01c80633c8da5881461025057806389794d001461027b578063e07bb1a7146102a657610241565b3661024157600060015414610082576040517f08c379a0000000000000000000000000000000000000000000000000000000008152600401610079906103a3565b60405180910390fd5b34600054146100c6576040517f08c379a00000000000000000000000000000000000000000000000000000000081526004016100bd906103e3565b60405180910390fd5b34600160008282546100d89190610445565b925050819055506000600360009054906101000a900473ffffffffffffffffffffffffffffffffffffffff1673ffffffffffffffffffffffffffffffffffffffff163460025460405160240161012e9190610403565b6040516020818303038152906040527f800fb83f000000000000000000000000000000000000000000000000000000007bffffffffffffffffffffffffffffffffffffffffffffffffffffffff19166020820180517bffffffffffffffffffffffffffffffffffffffffffffffffffffffff83818316178352505050506040516101b8919061038c565b60006040518083038185875af1925050503d80600081146101f5576040519150601f19603f3d011682016040523d82523d6000602084013e6101fa565b606091505b505090508061023e576040517f08c379a0000000000000000000000000000000000000000000000000000000008152600401610235906103c3565b60405180910390fd5b50005b34801561024d57600080fd5b50005b34801561025c57600080fd5b506102656102d1565b6040516102729190610403565b60405180910390f35b34801561028757600080fd5b506102906102d7565b60405161029d9190610403565b60405180910390f35b3480156102b257600080fd5b506102bb6102dd565b6040516102c89190610403565b60405180910390f35b60005481565b60015481565b60025481565b60006102ee8261041e565b6102f88185610429565b93506103088185602086016104a5565b80840191505092915050565b6000610321601483610434565b915061032c82610507565b602082019050919050565b6000610344601e83610434565b915061034f82610530565b602082019050919050565b6000610367601a83610434565b915061037282610559565b602082019050919050565b6103868161049b565b82525050565b600061039882846102e3565b915081905092915050565b600060208201905081810360008301526103bc81610314565b9050919050565b600060208201905081810360008301526103dc81610337565b9050919050565b600060208201905081810360008301526103fc8161035a565b9050919050565b6000602082019050610418600083018461037d565b92915050565b600081519050919050565b600081905092915050565b600082825260208201905092915050565b60006104508261049b565b915061045b8361049b565b9250827fffffffffffffffffffffffffffffffffffffffffffffffffffffffffffffffff038211156104905761048f6104d8565b5b828201905092915050565b6000819050919050565b60005b838110156104c35780820151818401526020810190506104a8565b838111156104d2576000848401525b50505050565b7f4e487b7100000000000000000000000000000000000000000000000000000000600052601160045260246000fd5b7f4974656d206973207061696420616c7265616479000000000000000000000000600082015250565b7f7472616e73616374696f6e20776173206e6f74207375636365737366756c0000600082015250565b7f4f6e6c792066756c6c207061796d656e747320616c6c6f77656400000000000060008201525056fea2646970667358221220bdf7a550261c6c018a4bb42a39b472fba44125b08278c3f8e5b07ea5c2ae3b3064736f6c63430008070033a2646970667358221220edaa2d751fc69e611dde0b22042c439e77f8d665899f1945381b00d4bcc09d7c64736f6c63430008070033",
					"opcodes": "PUSH1 0x80 PUSH1 0x40 MSTORE CALLVALUE DUP1 ISZERO PUSH2 0x10 JUMPI PUSH1 0x0 DUP1 REVERT JUMPDEST POP CALLER PUSH1 0x0 DUP1 PUSH2 0x100 EXP DUP2 SLOAD DUP2 PUSH20 0xFFFFFFFFFFFFFFFFFFFFFFFFFFFFFFFFFFFFFFFF MUL NOT AND SWAP1 DUP4 PUSH20 0xFFFFFFFFFFFFFFFFFFFFFFFFFFFFFFFFFFFFFFFF AND MUL OR SWAP1 SSTORE POP PUSH2 0x16C4 DUP1 PUSH2 0x60 PUSH1 0x0 CODECOPY PUSH1 0x0 RETURN INVALID PUSH1 0x80 PUSH1 0x40 MSTORE PUSH1 0x4 CALLDATASIZE LT PUSH3 0x50 JUMPI PUSH1 0x0 CALLDATALOAD PUSH1 0xE0 SHR DUP1 PUSH4 0x800FB83F EQ PUSH3 0x55 JUMPI DUP1 PUSH4 0x8C551742 EQ PUSH3 0x75 JUMPI DUP1 PUSH4 0x8F32D59B EQ PUSH3 0xA3 JUMPI DUP1 PUSH4 0xBFB231D2 EQ PUSH3 0xD3 JUMPI DUP1 PUSH4 0xCD31831E EQ PUSH3 0x11A JUMPI JUMPDEST PUSH1 0x0 DUP1 REVERT JUMPDEST PUSH3 0x73 PUSH1 0x4 DUP1 CALLDATASIZE SUB DUP2 ADD SWAP1 PUSH3 0x6D SWAP2 SWAP1 PUSH3 0x914 JUMP JUMPDEST PUSH3 0x148 JUMP JUMPDEST STOP JUMPDEST CALLVALUE DUP1 ISZERO PUSH3 0x82 JUMPI PUSH1 0x0 DUP1 REVERT JUMPDEST POP PUSH3 0xA1 PUSH1 0x4 DUP1 CALLDATASIZE SUB DUP2 ADD SWAP1 PUSH3 0x9B SWAP2 SWAP1 PUSH3 0x8AE JUMP JUMPDEST PUSH3 0x2D1 JUMP JUMPDEST STOP JUMPDEST CALLVALUE DUP1 ISZERO PUSH3 0xB0 JUMPI PUSH1 0x0 DUP1 REVERT JUMPDEST POP PUSH3 0xBB PUSH3 0x4AC JUMP JUMPDEST PUSH1 0x40 MLOAD PUSH3 0xCA SWAP2 SWAP1 PUSH3 0xA51 JUMP JUMPDEST PUSH1 0x40 MLOAD DUP1 SWAP2 SUB SWAP1 RETURN JUMPDEST CALLVALUE DUP1 ISZERO PUSH3 0xE0 JUMPI PUSH1 0x0 DUP1 REVERT JUMPDEST POP PUSH3 0xFF PUSH1 0x4 DUP1 CALLDATASIZE SUB DUP2 ADD SWAP1 PUSH3 0xF9 SWAP2 SWAP1 PUSH3 0x914 JUMP JUMPDEST PUSH3 0x502 JUMP JUMPDEST PUSH1 0x40 MLOAD PUSH3 0x111 SWAP5 SWAP4 SWAP3 SWAP2 SWAP1 PUSH3 0xAAB JUMP JUMPDEST PUSH1 0x40 MLOAD DUP1 SWAP2 SUB SWAP1 RETURN JUMPDEST CALLVALUE DUP1 ISZERO PUSH3 0x127 JUMPI PUSH1 0x0 DUP1 REVERT JUMPDEST POP PUSH3 0x146 PUSH1 0x4 DUP1 CALLDATASIZE SUB DUP2 ADD SWAP1 PUSH3 0x140 SWAP2 SWAP1 PUSH3 0x914 JUMP JUMPDEST PUSH3 0x5E2 JUMP JUMPDEST STOP JUMPDEST CALLVALUE PUSH1 0x1 PUSH1 0x0 DUP4 DUP2 MSTORE PUSH1 0x20 ADD SWAP1 DUP2 MSTORE PUSH1 0x20 ADD PUSH1 0x0 KECCAK256 PUSH1 0x2 ADD SLOAD EQ PUSH3 0x1A3 JUMPI PUSH1 0x40 MLOAD PUSH32 0x8C379A000000000000000000000000000000000000000000000000000000000 DUP2 MSTORE PUSH1 0x4 ADD PUSH3 0x19A SWAP1 PUSH3 0xB21 JUMP JUMPDEST PUSH1 0x40 MLOAD DUP1 SWAP2 SUB SWAP1 REVERT JUMPDEST PUSH1 0x0 PUSH1 0x2 DUP2 GT ISZERO PUSH3 0x1BA JUMPI PUSH3 0x1B9 PUSH3 0xDF9 JUMP JUMPDEST JUMPDEST PUSH1 0x1 PUSH1 0x0 DUP4 DUP2 MSTORE PUSH1 0x20 ADD SWAP1 DUP2 MSTORE PUSH1 0x20 ADD PUSH1 0x0 KECCAK256 PUSH1 0x3 ADD SLOAD EQ PUSH3 0x214 JUMPI PUSH1 0x40 MLOAD PUSH32 0x8C379A000000000000000000000000000000000000000000000000000000000 DUP2 MSTORE PUSH1 0x4 ADD PUSH3 0x20B SWAP1 PUSH3 0xAFF JUMP JUMPDEST PUSH1 0x40 MLOAD DUP1 SWAP2 SUB SWAP1 REVERT JUMPDEST PUSH1 0x1 PUSH1 0x2 DUP2 GT ISZERO PUSH3 0x22B JUMPI PUSH3 0x22A PUSH3 0xDF9 JUMP JUMPDEST JUMPDEST PUSH1 0x1 PUSH1 0x0 DUP4 DUP2 MSTORE PUSH1 0x20 ADD SWAP1 DUP2 MSTORE PUSH1 0x20 ADD PUSH1 0x0 KECCAK256 PUSH1 0x3 ADD DUP2 SWAP1 SSTORE POP PUSH32 0xA4035636E99F06B7651A604C1019FA4E8779FE68EF27EEB74DFF2DE348F6199B DUP2 PUSH1 0x1 PUSH1 0x0 DUP5 DUP2 MSTORE PUSH1 0x20 ADD SWAP1 DUP2 MSTORE PUSH1 0x20 ADD PUSH1 0x0 KECCAK256 PUSH1 0x3 ADD SLOAD PUSH1 0x1 PUSH1 0x0 DUP6 DUP2 MSTORE PUSH1 0x20 ADD SWAP1 DUP2 MSTORE PUSH1 0x20 ADD PUSH1 0x0 KECCAK256 PUSH1 0x0 ADD PUSH1 0x0 SWAP1 SLOAD SWAP1 PUSH2 0x100 EXP SWAP1 DIV PUSH20 0xFFFFFFFFFFFFFFFFFFFFFFFFFFFFFFFFFFFFFFFF AND PUSH1 0x40 MLOAD PUSH3 0x2C6 SWAP4 SWAP3 SWAP2 SWAP1 PUSH3 0xB65 JUMP JUMPDEST PUSH1 0x40 MLOAD DUP1 SWAP2 SUB SWAP1 LOG1 POP JUMP JUMPDEST PUSH3 0x2DB PUSH3 0x4AC JUMP JUMPDEST PUSH3 0x31D JUMPI PUSH1 0x40 MLOAD PUSH32 0x8C379A000000000000000000000000000000000000000000000000000000000 DUP2 MSTORE PUSH1 0x4 ADD PUSH3 0x314 SWAP1 PUSH3 0xB43 JUMP JUMPDEST PUSH1 0x40 MLOAD DUP1 SWAP2 SUB SWAP1 REVERT JUMPDEST PUSH1 0x0 ADDRESS DUP3 PUSH1 0x2 SLOAD PUSH1 0x40 MLOAD PUSH3 0x332 SWAP1 PUSH3 0x75B JUMP JUMPDEST PUSH3 0x340 SWAP4 SWAP3 SWAP2 SWAP1 PUSH3 0xA6E JUMP JUMPDEST PUSH1 0x40 MLOAD DUP1 SWAP2 SUB SWAP1 PUSH1 0x0 CREATE DUP1 ISZERO DUP1 ISZERO PUSH3 0x35D JUMPI RETURNDATASIZE PUSH1 0x0 DUP1 RETURNDATACOPY RETURNDATASIZE PUSH1 0x0 REVERT JUMPDEST POP SWAP1 POP DUP1 PUSH1 0x1 PUSH1 0x0 PUSH1 0x2 SLOAD DUP2 MSTORE PUSH1 0x20 ADD SWAP1 DUP2 MSTORE PUSH1 0x20 ADD PUSH1 0x0 KECCAK256 PUSH1 0x0 ADD PUSH1 0x0 PUSH2 0x100 EXP DUP2 SLOAD DUP2 PUSH20 0xFFFFFFFFFFFFFFFFFFFFFFFFFFFFFFFFFFFFFFFF MUL NOT AND SWAP1 DUP4 PUSH20 0xFFFFFFFFFFFFFFFFFFFFFFFFFFFFFFFFFFFFFFFF AND MUL OR SWAP1 SSTORE POP DUP3 PUSH1 0x1 PUSH1 0x0 PUSH1 0x2 SLOAD DUP2 MSTORE PUSH1 0x20 ADD SWAP1 DUP2 MSTORE PUSH1 0x20 ADD PUSH1 0x0 KECCAK256 PUSH1 0x1 ADD SWAP1 DUP1 MLOAD SWAP1 PUSH1 0x20 ADD SWAP1 PUSH3 0x3E5 SWAP3 SWAP2 SWAP1 PUSH3 0x769 JUMP JUMPDEST POP DUP2 PUSH1 0x1 PUSH1 0x0 PUSH1 0x2 SLOAD DUP2 MSTORE PUSH1 0x20 ADD SWAP1 DUP2 MSTORE PUSH1 0x20 ADD PUSH1 0x0 KECCAK256 PUSH1 0x2 ADD DUP2 SWAP1 SSTORE POP PUSH1 0x0 PUSH1 0x2 DUP2 GT ISZERO PUSH3 0x41A JUMPI PUSH3 0x419 PUSH3 0xDF9 JUMP JUMPDEST JUMPDEST PUSH1 0x1 PUSH1 0x0 PUSH1 0x2 SLOAD DUP2 MSTORE PUSH1 0x20 ADD SWAP1 DUP2 MSTORE PUSH1 0x20 ADD PUSH1 0x0 KECCAK256 PUSH1 0x3 ADD DUP2 SWAP1 SSTORE POP PUSH32 0xA4035636E99F06B7651A604C1019FA4E8779FE68EF27EEB74DFF2DE348F6199B PUSH1 0x2 SLOAD PUSH1 0x1 PUSH1 0x0 PUSH1 0x2 SLOAD DUP2 MSTORE PUSH1 0x20 ADD SWAP1 DUP2 MSTORE PUSH1 0x20 ADD PUSH1 0x0 KECCAK256 PUSH1 0x3 ADD SLOAD DUP4 PUSH1 0x40 MLOAD PUSH3 0x485 SWAP4 SWAP3 SWAP2 SWAP1 PUSH3 0xB65 JUMP JUMPDEST PUSH1 0x40 MLOAD DUP1 SWAP2 SUB SWAP1 LOG1 PUSH1 0x2 PUSH1 0x0 DUP2 SLOAD DUP1 SWAP3 SWAP2 SWAP1 PUSH3 0x4A2 SWAP1 PUSH3 0xD7C JUMP JUMPDEST SWAP2 SWAP1 POP SSTORE POP POP POP POP JUMP JUMPDEST PUSH1 0x0 CALLER PUSH20 0xFFFFFFFFFFFFFFFFFFFFFFFFFFFFFFFFFFFFFFFF AND PUSH1 0x0 DUP1 SLOAD SWAP1 PUSH2 0x100 EXP SWAP1 DIV PUSH20 0xFFFFFFFFFFFFFFFFFFFFFFFFFFFFFFFFFFFFFFFF AND PUSH20 0xFFFFFFFFFFFFFFFFFFFFFFFFFFFFFFFFFFFFFFFF AND EQ SWAP1 POP SWAP1 JUMP JUMPDEST PUSH1 0x1 PUSH1 0x20 MSTORE DUP1 PUSH1 0x0 MSTORE PUSH1 0x40 PUSH1 0x0 KECCAK256 PUSH1 0x0 SWAP2 POP SWAP1 POP DUP1 PUSH1 0x0 ADD PUSH1 0x0 SWAP1 SLOAD SWAP1 PUSH2 0x100 EXP SWAP1 DIV PUSH20 0xFFFFFFFFFFFFFFFFFFFFFFFFFFFFFFFFFFFFFFFF AND SWAP1 DUP1 PUSH1 0x1 ADD DUP1 SLOAD PUSH3 0x54D SWAP1 PUSH3 0xD10 JUMP JUMPDEST DUP1 PUSH1 0x1F ADD PUSH1 0x20 DUP1 SWAP2 DIV MUL PUSH1 0x20 ADD PUSH1 0x40 MLOAD SWAP1 DUP2 ADD PUSH1 0x40 MSTORE DUP1 SWAP3 SWAP2 SWAP1 DUP2 DUP2 MSTORE PUSH1 0x20 ADD DUP3 DUP1 SLOAD PUSH3 0x57B SWAP1 PUSH3 0xD10 JUMP JUMPDEST DUP1 ISZERO PUSH3 0x5CC JUMPI DUP1 PUSH1 0x1F LT PUSH3 0x5A0 JUMPI PUSH2 0x100 DUP1 DUP4 SLOAD DIV MUL DUP4 MSTORE SWAP2 PUSH1 0x20 ADD SWAP2 PUSH3 0x5CC JUMP JUMPDEST DUP3 ADD SWAP2 SWAP1 PUSH1 0x0 MSTORE PUSH1 0x20 PUSH1 0x0 KECCAK256 SWAP1 JUMPDEST DUP2 SLOAD DUP2 MSTORE SWAP1 PUSH1 0x1 ADD SWAP1 PUSH1 0x20 ADD DUP1 DUP4 GT PUSH3 0x5AE JUMPI DUP3 SWAP1 SUB PUSH1 0x1F AND DUP3 ADD SWAP2 JUMPDEST POP POP POP POP POP SWAP1 DUP1 PUSH1 0x2 ADD SLOAD SWAP1 DUP1 PUSH1 0x3 ADD SLOAD SWAP1 POP DUP5 JUMP JUMPDEST PUSH3 0x5EC PUSH3 0x4AC JUMP JUMPDEST PUSH3 0x62E JUMPI PUSH1 0x40 MLOAD PUSH32 0x8C379A000000000000000000000000000000000000000000000000000000000 DUP2 MSTORE PUSH1 0x4 ADD PUSH3 0x625 SWAP1 PUSH3 0xB43 JUMP JUMPDEST PUSH1 0x40 MLOAD DUP1 SWAP2 SUB SWAP1 REVERT JUMPDEST PUSH1 0x1 PUSH1 0x2 DUP2 GT ISZERO PUSH3 0x645 JUMPI PUSH3 0x644 PUSH3 0xDF9 JUMP JUMPDEST JUMPDEST PUSH1 0x1 PUSH1 0x0 DUP4 DUP2 MSTORE PUSH1 0x20 ADD SWAP1 DUP2 MSTORE PUSH1 0x20 ADD PUSH1 0x0 KECCAK256 PUSH1 0x3 ADD SLOAD EQ PUSH3 0x69F JUMPI PUSH1 0x40 MLOAD PUSH32 0x8C379A000000000000000000000000000000000000000000000000000000000 DUP2 MSTORE PUSH1 0x4 ADD PUSH3 0x696 SWAP1 PUSH3 0xAFF JUMP JUMPDEST PUSH1 0x40 MLOAD DUP1 SWAP2 SUB SWAP1 REVERT JUMPDEST PUSH1 0x2 DUP1 DUP2 GT ISZERO PUSH3 0x6B5 JUMPI PUSH3 0x6B4 PUSH3 0xDF9 JUMP JUMPDEST JUMPDEST PUSH1 0x1 PUSH1 0x0 DUP4 DUP2 MSTORE PUSH1 0x20 ADD SWAP1 DUP2 MSTORE PUSH1 0x20 ADD PUSH1 0x0 KECCAK256 PUSH1 0x3 ADD DUP2 SWAP1 SSTORE POP PUSH32 0xA4035636E99F06B7651A604C1019FA4E8779FE68EF27EEB74DFF2DE348F6199B DUP2 PUSH1 0x1 PUSH1 0x0 DUP5 DUP2 MSTORE PUSH1 0x20 ADD SWAP1 DUP2 MSTORE PUSH1 0x20 ADD PUSH1 0x0 KECCAK256 PUSH1 0x3 ADD SLOAD PUSH1 0x1 PUSH1 0x0 DUP6 DUP2 MSTORE PUSH1 0x20 ADD SWAP1 DUP2 MSTORE PUSH1 0x20 ADD PUSH1 0x0 KECCAK256 PUSH1 0x0 ADD PUSH1 0x0 SWAP1 SLOAD SWAP1 PUSH2 0x100 EXP SWAP1 DIV PUSH20 0xFFFFFFFFFFFFFFFFFFFFFFFFFFFFFFFFFFFFFFFF AND PUSH1 0x40 MLOAD PUSH3 0x750 SWAP4 SWAP3 SWAP2 SWAP1 PUSH3 0xB65 JUMP JUMPDEST PUSH1 0x40 MLOAD DUP1 SWAP2 SUB SWAP1 LOG1 POP JUMP JUMPDEST PUSH2 0x74E DUP1 PUSH3 0xF41 DUP4 CODECOPY ADD SWAP1 JUMP JUMPDEST DUP3 DUP1 SLOAD PUSH3 0x777 SWAP1 PUSH3 0xD10 JUMP JUMPDEST SWAP1 PUSH1 0x0 MSTORE PUSH1 0x20 PUSH1 0x0 KECCAK256 SWAP1 PUSH1 0x1F ADD PUSH1 0x20 SWAP1 DIV DUP2 ADD SWAP3 DUP3 PUSH3 0x79B JUMPI PUSH1 0x0 DUP6 SSTORE PUSH3 0x7E7 JUMP JUMPDEST DUP3 PUSH1 0x1F LT PUSH3 0x7B6 JUMPI DUP1 MLOAD PUSH1 0xFF NOT AND DUP4 DUP1 ADD OR DUP6 SSTORE PUSH3 0x7E7 JUMP JUMPDEST DUP3 DUP1 ADD PUSH1 0x1 ADD DUP6 SSTORE DUP3 ISZERO PUSH3 0x7E7 JUMPI SWAP2 DUP3 ADD JUMPDEST DUP3 DUP2 GT ISZERO PUSH3 0x7E6 JUMPI DUP3 MLOAD DUP3 SSTORE SWAP2 PUSH1 0x20 ADD SWAP2 SWAP1 PUSH1 0x1 ADD SWAP1 PUSH3 0x7C9 JUMP JUMPDEST JUMPDEST POP SWAP1 POP PUSH3 0x7F6 SWAP2 SWAP1 PUSH3 0x7FA JUMP JUMPDEST POP SWAP1 JUMP JUMPDEST JUMPDEST DUP1 DUP3 GT ISZERO PUSH3 0x815 JUMPI PUSH1 0x0 DUP2 PUSH1 0x0 SWAP1 SSTORE POP PUSH1 0x1 ADD PUSH3 0x7FB JUMP JUMPDEST POP SWAP1 JUMP JUMPDEST PUSH1 0x0 PUSH3 0x830 PUSH3 0x82A DUP5 PUSH3 0xBCB JUMP JUMPDEST PUSH3 0xBA2 JUMP JUMPDEST SWAP1 POP DUP3 DUP2 MSTORE PUSH1 0x20 DUP2 ADD DUP5 DUP5 DUP5 ADD GT ISZERO PUSH3 0x84F JUMPI PUSH3 0x84E PUSH3 0xE8B JUMP JUMPDEST JUMPDEST PUSH3 0x85C DUP5 DUP3 DUP6 PUSH3 0xCCB JUMP JUMPDEST POP SWAP4 SWAP3 POP POP POP JUMP JUMPDEST PUSH1 0x0 DUP3 PUSH1 0x1F DUP4 ADD SLT PUSH3 0x87C JUMPI PUSH3 0x87B PUSH3 0xE86 JUMP JUMPDEST JUMPDEST DUP2 CALLDATALOAD PUSH3 0x88E DUP5 DUP3 PUSH1 0x20 DUP7 ADD PUSH3 0x819 JUMP JUMPDEST SWAP2 POP POP SWAP3 SWAP2 POP POP JUMP JUMPDEST PUSH1 0x0 DUP2 CALLDATALOAD SWAP1 POP PUSH3 0x8A8 DUP2 PUSH3 0xF26 JUMP JUMPDEST SWAP3 SWAP2 POP POP JUMP JUMPDEST PUSH1 0x0 DUP1 PUSH1 0x40 DUP4 DUP6 SUB SLT ISZERO PUSH3 0x8C8 JUMPI PUSH3 0x8C7 PUSH3 0xE95 JUMP JUMPDEST JUMPDEST PUSH1 0x0 DUP4 ADD CALLDATALOAD PUSH8 0xFFFFFFFFFFFFFFFF DUP2 GT ISZERO PUSH3 0x8E9 JUMPI PUSH3 0x8E8 PUSH3 0xE90 JUMP JUMPDEST JUMPDEST PUSH3 0x8F7 DUP6 DUP3 DUP7 ADD PUSH3 0x864 JUMP JUMPDEST SWAP3 POP POP PUSH1 0x20 PUSH3 0x90A DUP6 DUP3 DUP7 ADD PUSH3 0x897 JUMP JUMPDEST SWAP2 POP POP SWAP3 POP SWAP3 SWAP1 POP JUMP JUMPDEST PUSH1 0x0 PUSH1 0x20 DUP3 DUP5 SUB SLT ISZERO PUSH3 0x92D JUMPI PUSH3 0x92C PUSH3 0xE95 JUMP JUMPDEST JUMPDEST PUSH1 0x0 PUSH3 0x93D DUP5 DUP3 DUP6 ADD PUSH3 0x897 JUMP JUMPDEST SWAP2 POP POP SWAP3 SWAP2 POP POP JUMP JUMPDEST PUSH3 0x951 DUP2 PUSH3 0xC1D JUMP JUMPDEST DUP3 MSTORE POP POP JUMP JUMPDEST PUSH3 0x962 DUP2 PUSH3 0xC31 JUMP JUMPDEST DUP3 MSTORE POP POP JUMP JUMPDEST PUSH3 0x973 DUP2 PUSH3 0xC67 JUMP JUMPDEST DUP3 MSTORE POP POP JUMP JUMPDEST PUSH3 0x984 DUP2 PUSH3 0xC7B JUMP JUMPDEST DUP3 MSTORE POP POP JUMP JUMPDEST PUSH1 0x0 PUSH3 0x997 DUP3 PUSH3 0xC01 JUMP JUMPDEST PUSH3 0x9A3 DUP2 DUP6 PUSH3 0xC0C JUMP JUMPDEST SWAP4 POP PUSH3 0x9B5 DUP2 DUP6 PUSH1 0x20 DUP7 ADD PUSH3 0xCDA JUMP JUMPDEST PUSH3 0x9C0 DUP2 PUSH3 0xE9A JUMP JUMPDEST DUP5 ADD SWAP2 POP POP SWAP3 SWAP2 POP POP JUMP JUMPDEST PUSH1 0x0 PUSH3 0x9DA PUSH1 0x1C DUP4 PUSH3 0xC0C JUMP JUMPDEST SWAP2 POP PUSH3 0x9E7 DUP3 PUSH3 0xEAB JUMP JUMPDEST PUSH1 0x20 DUP3 ADD SWAP1 POP SWAP2 SWAP1 POP JUMP JUMPDEST PUSH1 0x0 PUSH3 0xA01 PUSH1 0x1B DUP4 PUSH3 0xC0C JUMP JUMPDEST SWAP2 POP PUSH3 0xA0E DUP3 PUSH3 0xED4 JUMP JUMPDEST PUSH1 0x20 DUP3 ADD SWAP1 POP SWAP2 SWAP1 POP JUMP JUMPDEST PUSH1 0x0 PUSH3 0xA28 PUSH1 0x15 DUP4 PUSH3 0xC0C JUMP JUMPDEST SWAP2 POP PUSH3 0xA35 DUP3 PUSH3 0xEFD JUMP JUMPDEST PUSH1 0x20 DUP3 ADD SWAP1 POP SWAP2 SWAP1 POP JUMP JUMPDEST PUSH3 0xA4B DUP2 PUSH3 0xC5D JUMP JUMPDEST DUP3 MSTORE POP POP JUMP JUMPDEST PUSH1 0x0 PUSH1 0x20 DUP3 ADD SWAP1 POP PUSH3 0xA68 PUSH1 0x0 DUP4 ADD DUP5 PUSH3 0x957 JUMP JUMPDEST SWAP3 SWAP2 POP POP JUMP JUMPDEST PUSH1 0x0 PUSH1 0x60 DUP3 ADD SWAP1 POP PUSH3 0xA85 PUSH1 0x0 DUP4 ADD DUP7 PUSH3 0x968 JUMP JUMPDEST PUSH3 0xA94 PUSH1 0x20 DUP4 ADD DUP6 PUSH3 0xA40 JUMP JUMPDEST PUSH3 0xAA3 PUSH1 0x40 DUP4 ADD DUP5 PUSH3 0xA40 JUMP JUMPDEST SWAP5 SWAP4 POP POP POP POP JUMP JUMPDEST PUSH1 0x0 PUSH1 0x80 DUP3 ADD SWAP1 POP PUSH3 0xAC2 PUSH1 0x0 DUP4 ADD DUP8 PUSH3 0x979 JUMP JUMPDEST DUP2 DUP2 SUB PUSH1 0x20 DUP4 ADD MSTORE PUSH3 0xAD6 DUP2 DUP7 PUSH3 0x98A JUMP JUMPDEST SWAP1 POP PUSH3 0xAE7 PUSH1 0x40 DUP4 ADD DUP6 PUSH3 0xA40 JUMP JUMPDEST PUSH3 0xAF6 PUSH1 0x60 DUP4 ADD DUP5 PUSH3 0xA40 JUMP JUMPDEST SWAP6 SWAP5 POP POP POP POP POP JUMP JUMPDEST PUSH1 0x0 PUSH1 0x20 DUP3 ADD SWAP1 POP DUP2 DUP2 SUB PUSH1 0x0 DUP4 ADD MSTORE PUSH3 0xB1A DUP2 PUSH3 0x9CB JUMP JUMPDEST SWAP1 POP SWAP2 SWAP1 POP JUMP JUMPDEST PUSH1 0x0 PUSH1 0x20 DUP3 ADD SWAP1 POP DUP2 DUP2 SUB PUSH1 0x0 DUP4 ADD MSTORE PUSH3 0xB3C DUP2 PUSH3 0x9F2 JUMP JUMPDEST SWAP1 POP SWAP2 SWAP1 POP JUMP JUMPDEST PUSH1 0x0 PUSH1 0x20 DUP3 ADD SWAP1 POP DUP2 DUP2 SUB PUSH1 0x0 DUP4 ADD MSTORE PUSH3 0xB5E DUP2 PUSH3 0xA19 JUMP JUMPDEST SWAP1 POP SWAP2 SWAP1 POP JUMP JUMPDEST PUSH1 0x0 PUSH1 0x60 DUP3 ADD SWAP1 POP PUSH3 0xB7C PUSH1 0x0 DUP4 ADD DUP7 PUSH3 0xA40 JUMP JUMPDEST PUSH3 0xB8B PUSH1 0x20 DUP4 ADD DUP6 PUSH3 0xA40 JUMP JUMPDEST PUSH3 0xB9A PUSH1 0x40 DUP4 ADD DUP5 PUSH3 0x946 JUMP JUMPDEST SWAP5 SWAP4 POP POP POP POP JUMP JUMPDEST PUSH1 0x0 PUSH3 0xBAE PUSH3 0xBC1 JUMP JUMPDEST SWAP1 POP PUSH3 0xBBC DUP3 DUP3 PUSH3 0xD46 JUMP JUMPDEST SWAP2 SWAP1 POP JUMP JUMPDEST PUSH1 0x0 PUSH1 0x40 MLOAD SWAP1 POP SWAP1 JUMP JUMPDEST PUSH1 0x0 PUSH8 0xFFFFFFFFFFFFFFFF DUP3 GT ISZERO PUSH3 0xBE9 JUMPI PUSH3 0xBE8 PUSH3 0xE57 JUMP JUMPDEST JUMPDEST PUSH3 0xBF4 DUP3 PUSH3 0xE9A JUMP JUMPDEST SWAP1 POP PUSH1 0x20 DUP2 ADD SWAP1 POP SWAP2 SWAP1 POP JUMP JUMPDEST PUSH1 0x0 DUP2 MLOAD SWAP1 POP SWAP2 SWAP1 POP JUMP JUMPDEST PUSH1 0x0 DUP3 DUP3 MSTORE PUSH1 0x20 DUP3 ADD SWAP1 POP SWAP3 SWAP2 POP POP JUMP JUMPDEST PUSH1 0x0 PUSH3 0xC2A DUP3 PUSH3 0xC3D JUMP JUMPDEST SWAP1 POP SWAP2 SWAP1 POP JUMP JUMPDEST PUSH1 0x0 DUP2 ISZERO ISZERO SWAP1 POP SWAP2 SWAP1 POP JUMP JUMPDEST PUSH1 0x0 PUSH20 0xFFFFFFFFFFFFFFFFFFFFFFFFFFFFFFFFFFFFFFFF DUP3 AND SWAP1 POP SWAP2 SWAP1 POP JUMP JUMPDEST PUSH1 0x0 DUP2 SWAP1 POP SWAP2 SWAP1 POP JUMP JUMPDEST PUSH1 0x0 PUSH3 0xC74 DUP3 PUSH3 0xC8F JUMP JUMPDEST SWAP1 POP SWAP2 SWAP1 POP JUMP JUMPDEST PUSH1 0x0 PUSH3 0xC88 DUP3 PUSH3 0xCA3 JUMP JUMPDEST SWAP1 POP SWAP2 SWAP1 POP JUMP JUMPDEST PUSH1 0x0 PUSH3 0xC9C DUP3 PUSH3 0xCB7 JUMP JUMPDEST SWAP1 POP SWAP2 SWAP1 POP JUMP JUMPDEST PUSH1 0x0 PUSH3 0xCB0 DUP3 PUSH3 0xCB7 JUMP JUMPDEST SWAP1 POP SWAP2 SWAP1 POP JUMP JUMPDEST PUSH1 0x0 PUSH3 0xCC4 DUP3 PUSH3 0xC3D JUMP JUMPDEST SWAP1 POP SWAP2 SWAP1 POP JUMP JUMPDEST DUP3 DUP2 DUP4 CALLDATACOPY PUSH1 0x0 DUP4 DUP4 ADD MSTORE POP POP POP JUMP JUMPDEST PUSH1 0x0 JUMPDEST DUP4 DUP2 LT ISZERO PUSH3 0xCFA JUMPI DUP1 DUP3 ADD MLOAD DUP2 DUP5 ADD MSTORE PUSH1 0x20 DUP2 ADD SWAP1 POP PUSH3 0xCDD JUMP JUMPDEST DUP4 DUP2 GT ISZERO PUSH3 0xD0A JUMPI PUSH1 0x0 DUP5 DUP5 ADD MSTORE JUMPDEST POP POP POP POP JUMP JUMPDEST PUSH1 0x0 PUSH1 0x2 DUP3 DIV SWAP1 POP PUSH1 0x1 DUP3 AND DUP1 PUSH3 0xD29 JUMPI PUSH1 0x7F DUP3 AND SWAP2 POP JUMPDEST PUSH1 0x20 DUP3 LT DUP2 EQ ISZERO PUSH3 0xD40 JUMPI PUSH3 0xD3F PUSH3 0xE28 JUMP JUMPDEST JUMPDEST POP SWAP2 SWAP1 POP JUMP JUMPDEST PUSH3 0xD51 DUP3 PUSH3 0xE9A JUMP JUMPDEST DUP2 ADD DUP2 DUP2 LT PUSH8 0xFFFFFFFFFFFFFFFF DUP3 GT OR ISZERO PUSH3 0xD73 JUMPI PUSH3 0xD72 PUSH3 0xE57 JUMP JUMPDEST JUMPDEST DUP1 PUSH1 0x40 MSTORE POP POP POP JUMP JUMPDEST PUSH1 0x0 PUSH3 0xD89 DUP3 PUSH3 0xC5D JUMP JUMPDEST SWAP2 POP PUSH32 0xFFFFFFFFFFFFFFFFFFFFFFFFFFFFFFFFFFFFFFFFFFFFFFFFFFFFFFFFFFFFFFFF DUP3 EQ ISZERO PUSH3 0xDBF JUMPI PUSH3 0xDBE PUSH3 0xDCA JUMP JUMPDEST JUMPDEST PUSH1 0x1 DUP3 ADD SWAP1 POP SWAP2 SWAP1 POP JUMP JUMPDEST PUSH32 0x4E487B7100000000000000000000000000000000000000000000000000000000 PUSH1 0x0 MSTORE PUSH1 0x11 PUSH1 0x4 MSTORE PUSH1 0x24 PUSH1 0x0 REVERT JUMPDEST PUSH32 0x4E487B7100000000000000000000000000000000000000000000000000000000 PUSH1 0x0 MSTORE PUSH1 0x21 PUSH1 0x4 MSTORE PUSH1 0x24 PUSH1 0x0 REVERT JUMPDEST PUSH32 0x4E487B7100000000000000000000000000000000000000000000000000000000 PUSH1 0x0 MSTORE PUSH1 0x22 PUSH1 0x4 MSTORE PUSH1 0x24 PUSH1 0x0 REVERT JUMPDEST PUSH32 0x4E487B7100000000000000000000000000000000000000000000000000000000 PUSH1 0x0 MSTORE PUSH1 0x41 PUSH1 0x4 MSTORE PUSH1 0x24 PUSH1 0x0 REVERT JUMPDEST PUSH1 0x0 DUP1 REVERT JUMPDEST PUSH1 0x0 DUP1 REVERT JUMPDEST PUSH1 0x0 DUP1 REVERT JUMPDEST PUSH1 0x0 DUP1 REVERT JUMPDEST PUSH1 0x0 PUSH1 0x1F NOT PUSH1 0x1F DUP4 ADD AND SWAP1 POP SWAP2 SWAP1 POP JUMP JUMPDEST PUSH32 0x4974656D206973206675727468657220696E2074686520636861696E00000000 PUSH1 0x0 DUP3 ADD MSTORE POP JUMP JUMPDEST PUSH32 0x4F6E6C792066756C6C207061796D656E74732061636365707465640000000000 PUSH1 0x0 DUP3 ADD MSTORE POP JUMP JUMPDEST PUSH32 0x796F7520617265206E6F7420746865206F776E65720000000000000000000000 PUSH1 0x0 DUP3 ADD MSTORE POP JUMP JUMPDEST PUSH3 0xF31 DUP2 PUSH3 0xC5D JUMP JUMPDEST DUP2 EQ PUSH3 0xF3D JUMPI PUSH1 0x0 DUP1 REVERT JUMPDEST POP JUMP INVALID PUSH1 0x80 PUSH1 0x40 MSTORE CALLVALUE DUP1 ISZERO PUSH2 0x10 JUMPI PUSH1 0x0 DUP1 REVERT JUMPDEST POP PUSH1 0x40 MLOAD PUSH2 0x74E CODESIZE SUB DUP1 PUSH2 0x74E DUP4 CODECOPY DUP2 DUP2 ADD PUSH1 0x40 MSTORE DUP2 ADD SWAP1 PUSH2 0x32 SWAP2 SWAP1 PUSH2 0xB3 JUMP JUMPDEST DUP3 PUSH1 0x3 PUSH1 0x0 PUSH2 0x100 EXP DUP2 SLOAD DUP2 PUSH20 0xFFFFFFFFFFFFFFFFFFFFFFFFFFFFFFFFFFFFFFFF MUL NOT AND SWAP1 DUP4 PUSH20 0xFFFFFFFFFFFFFFFFFFFFFFFFFFFFFFFFFFFFFFFF AND MUL OR SWAP1 SSTORE POP DUP2 PUSH1 0x0 DUP2 SWAP1 SSTORE POP DUP1 PUSH1 0x2 DUP2 SWAP1 SSTORE POP POP POP POP PUSH2 0x187 JUMP JUMPDEST PUSH1 0x0 DUP2 MLOAD SWAP1 POP PUSH2 0x98 DUP2 PUSH2 0x159 JUMP JUMPDEST SWAP3 SWAP2 POP POP JUMP JUMPDEST PUSH1 0x0 DUP2 MLOAD SWAP1 POP PUSH2 0xAD DUP2 PUSH2 0x170 JUMP JUMPDEST SWAP3 SWAP2 POP POP JUMP JUMPDEST PUSH1 0x0 DUP1 PUSH1 0x0 PUSH1 0x60 DUP5 DUP7 SUB SLT ISZERO PUSH2 0xCC JUMPI PUSH2 0xCB PUSH2 0x154 JUMP JUMPDEST JUMPDEST PUSH1 0x0 PUSH2 0xDA DUP7 DUP3 DUP8 ADD PUSH2 0x89 JUMP JUMPDEST SWAP4 POP POP PUSH1 0x20 PUSH2 0xEB DUP7 DUP3 DUP8 ADD PUSH2 0x9E JUMP JUMPDEST SWAP3 POP POP PUSH1 0x40 PUSH2 0xFC DUP7 DUP3 DUP8 ADD PUSH2 0x9E JUMP JUMPDEST SWAP2 POP POP SWAP3 POP SWAP3 POP SWAP3 JUMP JUMPDEST PUSH1 0x0 PUSH2 0x111 DUP3 PUSH2 0x12A JUMP JUMPDEST SWAP1 POP SWAP2 SWAP1 POP JUMP JUMPDEST PUSH1 0x0 PUSH2 0x123 DUP3 PUSH2 0x106 JUMP JUMPDEST SWAP1 POP SWAP2 SWAP1 POP JUMP JUMPDEST PUSH1 0x0 PUSH20 0xFFFFFFFFFFFFFFFFFFFFFFFFFFFFFFFFFFFFFFFF DUP3 AND SWAP1 POP SWAP2 SWAP1 POP JUMP JUMPDEST PUSH1 0x0 DUP2 SWAP1 POP SWAP2 SWAP1 POP JUMP JUMPDEST PUSH1 0x0 DUP1 REVERT JUMPDEST PUSH2 0x162 DUP2 PUSH2 0x118 JUMP JUMPDEST DUP2 EQ PUSH2 0x16D JUMPI PUSH1 0x0 DUP1 REVERT JUMPDEST POP JUMP JUMPDEST PUSH2 0x179 DUP2 PUSH2 0x14A JUMP JUMPDEST DUP2 EQ PUSH2 0x184 JUMPI PUSH1 0x0 DUP1 REVERT JUMPDEST POP JUMP JUMPDEST PUSH2 0x5B8 DUP1 PUSH2 0x196 PUSH1 0x0 CODECOPY PUSH1 0x0 RETURN INVALID PUSH1 0x80 PUSH1 0x40 MSTORE PUSH1 0x4 CALLDATASIZE LT PUSH2 0x38 JUMPI PUSH1 0x0 CALLDATALOAD PUSH1 0xE0 SHR DUP1 PUSH4 0x3C8DA588 EQ PUSH2 0x250 JUMPI DUP1 PUSH4 0x89794D00 EQ PUSH2 0x27B JUMPI DUP1 PUSH4 0xE07BB1A7 EQ PUSH2 0x2A6 JUMPI PUSH2 0x241 JUMP JUMPDEST CALLDATASIZE PUSH2 0x241 JUMPI PUSH1 0x0 PUSH1 0x1 SLOAD EQ PUSH2 0x82 JUMPI PUSH1 0x40 MLOAD PUSH32 0x8C379A000000000000000000000000000000000000000000000000000000000 DUP2 MSTORE PUSH1 0x4 ADD PUSH2 0x79 SWAP1 PUSH2 0x3A3 JUMP JUMPDEST PUSH1 0x40 MLOAD DUP1 SWAP2 SUB SWAP1 REVERT JUMPDEST CALLVALUE PUSH1 0x0 SLOAD EQ PUSH2 0xC6 JUMPI PUSH1 0x40 MLOAD PUSH32 0x8C379A000000000000000000000000000000000000000000000000000000000 DUP2 MSTORE PUSH1 0x4 ADD PUSH2 0xBD SWAP1 PUSH2 0x3E3 JUMP JUMPDEST PUSH1 0x40 MLOAD DUP1 SWAP2 SUB SWAP1 REVERT JUMPDEST CALLVALUE PUSH1 0x1 PUSH1 0x0 DUP3 DUP3 SLOAD PUSH2 0xD8 SWAP2 SWAP1 PUSH2 0x445 JUMP JUMPDEST SWAP3 POP POP DUP2 SWAP1 SSTORE POP PUSH1 0x0 PUSH1 0x3 PUSH1 0x0 SWAP1 SLOAD SWAP1 PUSH2 0x100 EXP SWAP1 DIV PUSH20 0xFFFFFFFFFFFFFFFFFFFFFFFFFFFFFFFFFFFFFFFF AND PUSH20 0xFFFFFFFFFFFFFFFFFFFFFFFFFFFFFFFFFFFFFFFF AND CALLVALUE PUSH1 0x2 SLOAD PUSH1 0x40 MLOAD PUSH1 0x24 ADD PUSH2 0x12E SWAP2 SWAP1 PUSH2 0x403 JUMP JUMPDEST PUSH1 0x40 MLOAD PUSH1 0x20 DUP2 DUP4 SUB SUB DUP2 MSTORE SWAP1 PUSH1 0x40 MSTORE PUSH32 0x800FB83F00000000000000000000000000000000000000000000000000000000 PUSH28 0xFFFFFFFFFFFFFFFFFFFFFFFFFFFFFFFFFFFFFFFFFFFFFFFFFFFFFFFF NOT AND PUSH1 0x20 DUP3 ADD DUP1 MLOAD PUSH28 0xFFFFFFFFFFFFFFFFFFFFFFFFFFFFFFFFFFFFFFFFFFFFFFFFFFFFFFFF DUP4 DUP2 DUP4 AND OR DUP4 MSTORE POP POP POP POP PUSH1 0x40 MLOAD PUSH2 0x1B8 SWAP2 SWAP1 PUSH2 0x38C JUMP JUMPDEST PUSH1 0x0 PUSH1 0x40 MLOAD DUP1 DUP4 SUB DUP2 DUP6 DUP8 GAS CALL SWAP3 POP POP POP RETURNDATASIZE DUP1 PUSH1 0x0 DUP2 EQ PUSH2 0x1F5 JUMPI PUSH1 0x40 MLOAD SWAP2 POP PUSH1 0x1F NOT PUSH1 0x3F RETURNDATASIZE ADD AND DUP3 ADD PUSH1 0x40 MSTORE RETURNDATASIZE DUP3 MSTORE RETURNDATASIZE PUSH1 0x0 PUSH1 0x20 DUP5 ADD RETURNDATACOPY PUSH2 0x1FA JUMP JUMPDEST PUSH1 0x60 SWAP2 POP JUMPDEST POP POP SWAP1 POP DUP1 PUSH2 0x23E JUMPI PUSH1 0x40 MLOAD PUSH32 0x8C379A000000000000000000000000000000000000000000000000000000000 DUP2 MSTORE PUSH1 0x4 ADD PUSH2 0x235 SWAP1 PUSH2 0x3C3 JUMP JUMPDEST PUSH1 0x40 MLOAD DUP1 SWAP2 SUB SWAP1 REVERT JUMPDEST POP STOP JUMPDEST CALLVALUE DUP1 ISZERO PUSH2 0x24D JUMPI PUSH1 0x0 DUP1 REVERT JUMPDEST POP STOP JUMPDEST CALLVALUE DUP1 ISZERO PUSH2 0x25C JUMPI PUSH1 0x0 DUP1 REVERT JUMPDEST POP PUSH2 0x265 PUSH2 0x2D1 JUMP JUMPDEST PUSH1 0x40 MLOAD PUSH2 0x272 SWAP2 SWAP1 PUSH2 0x403 JUMP JUMPDEST PUSH1 0x40 MLOAD DUP1 SWAP2 SUB SWAP1 RETURN JUMPDEST CALLVALUE DUP1 ISZERO PUSH2 0x287 JUMPI PUSH1 0x0 DUP1 REVERT JUMPDEST POP PUSH2 0x290 PUSH2 0x2D7 JUMP JUMPDEST PUSH1 0x40 MLOAD PUSH2 0x29D SWAP2 SWAP1 PUSH2 0x403 JUMP JUMPDEST PUSH1 0x40 MLOAD DUP1 SWAP2 SUB SWAP1 RETURN JUMPDEST CALLVALUE DUP1 ISZERO PUSH2 0x2B2 JUMPI PUSH1 0x0 DUP1 REVERT JUMPDEST POP PUSH2 0x2BB PUSH2 0x2DD JUMP JUMPDEST PUSH1 0x40 MLOAD PUSH2 0x2C8 SWAP2 SWAP1 PUSH2 0x403 JUMP JUMPDEST PUSH1 0x40 MLOAD DUP1 SWAP2 SUB SWAP1 RETURN JUMPDEST PUSH1 0x0 SLOAD DUP2 JUMP JUMPDEST PUSH1 0x1 SLOAD DUP2 JUMP JUMPDEST PUSH1 0x2 SLOAD DUP2 JUMP JUMPDEST PUSH1 0x0 PUSH2 0x2EE DUP3 PUSH2 0x41E JUMP JUMPDEST PUSH2 0x2F8 DUP2 DUP6 PUSH2 0x429 JUMP JUMPDEST SWAP4 POP PUSH2 0x308 DUP2 DUP6 PUSH1 0x20 DUP7 ADD PUSH2 0x4A5 JUMP JUMPDEST DUP1 DUP5 ADD SWAP2 POP POP SWAP3 SWAP2 POP POP JUMP JUMPDEST PUSH1 0x0 PUSH2 0x321 PUSH1 0x14 DUP4 PUSH2 0x434 JUMP JUMPDEST SWAP2 POP PUSH2 0x32C DUP3 PUSH2 0x507 JUMP JUMPDEST PUSH1 0x20 DUP3 ADD SWAP1 POP SWAP2 SWAP1 POP JUMP JUMPDEST PUSH1 0x0 PUSH2 0x344 PUSH1 0x1E DUP4 PUSH2 0x434 JUMP JUMPDEST SWAP2 POP PUSH2 0x34F DUP3 PUSH2 0x530 JUMP JUMPDEST PUSH1 0x20 DUP3 ADD SWAP1 POP SWAP2 SWAP1 POP JUMP JUMPDEST PUSH1 0x0 PUSH2 0x367 PUSH1 0x1A DUP4 PUSH2 0x434 JUMP JUMPDEST SWAP2 POP PUSH2 0x372 DUP3 PUSH2 0x559 JUMP JUMPDEST PUSH1 0x20 DUP3 ADD SWAP1 POP SWAP2 SWAP1 POP JUMP JUMPDEST PUSH2 0x386 DUP2 PUSH2 0x49B JUMP JUMPDEST DUP3 MSTORE POP POP JUMP JUMPDEST PUSH1 0x0 PUSH2 0x398 DUP3 DUP5 PUSH2 0x2E3 JUMP JUMPDEST SWAP2 POP DUP2 SWAP1 POP SWAP3 SWAP2 POP POP JUMP JUMPDEST PUSH1 0x0 PUSH1 0x20 DUP3 ADD SWAP1 POP DUP2 DUP2 SUB PUSH1 0x0 DUP4 ADD MSTORE PUSH2 0x3BC DUP2 PUSH2 0x314 JUMP JUMPDEST SWAP1 POP SWAP2 SWAP1 POP JUMP JUMPDEST PUSH1 0x0 PUSH1 0x20 DUP3 ADD SWAP1 POP DUP2 DUP2 SUB PUSH1 0x0 DUP4 ADD MSTORE PUSH2 0x3DC DUP2 PUSH2 0x337 JUMP JUMPDEST SWAP1 POP SWAP2 SWAP1 POP JUMP JUMPDEST PUSH1 0x0 PUSH1 0x20 DUP3 ADD SWAP1 POP DUP2 DUP2 SUB PUSH1 0x0 DUP4 ADD MSTORE PUSH2 0x3FC DUP2 PUSH2 0x35A JUMP JUMPDEST SWAP1 POP SWAP2 SWAP1 POP JUMP JUMPDEST PUSH1 0x0 PUSH1 0x20 DUP3 ADD SWAP1 POP PUSH2 0x418 PUSH1 0x0 DUP4 ADD DUP5 PUSH2 0x37D JUMP JUMPDEST SWAP3 SWAP2 POP POP JUMP JUMPDEST PUSH1 0x0 DUP2 MLOAD SWAP1 POP SWAP2 SWAP1 POP JUMP JUMPDEST PUSH1 0x0 DUP2 SWAP1 POP SWAP3 SWAP2 POP POP JUMP JUMPDEST PUSH1 0x0 DUP3 DUP3 MSTORE PUSH1 0x20 DUP3 ADD SWAP1 POP SWAP3 SWAP2 POP POP JUMP JUMPDEST PUSH1 0x0 PUSH2 0x450 DUP3 PUSH2 0x49B JUMP JUMPDEST SWAP2 POP PUSH2 0x45B DUP4 PUSH2 0x49B JUMP JUMPDEST SWAP3 POP DUP3 PUSH32 0xFFFFFFFFFFFFFFFFFFFFFFFFFFFFFFFFFFFFFFFFFFFFFFFFFFFFFFFFFFFFFFFF SUB DUP3 GT ISZERO PUSH2 0x490 JUMPI PUSH2 0x48F PUSH2 0x4D8 JUMP JUMPDEST JUMPDEST DUP3 DUP3 ADD SWAP1 POP SWAP3 SWAP2 POP POP JUMP JUMPDEST PUSH1 0x0 DUP2 SWAP1 POP SWAP2 SWAP1 POP JUMP JUMPDEST PUSH1 0x0 JUMPDEST DUP4 DUP2 LT ISZERO PUSH2 0x4C3 JUMPI DUP1 DUP3 ADD MLOAD DUP2 DUP5 ADD MSTORE PUSH1 0x20 DUP2 ADD SWAP1 POP PUSH2 0x4A8 JUMP JUMPDEST DUP4 DUP2 GT ISZERO PUSH2 0x4D2 JUMPI PUSH1 0x0 DUP5 DUP5 ADD MSTORE JUMPDEST POP POP POP POP JUMP JUMPDEST PUSH32 0x4E487B7100000000000000000000000000000000000000000000000000000000 PUSH1 0x0 MSTORE PUSH1 0x11 PUSH1 0x4 MSTORE PUSH1 0x24 PUSH1 0x0 REVERT JUMPDEST PUSH32 0x4974656D206973207061696420616C7265616479000000000000000000000000 PUSH1 0x0 DUP3 ADD MSTORE POP JUMP JUMPDEST PUSH32 0x7472616E73616374696F6E20776173206E6F74207375636365737366756C0000 PUSH1 0x0 DUP3 ADD MSTORE POP JUMP JUMPDEST PUSH32 0x4F6E6C792066756C6C207061796D656E747320616C6C6F776564000000000000 PUSH1 0x0 DUP3 ADD MSTORE POP JUMP INVALID LOG2 PUSH5 0x6970667358 0x22 SLT KECCAK256 0xBD 0xF7 0xA5 POP 0x26 SHR PUSH13 0x18A4BB42A39B472FBA44125B0 DUP3 PUSH25 0xC3F8E5B07EA5C2AE3B3064736F6C63430008070033A2646970 PUSH7 0x7358221220EDAA 0x2D PUSH22 0x1FC69E611DDE0B22042C439E77F8D665899F1945381B STOP 0xD4 0xBC 0xC0 SWAP14 PUSH29 0x64736F6C63430008070033000000000000000000000000000000000000 "
				},
				"gasEstimates": {
					"creation": {
						"codeDepositCost": "1165600",
						"executionCost": "25480",
						"totalCost": "1191080"
					},
					"external": {
						"createItem(string,uint256)": "infinite",
						"isOwner()": "2515",
						"items(uint256)": "infinite",
						"triggerDelivery(uint256)": "infinite",
						"triggerPayment(uint256)": "infinite"
					}
				},
				"methodIdentifiers": {
					"createItem(string,uint256)": "8c551742",
					"isOwner()": "8f32d59b",
					"items(uint256)": "bfb231d2",
					"triggerDelivery(uint256)": "cd31831e",
					"triggerPayment(uint256)": "800fb83f"
				}
			},
			"storageLayout": {
				"storage": [
					{
						"astId": 298,
						"contract": "contracts/ItemManager.sol:ItemManager",
						"label": "Owner",
						"offset": 0,
						"slot": "0",
						"type": "t_address_payable"
					},
					{
						"astId": 110,
						"contract": "contracts/ItemManager.sol:ItemManager",
						"label": "items",
						"offset": 0,
						"slot": "1",
						"type": "t_mapping(t_uint256,t_struct(S_Item)105_storage)"
					},
					{
						"astId": 112,
						"contract": "contracts/ItemManager.sol:ItemManager",
						"label": "itemIndex",
						"offset": 0,
						"slot": "2",
						"type": "t_uint256"
					}
				],
				"types": {
					"t_address_payable": {
						"encoding": "inplace",
						"label": "address payable",
						"numberOfBytes": "20"
					},
					"t_contract(Item)85": {
						"encoding": "inplace",
						"label": "contract Item",
						"numberOfBytes": "20"
					},
					"t_mapping(t_uint256,t_struct(S_Item)105_storage)": {
						"encoding": "mapping",
						"key": "t_uint256",
						"label": "mapping(uint256 => struct ItemManager.S_Item)",
						"numberOfBytes": "32",
						"value": "t_struct(S_Item)105_storage"
					},
					"t_string_storage": {
						"encoding": "bytes",
						"label": "string",
						"numberOfBytes": "32"
					},
					"t_struct(S_Item)105_storage": {
						"encoding": "inplace",
						"label": "struct ItemManager.S_Item",
						"members": [
							{
								"astId": 98,
								"contract": "contracts/ItemManager.sol:ItemManager",
								"label": "_item",
								"offset": 0,
								"slot": "0",
								"type": "t_contract(Item)85"
							},
							{
								"astId": 100,
								"contract": "contracts/ItemManager.sol:ItemManager",
								"label": "_identifier",
								"offset": 0,
								"slot": "1",
								"type": "t_string_storage"
							},
							{
								"astId": 102,
								"contract": "contracts/ItemManager.sol:ItemManager",
								"label": "_itemPrice",
								"offset": 0,
								"slot": "2",
								"type": "t_uint256"
							},
							{
								"astId": 104,
								"contract": "contracts/ItemManager.sol:ItemManager",
								"label": "_state",
								"offset": 0,
								"slot": "3",
								"type": "t_uint256"
							}
						],
						"numberOfBytes": "128"
					},
					"t_uint256": {
						"encoding": "inplace",
						"label": "uint256",
						"numberOfBytes": "32"
					}
				}
			},
			"userdoc": {
				"kind": "user",
				"methods": {},
				"version": 1
			}
		}
	}
}