{
	"contracts/Item.sol": {
		"Item": {
			"abi": [
				{
					"inputs": [
						{
							"internalType": "contract ItemManager",
							"name": "_parentContract",
							"type": "address"
						},
						{
							"internalType": "uint256",
							"name": "_priceInWei",
							"type": "uint256"
						},
						{
							"internalType": "uint256",
							"name": "_itemIndex",
							"type": "uint256"
						}
					],
					"stateMutability": "nonpayable",
					"type": "constructor"
				},
				{
					"stateMutability": "nonpayable",
					"type": "fallback"
				},
				{
					"inputs": [],
					"name": "itemIndex",
					"outputs": [
						{
							"internalType": "uint256",
							"name": "",
							"type": "uint256"
						}
					],
					"stateMutability": "view",
					"type": "function"
				},
				{
					"inputs": [],
					"name": "priceInWei",
					"outputs": [
						{
							"internalType": "uint256",
							"name": "",
							"type": "uint256"
						}
					],
					"stateMutability": "view",
					"type": "function"
				},
				{
					"inputs": [],
					"name": "pricePaid",
					"outputs": [
						{
							"internalType": "uint256",
							"name": "",
							"type": "uint256"
						}
					],
					"stateMutability": "view",
					"type": "function"
				},
				{
					"stateMutability": "payable",
					"type": "receive"
				}
			],
			"devdoc": {
				"kind": "dev",
				"methods": {},
				"version": 1
			},
			"evm": {
				"assembly": "    /* \"contracts/Item.sol\":90:865  contract Item{\r... */\n  mstore(0x40, 0x80)\n    /* \"contracts/Item.sol\":230:421  constructor(ItemManager _parentContract,uint _priceInWei,uint _itemIndex){\r... */\n  callvalue\n  dup1\n  iszero\n  tag_1\n  jumpi\n  0x00\n  dup1\n  revert\ntag_1:\n  pop\n  mload(0x40)\n  sub(codesize, bytecodeSize)\n  dup1\n  bytecodeSize\n  dup4\n  codecopy\n  dup2\n  dup2\n  add\n  0x40\n  mstore\n  dup2\n  add\n  swap1\n  tag_2\n  swap2\n  swap1\n  tag_3\n  jump\t// in\ntag_2:\n    /* \"contracts/Item.sol\":330:345  _parentContract */\n  dup3\n    /* \"contracts/Item.sol\":314:328  parentContract */\n  0x03\n  0x00\n    /* \"contracts/Item.sol\":314:345  parentContract =_parentContract */\n  0x0100\n  exp\n  dup2\n  sload\n  dup2\n  0xffffffffffffffffffffffffffffffffffffffff\n  mul\n  not\n  and\n  swap1\n  dup4\n  0xffffffffffffffffffffffffffffffffffffffff\n  and\n  mul\n  or\n  swap1\n  sstore\n  pop\n    /* \"contracts/Item.sol\":369:380  _priceInWei */\n  dup2\n    /* \"contracts/Item.sol\":356:366  priceInWei */\n  0x00\n    /* \"contracts/Item.sol\":356:380  priceInWei = _priceInWei */\n  dup2\n  swap1\n  sstore\n  pop\n    /* \"contracts/Item.sol\":403:413  _itemIndex */\n  dup1\n    /* \"contracts/Item.sol\":391:400  itemIndex */\n  0x02\n    /* \"contracts/Item.sol\":391:413  itemIndex = _itemIndex */\n  dup2\n  swap1\n  sstore\n  pop\n    /* \"contracts/Item.sol\":230:421  constructor(ItemManager _parentContract,uint _priceInWei,uint _itemIndex){\r... */\n  pop\n  pop\n  pop\n    /* \"contracts/Item.sol\":90:865  contract Item{\r... */\n  jump(tag_6)\n    /* \"#utility.yul\":7:188   */\ntag_8:\n    /* \"#utility.yul\":83:88   */\n  0x00\n    /* \"#utility.yul\":114:120   */\n  dup2\n    /* \"#utility.yul\":108:121   */\n  mload\n    /* \"#utility.yul\":99:121   */\n  swap1\n  pop\n    /* \"#utility.yul\":130:182   */\n  tag_10\n    /* \"#utility.yul\":176:181   */\n  dup2\n    /* \"#utility.yul\":130:182   */\n  tag_11\n  jump\t// in\ntag_10:\n    /* \"#utility.yul\":7:188   */\n  swap3\n  swap2\n  pop\n  pop\n  jump\t// out\n    /* \"#utility.yul\":194:337   */\ntag_12:\n    /* \"#utility.yul\":251:256   */\n  0x00\n    /* \"#utility.yul\":282:288   */\n  dup2\n    /* \"#utility.yul\":276:289   */\n  mload\n    /* \"#utility.yul\":267:289   */\n  swap1\n  pop\n    /* \"#utility.yul\":298:331   */\n  tag_14\n    /* \"#utility.yul\":325:330   */\n  dup2\n    /* \"#utility.yul\":298:331   */\n  tag_15\n  jump\t// in\ntag_14:\n    /* \"#utility.yul\":194:337   */\n  swap3\n  swap2\n  pop\n  pop\n  jump\t// out\n    /* \"#utility.yul\":343:1044   */\ntag_3:\n    /* \"#utility.yul\":450:456   */\n  0x00\n    /* \"#utility.yul\":458:464   */\n  dup1\n    /* \"#utility.yul\":466:472   */\n  0x00\n    /* \"#utility.yul\":515:517   */\n  0x60\n    /* \"#utility.yul\":503:512   */\n  dup5\n    /* \"#utility.yul\":494:501   */\n  dup7\n    /* \"#utility.yul\":490:513   */\n  sub\n    /* \"#utility.yul\":486:518   */\n  slt\n    /* \"#utility.yul\":483:602   */\n  iszero\n  tag_17\n  jumpi\n    /* \"#utility.yul\":521:600   */\n  tag_18\n  tag_19\n  jump\t// in\ntag_18:\n    /* \"#utility.yul\":483:602   */\ntag_17:\n    /* \"#utility.yul\":641:642   */\n  0x00\n    /* \"#utility.yul\":666:749   */\n  tag_20\n    /* \"#utility.yul\":741:748   */\n  dup7\n    /* \"#utility.yul\":732:738   */\n  dup3\n    /* \"#utility.yul\":721:730   */\n  dup8\n    /* \"#utility.yul\":717:739   */\n  add\n    /* \"#utility.yul\":666:749   */\n  tag_8\n  jump\t// in\ntag_20:\n    /* \"#utility.yul\":656:749   */\n  swap4\n  pop\n    /* \"#utility.yul\":612:759   */\n  pop\n    /* \"#utility.yul\":798:800   */\n  0x20\n    /* \"#utility.yul\":824:888   */\n  tag_21\n    /* \"#utility.yul\":880:887   */\n  dup7\n    /* \"#utility.yul\":871:877   */\n  dup3\n    /* \"#utility.yul\":860:869   */\n  dup8\n    /* \"#utility.yul\":856:878   */\n  add\n    /* \"#utility.yul\":824:888   */\n  tag_12\n  jump\t// in\ntag_21:\n    /* \"#utility.yul\":814:888   */\n  swap3\n  pop\n    /* \"#utility.yul\":769:898   */\n  pop\n    /* \"#utility.yul\":937:939   */\n  0x40\n    /* \"#utility.yul\":963:1027   */\n  tag_22\n    /* \"#utility.yul\":1019:1026   */\n  dup7\n    /* \"#utility.yul\":1010:1016   */\n  dup3\n    /* \"#utility.yul\":999:1008   */\n  dup8\n    /* \"#utility.yul\":995:1017   */\n  add\n    /* \"#utility.yul\":963:1027   */\n  tag_12\n  jump\t// in\ntag_22:\n    /* \"#utility.yul\":953:1027   */\n  swap2\n  pop\n    /* \"#utility.yul\":908:1037   */\n  pop\n    /* \"#utility.yul\":343:1044   */\n  swap3\n  pop\n  swap3\n  pop\n  swap3\n  jump\t// out\n    /* \"#utility.yul\":1131:1227   */\ntag_25:\n    /* \"#utility.yul\":1168:1175   */\n  0x00\n    /* \"#utility.yul\":1197:1221   */\n  tag_27\n    /* \"#utility.yul\":1215:1220   */\n  dup3\n    /* \"#utility.yul\":1197:1221   */\n  tag_28\n  jump\t// in\ntag_27:\n    /* \"#utility.yul\":1186:1221   */\n  swap1\n  pop\n    /* \"#utility.yul\":1131:1227   */\n  swap2\n  swap1\n  pop\n  jump\t// out\n    /* \"#utility.yul\":1233:1348   */\ntag_29:\n    /* \"#utility.yul\":1289:1296   */\n  0x00\n    /* \"#utility.yul\":1318:1342   */\n  tag_31\n    /* \"#utility.yul\":1336:1341   */\n  dup3\n    /* \"#utility.yul\":1318:1342   */\n  tag_25\n  jump\t// in\ntag_31:\n    /* \"#utility.yul\":1307:1342   */\n  swap1\n  pop\n    /* \"#utility.yul\":1233:1348   */\n  swap2\n  swap1\n  pop\n  jump\t// out\n    /* \"#utility.yul\":1354:1480   */\ntag_28:\n    /* \"#utility.yul\":1391:1398   */\n  0x00\n    /* \"#utility.yul\":1431:1473   */\n  0xffffffffffffffffffffffffffffffffffffffff\n    /* \"#utility.yul\":1424:1429   */\n  dup3\n    /* \"#utility.yul\":1420:1474   */\n  and\n    /* \"#utility.yul\":1409:1474   */\n  swap1\n  pop\n    /* \"#utility.yul\":1354:1480   */\n  swap2\n  swap1\n  pop\n  jump\t// out\n    /* \"#utility.yul\":1486:1563   */\ntag_33:\n    /* \"#utility.yul\":1523:1530   */\n  0x00\n    /* \"#utility.yul\":1552:1557   */\n  dup2\n    /* \"#utility.yul\":1541:1557   */\n  swap1\n  pop\n    /* \"#utility.yul\":1486:1563   */\n  swap2\n  swap1\n  pop\n  jump\t// out\n    /* \"#utility.yul\":1692:1809   */\ntag_19:\n    /* \"#utility.yul\":1801:1802   */\n  0x00\n    /* \"#utility.yul\":1798:1799   */\n  dup1\n    /* \"#utility.yul\":1791:1803   */\n  revert\n    /* \"#utility.yul\":1815:1975   */\ntag_11:\n    /* \"#utility.yul\":1907:1950   */\n  tag_39\n    /* \"#utility.yul\":1944:1949   */\n  dup2\n    /* \"#utility.yul\":1907:1950   */\n  tag_29\n  jump\t// in\ntag_39:\n    /* \"#utility.yul\":1900:1905   */\n  dup2\n    /* \"#utility.yul\":1897:1951   */\n  eq\n    /* \"#utility.yul\":1887:1969   */\n  tag_40\n  jumpi\n    /* \"#utility.yul\":1965:1966   */\n  0x00\n    /* \"#utility.yul\":1962:1963   */\n  dup1\n    /* \"#utility.yul\":1955:1967   */\n  revert\n    /* \"#utility.yul\":1887:1969   */\ntag_40:\n    /* \"#utility.yul\":1815:1975   */\n  pop\n  jump\t// out\n    /* \"#utility.yul\":1981:2103   */\ntag_15:\n    /* \"#utility.yul\":2054:2078   */\n  tag_42\n    /* \"#utility.yul\":2072:2077   */\n  dup2\n    /* \"#utility.yul\":2054:2078   */\n  tag_33\n  jump\t// in\ntag_42:\n    /* \"#utility.yul\":2047:2052   */\n  dup2\n    /* \"#utility.yul\":2044:2079   */\n  eq\n    /* \"#utility.yul\":2034:2097   */\n  tag_43\n  jumpi\n    /* \"#utility.yul\":2093:2094   */\n  0x00\n    /* \"#utility.yul\":2090:2091   */\n  dup1\n    /* \"#utility.yul\":2083:2095   */\n  revert\n    /* \"#utility.yul\":2034:2097   */\ntag_43:\n    /* \"#utility.yul\":1981:2103   */\n  pop\n  jump\t// out\n    /* \"contracts/Item.sol\":90:865  contract Item{\r... */\ntag_6:\n  dataSize(sub_0)\n  dup1\n  dataOffset(sub_0)\n  0x00\n  codecopy\n  0x00\n  return\nstop\n\nsub_0: assembly {\n        /* \"contracts/Item.sol\":90:865  contract Item{\r... */\n      mstore(0x40, 0x80)\n      jumpi(tag_1, lt(calldatasize, 0x04))\n      shr(0xe0, calldataload(0x00))\n      dup1\n      0x3c8da588\n      eq\n      tag_3\n      jumpi\n      dup1\n      0x89794d00\n      eq\n      tag_4\n      jumpi\n      dup1\n      0xe07bb1a7\n      eq\n      tag_5\n      jumpi\n      jump(tag_2)\n    tag_1:\n      jumpi(tag_2, calldatasize)\n        /* \"contracts/Item.sol\":487:488  0 */\n      0x00\n        /* \"contracts/Item.sol\":474:483  pricePaid */\n      sload(0x01)\n        /* \"contracts/Item.sol\":474:488  pricePaid == 0 */\n      eq\n        /* \"contracts/Item.sol\":466:513  require(pricePaid == 0, \"Item is paid already\") */\n      tag_8\n      jumpi\n      mload(0x40)\n      0x08c379a000000000000000000000000000000000000000000000000000000000\n      dup2\n      mstore\n      0x04\n      add\n      tag_9\n      swap1\n      tag_10\n      jump\t// in\n    tag_9:\n      mload(0x40)\n      dup1\n      swap2\n      sub\n      swap1\n      revert\n    tag_8:\n        /* \"contracts/Item.sol\":546:555  msg.value */\n      callvalue\n        /* \"contracts/Item.sol\":532:542  priceInWei */\n      sload(0x00)\n        /* \"contracts/Item.sol\":532:555  priceInWei == msg.value */\n      eq\n        /* \"contracts/Item.sol\":524:585  require(priceInWei == msg.value,\"Only full payments allowed\") */\n      tag_11\n      jumpi\n      mload(0x40)\n      0x08c379a000000000000000000000000000000000000000000000000000000000\n      dup2\n      mstore\n      0x04\n      add\n      tag_12\n      swap1\n      tag_13\n      jump\t// in\n    tag_12:\n      mload(0x40)\n      dup1\n      swap2\n      sub\n      swap1\n      revert\n    tag_11:\n        /* \"contracts/Item.sol\":609:618  msg.value */\n      callvalue\n        /* \"contracts/Item.sol\":596:605  pricePaid */\n      0x01\n      0x00\n        /* \"contracts/Item.sol\":596:618  pricePaid += msg.value */\n      dup3\n      dup3\n      sload\n      tag_14\n      swap2\n      swap1\n      tag_15\n      jump\t// in\n    tag_14:\n      swap3\n      pop\n      pop\n      dup2\n      swap1\n      sstore\n      pop\n        /* \"contracts/Item.sol\":631:643  bool success */\n      0x00\n        /* \"contracts/Item.sol\":657:671  parentContract */\n      0x03\n      0x00\n      swap1\n      sload\n      swap1\n      0x0100\n      exp\n      swap1\n      div\n      0xffffffffffffffffffffffffffffffffffffffff\n      and\n        /* \"contracts/Item.sol\":649:677  address(parentContract).call */\n      0xffffffffffffffffffffffffffffffffffffffff\n      and\n        /* \"contracts/Item.sol\":684:693  msg.value */\n      callvalue\n        /* \"contracts/Item.sol\":745:754  itemIndex */\n      sload(0x02)\n        /* \"contracts/Item.sol\":695:755  abi.encodeWithSignature(\"triggerPayment(uint256)\",itemIndex) */\n      add(0x24, mload(0x40))\n      tag_16\n      swap2\n      swap1\n      tag_17\n      jump\t// in\n    tag_16:\n      mload(0x40)\n      0x20\n      dup2\n      dup4\n      sub\n      sub\n      dup2\n      mstore\n      swap1\n      0x40\n      mstore\n      and(not(0xffffffffffffffffffffffffffffffffffffffffffffffffffffffff), 0x800fb83f00000000000000000000000000000000000000000000000000000000)\n      0x20\n      dup3\n      add\n      dup1\n      mload\n      0xffffffffffffffffffffffffffffffffffffffffffffffffffffffff\n      dup4\n      dup2\n      dup4\n      and\n      or\n      dup4\n      mstore\n      pop\n      pop\n      pop\n      pop\n        /* \"contracts/Item.sol\":649:756  address(parentContract).call{value:msg.value}(abi.encodeWithSignature(\"triggerPayment(uint256)\",itemIndex)) */\n      mload(0x40)\n      tag_18\n      swap2\n      swap1\n      tag_19\n      jump\t// in\n    tag_18:\n      0x00\n      mload(0x40)\n      dup1\n      dup4\n      sub\n      dup2\n      dup6\n      dup8\n      gas\n      call\n      swap3\n      pop\n      pop\n      pop\n      returndatasize\n      dup1\n      0x00\n      dup2\n      eq\n      tag_22\n      jumpi\n      mload(0x40)\n      swap2\n      pop\n      and(add(returndatasize, 0x3f), not(0x1f))\n      dup3\n      add\n      0x40\n      mstore\n      returndatasize\n      dup3\n      mstore\n      returndatasize\n      0x00\n      0x20\n      dup5\n      add\n      returndatacopy\n      jump(tag_21)\n    tag_22:\n      0x60\n      swap2\n      pop\n    tag_21:\n      pop\n        /* \"contracts/Item.sol\":630:756  (bool success, ) = address(parentContract).call{value:msg.value}(abi.encodeWithSignature(\"triggerPayment(uint256)\",itemIndex)) */\n      pop\n      swap1\n      pop\n        /* \"contracts/Item.sol\":777:784  success */\n      dup1\n        /* \"contracts/Item.sol\":769:818  require(success,\"transaction was not successful\") */\n      tag_23\n      jumpi\n      mload(0x40)\n      0x08c379a000000000000000000000000000000000000000000000000000000000\n      dup2\n      mstore\n      0x04\n      add\n      tag_24\n      swap1\n      tag_25\n      jump\t// in\n    tag_24:\n      mload(0x40)\n      dup1\n      swap2\n      sub\n      swap1\n      revert\n    tag_23:\n        /* \"contracts/Item.sol\":455:826  {\r... */\n      pop\n        /* \"contracts/Item.sol\":90:865  contract Item{\r... */\n      stop\n    tag_2:\n      callvalue\n      dup1\n      iszero\n      tag_26\n      jumpi\n      0x00\n      dup1\n      revert\n    tag_26:\n      pop\n      stop\n        /* \"contracts/Item.sol\":110:132  uint public priceInWei */\n    tag_3:\n      callvalue\n      dup1\n      iszero\n      tag_29\n      jumpi\n      0x00\n      dup1\n      revert\n    tag_29:\n      pop\n      tag_30\n      tag_31\n      jump\t// in\n    tag_30:\n      mload(0x40)\n      tag_32\n      swap2\n      swap1\n      tag_17\n      jump\t// in\n    tag_32:\n      mload(0x40)\n      dup1\n      swap2\n      sub\n      swap1\n      return\n        /* \"contracts/Item.sol\":139:160  uint public pricePaid */\n    tag_4:\n      callvalue\n      dup1\n      iszero\n      tag_33\n      jumpi\n      0x00\n      dup1\n      revert\n    tag_33:\n      pop\n      tag_34\n      tag_35\n      jump\t// in\n    tag_34:\n      mload(0x40)\n      tag_36\n      swap2\n      swap1\n      tag_17\n      jump\t// in\n    tag_36:\n      mload(0x40)\n      dup1\n      swap2\n      sub\n      swap1\n      return\n        /* \"contracts/Item.sol\":167:188  uint public itemIndex */\n    tag_5:\n      callvalue\n      dup1\n      iszero\n      tag_37\n      jumpi\n      0x00\n      dup1\n      revert\n    tag_37:\n      pop\n      tag_38\n      tag_39\n      jump\t// in\n    tag_38:\n      mload(0x40)\n      tag_40\n      swap2\n      swap1\n      tag_17\n      jump\t// in\n    tag_40:\n      mload(0x40)\n      dup1\n      swap2\n      sub\n      swap1\n      return\n        /* \"contracts/Item.sol\":110:132  uint public priceInWei */\n    tag_31:\n      sload(0x00)\n      dup2\n      jump\t// out\n        /* \"contracts/Item.sol\":139:160  uint public pricePaid */\n    tag_35:\n      sload(0x01)\n      dup2\n      jump\t// out\n        /* \"contracts/Item.sol\":167:188  uint public itemIndex */\n    tag_39:\n      sload(0x02)\n      dup2\n      jump\t// out\n        /* \"#utility.yul\":7:380   */\n    tag_42:\n        /* \"#utility.yul\":111:114   */\n      0x00\n        /* \"#utility.yul\":139:177   */\n      tag_44\n        /* \"#utility.yul\":171:176   */\n      dup3\n        /* \"#utility.yul\":139:177   */\n      tag_45\n      jump\t// in\n    tag_44:\n        /* \"#utility.yul\":193:281   */\n      tag_46\n        /* \"#utility.yul\":274:280   */\n      dup2\n        /* \"#utility.yul\":269:272   */\n      dup6\n        /* \"#utility.yul\":193:281   */\n      tag_47\n      jump\t// in\n    tag_46:\n        /* \"#utility.yul\":186:281   */\n      swap4\n      pop\n        /* \"#utility.yul\":290:342   */\n      tag_48\n        /* \"#utility.yul\":335:341   */\n      dup2\n        /* \"#utility.yul\":330:333   */\n      dup6\n        /* \"#utility.yul\":323:327   */\n      0x20\n        /* \"#utility.yul\":316:321   */\n      dup7\n        /* \"#utility.yul\":312:328   */\n      add\n        /* \"#utility.yul\":290:342   */\n      tag_49\n      jump\t// in\n    tag_48:\n        /* \"#utility.yul\":367:373   */\n      dup1\n        /* \"#utility.yul\":362:365   */\n      dup5\n        /* \"#utility.yul\":358:374   */\n      add\n        /* \"#utility.yul\":351:374   */\n      swap2\n      pop\n        /* \"#utility.yul\":115:380   */\n      pop\n        /* \"#utility.yul\":7:380   */\n      swap3\n      swap2\n      pop\n      pop\n      jump\t// out\n        /* \"#utility.yul\":386:752   */\n    tag_50:\n        /* \"#utility.yul\":528:531   */\n      0x00\n        /* \"#utility.yul\":549:616   */\n      tag_52\n        /* \"#utility.yul\":613:615   */\n      0x14\n        /* \"#utility.yul\":608:611   */\n      dup4\n        /* \"#utility.yul\":549:616   */\n      tag_53\n      jump\t// in\n    tag_52:\n        /* \"#utility.yul\":542:616   */\n      swap2\n      pop\n        /* \"#utility.yul\":625:718   */\n      tag_54\n        /* \"#utility.yul\":714:717   */\n      dup3\n        /* \"#utility.yul\":625:718   */\n      tag_55\n      jump\t// in\n    tag_54:\n        /* \"#utility.yul\":743:745   */\n      0x20\n        /* \"#utility.yul\":738:741   */\n      dup3\n        /* \"#utility.yul\":734:746   */\n      add\n        /* \"#utility.yul\":727:746   */\n      swap1\n      pop\n        /* \"#utility.yul\":386:752   */\n      swap2\n      swap1\n      pop\n      jump\t// out\n        /* \"#utility.yul\":758:1124   */\n    tag_56:\n        /* \"#utility.yul\":900:903   */\n      0x00\n        /* \"#utility.yul\":921:988   */\n      tag_58\n        /* \"#utility.yul\":985:987   */\n      0x1e\n        /* \"#utility.yul\":980:983   */\n      dup4\n        /* \"#utility.yul\":921:988   */\n      tag_53\n      jump\t// in\n    tag_58:\n        /* \"#utility.yul\":914:988   */\n      swap2\n      pop\n        /* \"#utility.yul\":997:1090   */\n      tag_59\n        /* \"#utility.yul\":1086:1089   */\n      dup3\n        /* \"#utility.yul\":997:1090   */\n      tag_60\n      jump\t// in\n    tag_59:\n        /* \"#utility.yul\":1115:1117   */\n      0x20\n        /* \"#utility.yul\":1110:1113   */\n      dup3\n        /* \"#utility.yul\":1106:1118   */\n      add\n        /* \"#utility.yul\":1099:1118   */\n      swap1\n      pop\n        /* \"#utility.yul\":758:1124   */\n      swap2\n      swap1\n      pop\n      jump\t// out\n        /* \"#utility.yul\":1130:1496   */\n    tag_61:\n        /* \"#utility.yul\":1272:1275   */\n      0x00\n        /* \"#utility.yul\":1293:1360   */\n      tag_63\n        /* \"#utility.yul\":1357:1359   */\n      0x1a\n        /* \"#utility.yul\":1352:1355   */\n      dup4\n        /* \"#utility.yul\":1293:1360   */\n      tag_53\n      jump\t// in\n    tag_63:\n        /* \"#utility.yul\":1286:1360   */\n      swap2\n      pop\n        /* \"#utility.yul\":1369:1462   */\n      tag_64\n        /* \"#utility.yul\":1458:1461   */\n      dup3\n        /* \"#utility.yul\":1369:1462   */\n      tag_65\n      jump\t// in\n    tag_64:\n        /* \"#utility.yul\":1487:1489   */\n      0x20\n        /* \"#utility.yul\":1482:1485   */\n      dup3\n        /* \"#utility.yul\":1478:1490   */\n      add\n        /* \"#utility.yul\":1471:1490   */\n      swap1\n      pop\n        /* \"#utility.yul\":1130:1496   */\n      swap2\n      swap1\n      pop\n      jump\t// out\n        /* \"#utility.yul\":1502:1620   */\n    tag_66:\n        /* \"#utility.yul\":1589:1613   */\n      tag_68\n        /* \"#utility.yul\":1607:1612   */\n      dup2\n        /* \"#utility.yul\":1589:1613   */\n      tag_69\n      jump\t// in\n    tag_68:\n        /* \"#utility.yul\":1584:1587   */\n      dup3\n        /* \"#utility.yul\":1577:1614   */\n      mstore\n        /* \"#utility.yul\":1502:1620   */\n      pop\n      pop\n      jump\t// out\n        /* \"#utility.yul\":1626:1897   */\n    tag_19:\n        /* \"#utility.yul\":1756:1759   */\n      0x00\n        /* \"#utility.yul\":1778:1871   */\n      tag_71\n        /* \"#utility.yul\":1867:1870   */\n      dup3\n        /* \"#utility.yul\":1858:1864   */\n      dup5\n        /* \"#utility.yul\":1778:1871   */\n      tag_42\n      jump\t// in\n    tag_71:\n        /* \"#utility.yul\":1771:1871   */\n      swap2\n      pop\n        /* \"#utility.yul\":1888:1891   */\n      dup2\n        /* \"#utility.yul\":1881:1891   */\n      swap1\n      pop\n        /* \"#utility.yul\":1626:1897   */\n      swap3\n      swap2\n      pop\n      pop\n      jump\t// out\n        /* \"#utility.yul\":1903:2322   */\n    tag_10:\n        /* \"#utility.yul\":2069:2073   */\n      0x00\n        /* \"#utility.yul\":2107:2109   */\n      0x20\n        /* \"#utility.yul\":2096:2105   */\n      dup3\n        /* \"#utility.yul\":2092:2110   */\n      add\n        /* \"#utility.yul\":2084:2110   */\n      swap1\n      pop\n        /* \"#utility.yul\":2156:2165   */\n      dup2\n        /* \"#utility.yul\":2150:2154   */\n      dup2\n        /* \"#utility.yul\":2146:2166   */\n      sub\n        /* \"#utility.yul\":2142:2143   */\n      0x00\n        /* \"#utility.yul\":2131:2140   */\n      dup4\n        /* \"#utility.yul\":2127:2144   */\n      add\n        /* \"#utility.yul\":2120:2167   */\n      mstore\n        /* \"#utility.yul\":2184:2315   */\n      tag_73\n        /* \"#utility.yul\":2310:2314   */\n      dup2\n        /* \"#utility.yul\":2184:2315   */\n      tag_50\n      jump\t// in\n    tag_73:\n        /* \"#utility.yul\":2176:2315   */\n      swap1\n      pop\n        /* \"#utility.yul\":1903:2322   */\n      swap2\n      swap1\n      pop\n      jump\t// out\n        /* \"#utility.yul\":2328:2747   */\n    tag_25:\n        /* \"#utility.yul\":2494:2498   */\n      0x00\n        /* \"#utility.yul\":2532:2534   */\n      0x20\n        /* \"#utility.yul\":2521:2530   */\n      dup3\n        /* \"#utility.yul\":2517:2535   */\n      add\n        /* \"#utility.yul\":2509:2535   */\n      swap1\n      pop\n        /* \"#utility.yul\":2581:2590   */\n      dup2\n        /* \"#utility.yul\":2575:2579   */\n      dup2\n        /* \"#utility.yul\":2571:2591   */\n      sub\n        /* \"#utility.yul\":2567:2568   */\n      0x00\n        /* \"#utility.yul\":2556:2565   */\n      dup4\n        /* \"#utility.yul\":2552:2569   */\n      add\n        /* \"#utility.yul\":2545:2592   */\n      mstore\n        /* \"#utility.yul\":2609:2740   */\n      tag_75\n        /* \"#utility.yul\":2735:2739   */\n      dup2\n        /* \"#utility.yul\":2609:2740   */\n      tag_56\n      jump\t// in\n    tag_75:\n        /* \"#utility.yul\":2601:2740   */\n      swap1\n      pop\n        /* \"#utility.yul\":2328:2747   */\n      swap2\n      swap1\n      pop\n      jump\t// out\n        /* \"#utility.yul\":2753:3172   */\n    tag_13:\n        /* \"#utility.yul\":2919:2923   */\n      0x00\n        /* \"#utility.yul\":2957:2959   */\n      0x20\n        /* \"#utility.yul\":2946:2955   */\n      dup3\n        /* \"#utility.yul\":2942:2960   */\n      add\n        /* \"#utility.yul\":2934:2960   */\n      swap1\n      pop\n        /* \"#utility.yul\":3006:3015   */\n      dup2\n        /* \"#utility.yul\":3000:3004   */\n      dup2\n        /* \"#utility.yul\":2996:3016   */\n      sub\n        /* \"#utility.yul\":2992:2993   */\n      0x00\n        /* \"#utility.yul\":2981:2990   */\n      dup4\n        /* \"#utility.yul\":2977:2994   */\n      add\n        /* \"#utility.yul\":2970:3017   */\n      mstore\n        /* \"#utility.yul\":3034:3165   */\n      tag_77\n        /* \"#utility.yul\":3160:3164   */\n      dup2\n        /* \"#utility.yul\":3034:3165   */\n      tag_61\n      jump\t// in\n    tag_77:\n        /* \"#utility.yul\":3026:3165   */\n      swap1\n      pop\n        /* \"#utility.yul\":2753:3172   */\n      swap2\n      swap1\n      pop\n      jump\t// out\n        /* \"#utility.yul\":3178:3400   */\n    tag_17:\n        /* \"#utility.yul\":3271:3275   */\n      0x00\n        /* \"#utility.yul\":3309:3311   */\n      0x20\n        /* \"#utility.yul\":3298:3307   */\n      dup3\n        /* \"#utility.yul\":3294:3312   */\n      add\n        /* \"#utility.yul\":3286:3312   */\n      swap1\n      pop\n        /* \"#utility.yul\":3322:3393   */\n      tag_79\n        /* \"#utility.yul\":3390:3391   */\n      0x00\n        /* \"#utility.yul\":3379:3388   */\n      dup4\n        /* \"#utility.yul\":3375:3392   */\n      add\n        /* \"#utility.yul\":3366:3372   */\n      dup5\n        /* \"#utility.yul\":3322:3393   */\n      tag_66\n      jump\t// in\n    tag_79:\n        /* \"#utility.yul\":3178:3400   */\n      swap3\n      swap2\n      pop\n      pop\n      jump\t// out\n        /* \"#utility.yul\":3406:3504   */\n    tag_45:\n        /* \"#utility.yul\":3457:3463   */\n      0x00\n        /* \"#utility.yul\":3491:3496   */\n      dup2\n        /* \"#utility.yul\":3485:3497   */\n      mload\n        /* \"#utility.yul\":3475:3497   */\n      swap1\n      pop\n        /* \"#utility.yul\":3406:3504   */\n      swap2\n      swap1\n      pop\n      jump\t// out\n        /* \"#utility.yul\":3510:3657   */\n    tag_47:\n        /* \"#utility.yul\":3611:3622   */\n      0x00\n        /* \"#utility.yul\":3648:3651   */\n      dup2\n        /* \"#utility.yul\":3633:3651   */\n      swap1\n      pop\n        /* \"#utility.yul\":3510:3657   */\n      swap3\n      swap2\n      pop\n      pop\n      jump\t// out\n        /* \"#utility.yul\":3663:3832   */\n    tag_53:\n        /* \"#utility.yul\":3747:3758   */\n      0x00\n        /* \"#utility.yul\":3781:3787   */\n      dup3\n        /* \"#utility.yul\":3776:3779   */\n      dup3\n        /* \"#utility.yul\":3769:3788   */\n      mstore\n        /* \"#utility.yul\":3821:3825   */\n      0x20\n        /* \"#utility.yul\":3816:3819   */\n      dup3\n        /* \"#utility.yul\":3812:3826   */\n      add\n        /* \"#utility.yul\":3797:3826   */\n      swap1\n      pop\n        /* \"#utility.yul\":3663:3832   */\n      swap3\n      swap2\n      pop\n      pop\n      jump\t// out\n        /* \"#utility.yul\":3838:4143   */\n    tag_15:\n        /* \"#utility.yul\":3878:3881   */\n      0x00\n        /* \"#utility.yul\":3897:3917   */\n      tag_84\n        /* \"#utility.yul\":3915:3916   */\n      dup3\n        /* \"#utility.yul\":3897:3917   */\n      tag_69\n      jump\t// in\n    tag_84:\n        /* \"#utility.yul\":3892:3917   */\n      swap2\n      pop\n        /* \"#utility.yul\":3931:3951   */\n      tag_85\n        /* \"#utility.yul\":3949:3950   */\n      dup4\n        /* \"#utility.yul\":3931:3951   */\n      tag_69\n      jump\t// in\n    tag_85:\n        /* \"#utility.yul\":3926:3951   */\n      swap3\n      pop\n        /* \"#utility.yul\":4085:4086   */\n      dup3\n        /* \"#utility.yul\":4017:4083   */\n      0xffffffffffffffffffffffffffffffffffffffffffffffffffffffffffffffff\n        /* \"#utility.yul\":4013:4087   */\n      sub\n        /* \"#utility.yul\":4010:4011   */\n      dup3\n        /* \"#utility.yul\":4007:4088   */\n      gt\n        /* \"#utility.yul\":4004:4111   */\n      iszero\n      tag_86\n      jumpi\n        /* \"#utility.yul\":4091:4109   */\n      tag_87\n      tag_88\n      jump\t// in\n    tag_87:\n        /* \"#utility.yul\":4004:4111   */\n    tag_86:\n        /* \"#utility.yul\":4135:4136   */\n      dup3\n        /* \"#utility.yul\":4132:4133   */\n      dup3\n        /* \"#utility.yul\":4128:4137   */\n      add\n        /* \"#utility.yul\":4121:4137   */\n      swap1\n      pop\n        /* \"#utility.yul\":3838:4143   */\n      swap3\n      swap2\n      pop\n      pop\n      jump\t// out\n        /* \"#utility.yul\":4149:4226   */\n    tag_69:\n        /* \"#utility.yul\":4186:4193   */\n      0x00\n        /* \"#utility.yul\":4215:4220   */\n      dup2\n        /* \"#utility.yul\":4204:4220   */\n      swap1\n      pop\n        /* \"#utility.yul\":4149:4226   */\n      swap2\n      swap1\n      pop\n      jump\t// out\n        /* \"#utility.yul\":4232:4539   */\n    tag_49:\n        /* \"#utility.yul\":4300:4301   */\n      0x00\n        /* \"#utility.yul\":4310:4423   */\n    tag_91:\n        /* \"#utility.yul\":4324:4330   */\n      dup4\n        /* \"#utility.yul\":4321:4322   */\n      dup2\n        /* \"#utility.yul\":4318:4331   */\n      lt\n        /* \"#utility.yul\":4310:4423   */\n      iszero\n      tag_93\n      jumpi\n        /* \"#utility.yul\":4409:4410   */\n      dup1\n        /* \"#utility.yul\":4404:4407   */\n      dup3\n        /* \"#utility.yul\":4400:4411   */\n      add\n        /* \"#utility.yul\":4394:4412   */\n      mload\n        /* \"#utility.yul\":4390:4391   */\n      dup2\n        /* \"#utility.yul\":4385:4388   */\n      dup5\n        /* \"#utility.yul\":4381:4392   */\n      add\n        /* \"#utility.yul\":4374:4413   */\n      mstore\n        /* \"#utility.yul\":4346:4348   */\n      0x20\n        /* \"#utility.yul\":4343:4344   */\n      dup2\n        /* \"#utility.yul\":4339:4349   */\n      add\n        /* \"#utility.yul\":4334:4349   */\n      swap1\n      pop\n        /* \"#utility.yul\":4310:4423   */\n      jump(tag_91)\n    tag_93:\n        /* \"#utility.yul\":4441:4447   */\n      dup4\n        /* \"#utility.yul\":4438:4439   */\n      dup2\n        /* \"#utility.yul\":4435:4448   */\n      gt\n        /* \"#utility.yul\":4432:4533   */\n      iszero\n      tag_94\n      jumpi\n        /* \"#utility.yul\":4521:4522   */\n      0x00\n        /* \"#utility.yul\":4512:4518   */\n      dup5\n        /* \"#utility.yul\":4507:4510   */\n      dup5\n        /* \"#utility.yul\":4503:4519   */\n      add\n        /* \"#utility.yul\":4496:4523   */\n      mstore\n        /* \"#utility.yul\":4432:4533   */\n    tag_94:\n        /* \"#utility.yul\":4281:4539   */\n      pop\n        /* \"#utility.yul\":4232:4539   */\n      pop\n      pop\n      pop\n      jump\t// out\n        /* \"#utility.yul\":4545:4725   */\n    tag_88:\n        /* \"#utility.yul\":4593:4670   */\n      0x4e487b7100000000000000000000000000000000000000000000000000000000\n        /* \"#utility.yul\":4590:4591   */\n      0x00\n        /* \"#utility.yul\":4583:4671   */\n      mstore\n        /* \"#utility.yul\":4690:4694   */\n      0x11\n        /* \"#utility.yul\":4687:4688   */\n      0x04\n        /* \"#utility.yul\":4680:4695   */\n      mstore\n        /* \"#utility.yul\":4714:4718   */\n      0x24\n        /* \"#utility.yul\":4711:4712   */\n      0x00\n        /* \"#utility.yul\":4704:4719   */\n      revert\n        /* \"#utility.yul\":4731:4901   */\n    tag_55:\n        /* \"#utility.yul\":4871:4893   */\n      0x4974656d206973207061696420616c7265616479000000000000000000000000\n        /* \"#utility.yul\":4867:4868   */\n      0x00\n        /* \"#utility.yul\":4859:4865   */\n      dup3\n        /* \"#utility.yul\":4855:4869   */\n      add\n        /* \"#utility.yul\":4848:4894   */\n      mstore\n        /* \"#utility.yul\":4731:4901   */\n      pop\n      jump\t// out\n        /* \"#utility.yul\":4907:5087   */\n    tag_60:\n        /* \"#utility.yul\":5047:5079   */\n      0x7472616e73616374696f6e20776173206e6f74207375636365737366756c0000\n        /* \"#utility.yul\":5043:5044   */\n      0x00\n        /* \"#utility.yul\":5035:5041   */\n      dup3\n        /* \"#utility.yul\":5031:5045   */\n      add\n        /* \"#utility.yul\":5024:5080   */\n      mstore\n        /* \"#utility.yul\":4907:5087   */\n      pop\n      jump\t// out\n        /* \"#utility.yul\":5093:5269   */\n    tag_65:\n        /* \"#utility.yul\":5233:5261   */\n      0x4f6e6c792066756c6c207061796d656e747320616c6c6f776564000000000000\n        /* \"#utility.yul\":5229:5230   */\n      0x00\n        /* \"#utility.yul\":5221:5227   */\n      dup3\n        /* \"#utility.yul\":5217:5231   */\n      add\n        /* \"#utility.yul\":5210:5262   */\n      mstore\n        /* \"#utility.yul\":5093:5269   */\n      pop\n      jump\t// out\n\n    auxdata: 0xa2646970667358221220a0527f3bdad5ef07c425cb9b071692f2130d22d3f14f6635b7e24ba96bb078d864736f6c63430008070033\n}\n",
				"bytecode": {
					"linkReferences": {},
					"object": "608060405234801561001057600080fd5b5060405161074e38038061074e833981810160405281019061003291906100b3565b82600360006101000a81548173ffffffffffffffffffffffffffffffffffffffff021916908373ffffffffffffffffffffffffffffffffffffffff1602179055508160008190555080600281905550505050610187565b60008151905061009881610159565b92915050565b6000815190506100ad81610170565b92915050565b6000806000606084860312156100cc576100cb610154565b5b60006100da86828701610089565b93505060206100eb8682870161009e565b92505060406100fc8682870161009e565b9150509250925092565b60006101118261012a565b9050919050565b600061012382610106565b9050919050565b600073ffffffffffffffffffffffffffffffffffffffff82169050919050565b6000819050919050565b600080fd5b61016281610118565b811461016d57600080fd5b50565b6101798161014a565b811461018457600080fd5b50565b6105b8806101966000396000f3fe6080604052600436106100385760003560e01c80633c8da5881461025057806389794d001461027b578063e07bb1a7146102a657610241565b3661024157600060015414610082576040517f08c379a0000000000000000000000000000000000000000000000000000000008152600401610079906103a3565b60405180910390fd5b34600054146100c6576040517f08c379a00000000000000000000000000000000000000000000000000000000081526004016100bd906103e3565b60405180910390fd5b34600160008282546100d89190610445565b925050819055506000600360009054906101000a900473ffffffffffffffffffffffffffffffffffffffff1673ffffffffffffffffffffffffffffffffffffffff163460025460405160240161012e9190610403565b6040516020818303038152906040527f800fb83f000000000000000000000000000000000000000000000000000000007bffffffffffffffffffffffffffffffffffffffffffffffffffffffff19166020820180517bffffffffffffffffffffffffffffffffffffffffffffffffffffffff83818316178352505050506040516101b8919061038c565b60006040518083038185875af1925050503d80600081146101f5576040519150601f19603f3d011682016040523d82523d6000602084013e6101fa565b606091505b505090508061023e576040517f08c379a0000000000000000000000000000000000000000000000000000000008152600401610235906103c3565b60405180910390fd5b50005b34801561024d57600080fd5b50005b34801561025c57600080fd5b506102656102d1565b6040516102729190610403565b60405180910390f35b34801561028757600080fd5b506102906102d7565b60405161029d9190610403565b60405180910390f35b3480156102b257600080fd5b506102bb6102dd565b6040516102c89190610403565b60405180910390f35b60005481565b60015481565b60025481565b60006102ee8261041e565b6102f88185610429565b93506103088185602086016104a5565b80840191505092915050565b6000610321601483610434565b915061032c82610507565b602082019050919050565b6000610344601e83610434565b915061034f82610530565b602082019050919050565b6000610367601a83610434565b915061037282610559565b602082019050919050565b6103868161049b565b82525050565b600061039882846102e3565b915081905092915050565b600060208201905081810360008301526103bc81610314565b9050919050565b600060208201905081810360008301526103dc81610337565b9050919050565b600060208201905081810360008301526103fc8161035a565b9050919050565b6000602082019050610418600083018461037d565b92915050565b600081519050919050565b600081905092915050565b600082825260208201905092915050565b60006104508261049b565b915061045b8361049b565b9250827fffffffffffffffffffffffffffffffffffffffffffffffffffffffffffffffff038211156104905761048f6104d8565b5b828201905092915050565b6000819050919050565b60005b838110156104c35780820151818401526020810190506104a8565b838111156104d2576000848401525b50505050565b7f4e487b7100000000000000000000000000000000000000000000000000000000600052601160045260246000fd5b7f4974656d206973207061696420616c7265616479000000000000000000000000600082015250565b7f7472616e73616374696f6e20776173206e6f74207375636365737366756c0000600082015250565b7f4f6e6c792066756c6c207061796d656e747320616c6c6f77656400000000000060008201525056fea2646970667358221220a0527f3bdad5ef07c425cb9b071692f2130d22d3f14f6635b7e24ba96bb078d864736f6c63430008070033",
					"opcodes": "PUSH1 0x80 PUSH1 0x40 MSTORE CALLVALUE DUP1 ISZERO PUSH2 0x10 JUMPI PUSH1 0x0 DUP1 REVERT JUMPDEST POP PUSH1 0x40 MLOAD PUSH2 0x74E CODESIZE SUB DUP1 PUSH2 0x74E DUP4 CODECOPY DUP2 DUP2 ADD PUSH1 0x40 MSTORE DUP2 ADD SWAP1 PUSH2 0x32 SWAP2 SWAP1 PUSH2 0xB3 JUMP JUMPDEST DUP3 PUSH1 0x3 PUSH1 0x0 PUSH2 0x100 EXP DUP2 SLOAD DUP2 PUSH20 0xFFFFFFFFFFFFFFFFFFFFFFFFFFFFFFFFFFFFFFFF MUL NOT AND SWAP1 DUP4 PUSH20 0xFFFFFFFFFFFFFFFFFFFFFFFFFFFFFFFFFFFFFFFF AND MUL OR SWAP1 SSTORE POP DUP2 PUSH1 0x0 DUP2 SWAP1 SSTORE POP DUP1 PUSH1 0x2 DUP2 SWAP1 SSTORE POP POP POP POP PUSH2 0x187 JUMP JUMPDEST PUSH1 0x0 DUP2 MLOAD SWAP1 POP PUSH2 0x98 DUP2 PUSH2 0x159 JUMP JUMPDEST SWAP3 SWAP2 POP POP JUMP JUMPDEST PUSH1 0x0 DUP2 MLOAD SWAP1 POP PUSH2 0xAD DUP2 PUSH2 0x170 JUMP JUMPDEST SWAP3 SWAP2 POP POP JUMP JUMPDEST PUSH1 0x0 DUP1 PUSH1 0x0 PUSH1 0x60 DUP5 DUP7 SUB SLT ISZERO PUSH2 0xCC JUMPI PUSH2 0xCB PUSH2 0x154 JUMP JUMPDEST JUMPDEST PUSH1 0x0 PUSH2 0xDA DUP7 DUP3 DUP8 ADD PUSH2 0x89 JUMP JUMPDEST SWAP4 POP POP PUSH1 0x20 PUSH2 0xEB DUP7 DUP3 DUP8 ADD PUSH2 0x9E JUMP JUMPDEST SWAP3 POP POP PUSH1 0x40 PUSH2 0xFC DUP7 DUP3 DUP8 ADD PUSH2 0x9E JUMP JUMPDEST SWAP2 POP POP SWAP3 POP SWAP3 POP SWAP3 JUMP JUMPDEST PUSH1 0x0 PUSH2 0x111 DUP3 PUSH2 0x12A JUMP JUMPDEST SWAP1 POP SWAP2 SWAP1 POP JUMP JUMPDEST PUSH1 0x0 PUSH2 0x123 DUP3 PUSH2 0x106 JUMP JUMPDEST SWAP1 POP SWAP2 SWAP1 POP JUMP JUMPDEST PUSH1 0x0 PUSH20 0xFFFFFFFFFFFFFFFFFFFFFFFFFFFFFFFFFFFFFFFF DUP3 AND SWAP1 POP SWAP2 SWAP1 POP JUMP JUMPDEST PUSH1 0x0 DUP2 SWAP1 POP SWAP2 SWAP1 POP JUMP JUMPDEST PUSH1 0x0 DUP1 REVERT JUMPDEST PUSH2 0x162 DUP2 PUSH2 0x118 JUMP JUMPDEST DUP2 EQ PUSH2 0x16D JUMPI PUSH1 0x0 DUP1 REVERT JUMPDEST POP JUMP JUMPDEST PUSH2 0x179 DUP2 PUSH2 0x14A JUMP JUMPDEST DUP2 EQ PUSH2 0x184 JUMPI PUSH1 0x0 DUP1 REVERT JUMPDEST POP JUMP JUMPDEST PUSH2 0x5B8 DUP1 PUSH2 0x196 PUSH1 0x0 CODECOPY PUSH1 0x0 RETURN INVALID PUSH1 0x80 PUSH1 0x40 MSTORE PUSH1 0x4 CALLDATASIZE LT PUSH2 0x38 JUMPI PUSH1 0x0 CALLDATALOAD PUSH1 0xE0 SHR DUP1 PUSH4 0x3C8DA588 EQ PUSH2 0x250 JUMPI DUP1 PUSH4 0x89794D00 EQ PUSH2 0x27B JUMPI DUP1 PUSH4 0xE07BB1A7 EQ PUSH2 0x2A6 JUMPI PUSH2 0x241 JUMP JUMPDEST CALLDATASIZE PUSH2 0x241 JUMPI PUSH1 0x0 PUSH1 0x1 SLOAD EQ PUSH2 0x82 JUMPI PUSH1 0x40 MLOAD PUSH32 0x8C379A000000000000000000000000000000000000000000000000000000000 DUP2 MSTORE PUSH1 0x4 ADD PUSH2 0x79 SWAP1 PUSH2 0x3A3 JUMP JUMPDEST PUSH1 0x40 MLOAD DUP1 SWAP2 SUB SWAP1 REVERT JUMPDEST CALLVALUE PUSH1 0x0 SLOAD EQ PUSH2 0xC6 JUMPI PUSH1 0x40 MLOAD PUSH32 0x8C379A000000000000000000000000000000000000000000000000000000000 DUP2 MSTORE PUSH1 0x4 ADD PUSH2 0xBD SWAP1 PUSH2 0x3E3 JUMP JUMPDEST PUSH1 0x40 MLOAD DUP1 SWAP2 SUB SWAP1 REVERT JUMPDEST CALLVALUE PUSH1 0x1 PUSH1 0x0 DUP3 DUP3 SLOAD PUSH2 0xD8 SWAP2 SWAP1 PUSH2 0x445 JUMP JUMPDEST SWAP3 POP POP DUP2 SWAP1 SSTORE POP PUSH1 0x0 PUSH1 0x3 PUSH1 0x0 SWAP1 SLOAD SWAP1 PUSH2 0x100 EXP SWAP1 DIV PUSH20 0xFFFFFFFFFFFFFFFFFFFFFFFFFFFFFFFFFFFFFFFF AND PUSH20 0xFFFFFFFFFFFFFFFFFFFFFFFFFFFFFFFFFFFFFFFF AND CALLVALUE PUSH1 0x2 SLOAD PUSH1 0x40 MLOAD PUSH1 0x24 ADD PUSH2 0x12E SWAP2 SWAP1 PUSH2 0x403 JUMP JUMPDEST PUSH1 0x40 MLOAD PUSH1 0x20 DUP2 DUP4 SUB SUB DUP2 MSTORE SWAP1 PUSH1 0x40 MSTORE PUSH32 0x800FB83F00000000000000000000000000000000000000000000000000000000 PUSH28 0xFFFFFFFFFFFFFFFFFFFFFFFFFFFFFFFFFFFFFFFFFFFFFFFFFFFFFFFF NOT AND PUSH1 0x20 DUP3 ADD DUP1 MLOAD PUSH28 0xFFFFFFFFFFFFFFFFFFFFFFFFFFFFFFFFFFFFFFFFFFFFFFFFFFFFFFFF DUP4 DUP2 DUP4 AND OR DUP4 MSTORE POP POP POP POP PUSH1 0x40 MLOAD PUSH2 0x1B8 SWAP2 SWAP1 PUSH2 0x38C JUMP JUMPDEST PUSH1 0x0 PUSH1 0x40 MLOAD DUP1 DUP4 SUB DUP2 DUP6 DUP8 GAS CALL SWAP3 POP POP POP RETURNDATASIZE DUP1 PUSH1 0x0 DUP2 EQ PUSH2 0x1F5 JUMPI PUSH1 0x40 MLOAD SWAP2 POP PUSH1 0x1F NOT PUSH1 0x3F RETURNDATASIZE ADD AND DUP3 ADD PUSH1 0x40 MSTORE RETURNDATASIZE DUP3 MSTORE RETURNDATASIZE PUSH1 0x0 PUSH1 0x20 DUP5 ADD RETURNDATACOPY PUSH2 0x1FA JUMP JUMPDEST PUSH1 0x60 SWAP2 POP JUMPDEST POP POP SWAP1 POP DUP1 PUSH2 0x23E JUMPI PUSH1 0x40 MLOAD PUSH32 0x8C379A000000000000000000000000000000000000000000000000000000000 DUP2 MSTORE PUSH1 0x4 ADD PUSH2 0x235 SWAP1 PUSH2 0x3C3 JUMP JUMPDEST PUSH1 0x40 MLOAD DUP1 SWAP2 SUB SWAP1 REVERT JUMPDEST POP STOP JUMPDEST CALLVALUE DUP1 ISZERO PUSH2 0x24D JUMPI PUSH1 0x0 DUP1 REVERT JUMPDEST POP STOP JUMPDEST CALLVALUE DUP1 ISZERO PUSH2 0x25C JUMPI PUSH1 0x0 DUP1 REVERT JUMPDEST POP PUSH2 0x265 PUSH2 0x2D1 JUMP JUMPDEST PUSH1 0x40 MLOAD PUSH2 0x272 SWAP2 SWAP1 PUSH2 0x403 JUMP JUMPDEST PUSH1 0x40 MLOAD DUP1 SWAP2 SUB SWAP1 RETURN JUMPDEST CALLVALUE DUP1 ISZERO PUSH2 0x287 JUMPI PUSH1 0x0 DUP1 REVERT JUMPDEST POP PUSH2 0x290 PUSH2 0x2D7 JUMP JUMPDEST PUSH1 0x40 MLOAD PUSH2 0x29D SWAP2 SWAP1 PUSH2 0x403 JUMP JUMPDEST PUSH1 0x40 MLOAD DUP1 SWAP2 SUB SWAP1 RETURN JUMPDEST CALLVALUE DUP1 ISZERO PUSH2 0x2B2 JUMPI PUSH1 0x0 DUP1 REVERT JUMPDEST POP PUSH2 0x2BB PUSH2 0x2DD JUMP JUMPDEST PUSH1 0x40 MLOAD PUSH2 0x2C8 SWAP2 SWAP1 PUSH2 0x403 JUMP JUMPDEST PUSH1 0x40 MLOAD DUP1 SWAP2 SUB SWAP1 RETURN JUMPDEST PUSH1 0x0 SLOAD DUP2 JUMP JUMPDEST PUSH1 0x1 SLOAD DUP2 JUMP JUMPDEST PUSH1 0x2 SLOAD DUP2 JUMP JUMPDEST PUSH1 0x0 PUSH2 0x2EE DUP3 PUSH2 0x41E JUMP JUMPDEST PUSH2 0x2F8 DUP2 DUP6 PUSH2 0x429 JUMP JUMPDEST SWAP4 POP PUSH2 0x308 DUP2 DUP6 PUSH1 0x20 DUP7 ADD PUSH2 0x4A5 JUMP JUMPDEST DUP1 DUP5 ADD SWAP2 POP POP SWAP3 SWAP2 POP POP JUMP JUMPDEST PUSH1 0x0 PUSH2 0x321 PUSH1 0x14 DUP4 PUSH2 0x434 JUMP JUMPDEST SWAP2 POP PUSH2 0x32C DUP3 PUSH2 0x507 JUMP JUMPDEST PUSH1 0x20 DUP3 ADD SWAP1 POP SWAP2 SWAP1 POP JUMP JUMPDEST PUSH1 0x0 PUSH2 0x344 PUSH1 0x1E DUP4 PUSH2 0x434 JUMP JUMPDEST SWAP2 POP PUSH2 0x34F DUP3 PUSH2 0x530 JUMP JUMPDEST PUSH1 0x20 DUP3 ADD SWAP1 POP SWAP2 SWAP1 POP JUMP JUMPDEST PUSH1 0x0 PUSH2 0x367 PUSH1 0x1A DUP4 PUSH2 0x434 JUMP JUMPDEST SWAP2 POP PUSH2 0x372 DUP3 PUSH2 0x559 JUMP JUMPDEST PUSH1 0x20 DUP3 ADD SWAP1 POP SWAP2 SWAP1 POP JUMP JUMPDEST PUSH2 0x386 DUP2 PUSH2 0x49B JUMP JUMPDEST DUP3 MSTORE POP POP JUMP JUMPDEST PUSH1 0x0 PUSH2 0x398 DUP3 DUP5 PUSH2 0x2E3 JUMP JUMPDEST SWAP2 POP DUP2 SWAP1 POP SWAP3 SWAP2 POP POP JUMP JUMPDEST PUSH1 0x0 PUSH1 0x20 DUP3 ADD SWAP1 POP DUP2 DUP2 SUB PUSH1 0x0 DUP4 ADD MSTORE PUSH2 0x3BC DUP2 PUSH2 0x314 JUMP JUMPDEST SWAP1 POP SWAP2 SWAP1 POP JUMP JUMPDEST PUSH1 0x0 PUSH1 0x20 DUP3 ADD SWAP1 POP DUP2 DUP2 SUB PUSH1 0x0 DUP4 ADD MSTORE PUSH2 0x3DC DUP2 PUSH2 0x337 JUMP JUMPDEST SWAP1 POP SWAP2 SWAP1 POP JUMP JUMPDEST PUSH1 0x0 PUSH1 0x20 DUP3 ADD SWAP1 POP DUP2 DUP2 SUB PUSH1 0x0 DUP4 ADD MSTORE PUSH2 0x3FC DUP2 PUSH2 0x35A JUMP JUMPDEST SWAP1 POP SWAP2 SWAP1 POP JUMP JUMPDEST PUSH1 0x0 PUSH1 0x20 DUP3 ADD SWAP1 POP PUSH2 0x418 PUSH1 0x0 DUP4 ADD DUP5 PUSH2 0x37D JUMP JUMPDEST SWAP3 SWAP2 POP POP JUMP JUMPDEST PUSH1 0x0 DUP2 MLOAD SWAP1 POP SWAP2 SWAP1 POP JUMP JUMPDEST PUSH1 0x0 DUP2 SWAP1 POP SWAP3 SWAP2 POP POP JUMP JUMPDEST PUSH1 0x0 DUP3 DUP3 MSTORE PUSH1 0x20 DUP3 ADD SWAP1 POP SWAP3 SWAP2 POP POP JUMP JUMPDEST PUSH1 0x0 PUSH2 0x450 DUP3 PUSH2 0x49B JUMP JUMPDEST SWAP2 POP PUSH2 0x45B DUP4 PUSH2 0x49B JUMP JUMPDEST SWAP3 POP DUP3 PUSH32 0xFFFFFFFFFFFFFFFFFFFFFFFFFFFFFFFFFFFFFFFFFFFFFFFFFFFFFFFFFFFFFFFF SUB DUP3 GT ISZERO PUSH2 0x490 JUMPI PUSH2 0x48F PUSH2 0x4D8 JUMP JUMPDEST JUMPDEST DUP3 DUP3 ADD SWAP1 POP SWAP3 SWAP2 POP POP JUMP JUMPDEST PUSH1 0x0 DUP2 SWAP1 POP SWAP2 SWAP1 POP JUMP JUMPDEST PUSH1 0x0 JUMPDEST DUP4 DUP2 LT ISZERO PUSH2 0x4C3 JUMPI DUP1 DUP3 ADD MLOAD DUP2 DUP5 ADD MSTORE PUSH1 0x20 DUP2 ADD SWAP1 POP PUSH2 0x4A8 JUMP JUMPDEST DUP4 DUP2 GT ISZERO PUSH2 0x4D2 JUMPI PUSH1 0x0 DUP5 DUP5 ADD MSTORE JUMPDEST POP POP POP POP JUMP JUMPDEST PUSH32 0x4E487B7100000000000000000000000000000000000000000000000000000000 PUSH1 0x0 MSTORE PUSH1 0x11 PUSH1 0x4 MSTORE PUSH1 0x24 PUSH1 0x0 REVERT JUMPDEST PUSH32 0x4974656D206973207061696420616C7265616479000000000000000000000000 PUSH1 0x0 DUP3 ADD MSTORE POP JUMP JUMPDEST PUSH32 0x7472616E73616374696F6E20776173206E6F74207375636365737366756C0000 PUSH1 0x0 DUP3 ADD MSTORE POP JUMP JUMPDEST PUSH32 0x4F6E6C792066756C6C207061796D656E747320616C6C6F776564000000000000 PUSH1 0x0 DUP3 ADD MSTORE POP JUMP INVALID LOG2 PUSH5 0x6970667358 0x22 SLT KECCAK256 LOG0 MSTORE PUSH32 0x3BDAD5EF07C425CB9B071692F2130D22D3F14F6635B7E24BA96BB078D864736F PUSH13 0x63430008070033000000000000 "
				},
				"gasEstimates": {
					"creation": {
						"codeDepositCost": "292800",
						"executionCost": "infinite",
						"totalCost": "infinite"
					},
					"external": {
						"": "156",
						"itemIndex()": "2451",
						"priceInWei()": "2407",
						"pricePaid()": "2429"
					}
				},
				"methodIdentifiers": {
					"itemIndex()": "e07bb1a7",
					"priceInWei()": "3c8da588",
					"pricePaid()": "89794d00"
				}
			},
			"storageLayout": {
				"storage": [
					{
						"astId": 4,
						"contract": "contracts/Item.sol:Item",
						"label": "priceInWei",
						"offset": 0,
						"slot": "0",
						"type": "t_uint256"
					},
					{
						"astId": 6,
						"contract": "contracts/Item.sol:Item",
						"label": "pricePaid",
						"offset": 0,
						"slot": "1",
						"type": "t_uint256"
					},
					{
						"astId": 8,
						"contract": "contracts/Item.sol:Item",
						"label": "itemIndex",
						"offset": 0,
						"slot": "2",
						"type": "t_uint256"
					},
					{
						"astId": 11,
						"contract": "contracts/Item.sol:Item",
						"label": "parentContract",
						"offset": 0,
						"slot": "3",
						"type": "t_contract(ItemManager)281"
					}
				],
				"types": {
					"t_contract(ItemManager)281": {
						"encoding": "inplace",
						"label": "contract ItemManager",
						"numberOfBytes": "20"
					},
					"t_uint256": {
						"encoding": "inplace",
						"label": "uint256",
						"numberOfBytes": "32"
					}
				}
			},
			"userdoc": {
				"kind": "user",
				"methods": {},
				"version": 1
			}
		}
	}
}